{
  "contractName": "Decentraskill",
  "abi": [
    {
      "inputs": [],
      "stateMutability": "nonpayable",
      "type": "constructor"
    },
    {
      "inputs": [
        {
          "internalType": "address",
          "name": "",
          "type": "address"
        }
      ],
      "name": "address_to_id",
      "outputs": [
        {
          "internalType": "uint256",
          "name": "",
          "type": "uint256"
        }
      ],
      "stateMutability": "view",
      "type": "function",
      "constant": true
    },
    {
      "inputs": [
        {
          "internalType": "uint256",
          "name": "",
          "type": "uint256"
        }
      ],
      "name": "certifications",
      "outputs": [
        {
          "internalType": "string",
          "name": "url",
          "type": "string"
        },
        {
          "internalType": "string",
          "name": "issue_date",
          "type": "string"
        },
        {
          "internalType": "string",
          "name": "valid_till",
          "type": "string"
        },
        {
          "internalType": "string",
          "name": "name",
          "type": "string"
        },
        {
          "internalType": "uint256",
          "name": "id",
          "type": "uint256"
        },
        {
          "internalType": "string",
          "name": "issuer",
          "type": "string"
        }
      ],
      "stateMutability": "view",
      "type": "function",
      "constant": true
    },
    {
      "inputs": [
        {
          "internalType": "uint256",
          "name": "",
          "type": "uint256"
        }
      ],
      "name": "companies",
      "outputs": [
        {
          "internalType": "uint256",
          "name": "id",
          "type": "uint256"
        },
        {
          "internalType": "string",
          "name": "name",
          "type": "string"
        },
        {
          "internalType": "address",
          "name": "wallet_address",
          "type": "address"
        }
      ],
      "stateMutability": "view",
      "type": "function",
      "constant": true
    },
    {
      "inputs": [
        {
          "internalType": "string",
          "name": "",
          "type": "string"
        }
      ],
      "name": "email_to_address",
      "outputs": [
        {
          "internalType": "address",
          "name": "",
          "type": "address"
        }
      ],
      "stateMutability": "view",
      "type": "function",
      "constant": true
    },
    {
      "inputs": [
        {
          "internalType": "uint256",
          "name": "",
          "type": "uint256"
        }
      ],
      "name": "employees",
      "outputs": [
        {
          "internalType": "uint256",
          "name": "id",
          "type": "uint256"
        },
        {
          "internalType": "uint256",
          "name": "company_id",
          "type": "uint256"
        },
        {
          "internalType": "string",
          "name": "name",
          "type": "string"
        },
        {
          "internalType": "address",
          "name": "wallet_address",
          "type": "address"
        },
        {
          "internalType": "bool",
          "name": "is_employed",
          "type": "bool"
        },
        {
          "internalType": "bool",
          "name": "is_manager",
          "type": "bool"
        },
        {
          "internalType": "uint256",
          "name": "num_skill",
          "type": "uint256"
        }
      ],
      "stateMutability": "view",
      "type": "function",
      "constant": true
    },
    {
      "inputs": [
        {
          "internalType": "uint256",
          "name": "",
          "type": "uint256"
        }
      ],
      "name": "endorsments",
      "outputs": [
        {
          "internalType": "uint256",
          "name": "endorser_id",
          "type": "uint256"
        },
        {
          "internalType": "string",
          "name": "date",
          "type": "string"
        },
        {
          "internalType": "string",
          "name": "comment",
          "type": "string"
        }
      ],
      "stateMutability": "view",
      "type": "function",
      "constant": true
    },
    {
      "inputs": [
        {
          "internalType": "uint256",
          "name": "",
          "type": "uint256"
        }
      ],
      "name": "experiences",
      "outputs": [
        {
          "internalType": "string",
          "name": "starting_date",
          "type": "string"
        },
        {
          "internalType": "string",
          "name": "ending_date",
          "type": "string"
        },
        {
          "internalType": "string",
          "name": "role",
          "type": "string"
        },
        {
          "internalType": "bool",
          "name": "currently_working",
          "type": "bool"
        },
        {
          "internalType": "uint256",
          "name": "company_id",
          "type": "uint256"
        },
        {
          "internalType": "bool",
          "name": "is_approved",
          "type": "bool"
        }
      ],
      "stateMutability": "view",
      "type": "function",
      "constant": true
    },
    {
      "inputs": [
        {
          "internalType": "address",
          "name": "",
          "type": "address"
        }
      ],
      "name": "is_company",
      "outputs": [
        {
          "internalType": "bool",
          "name": "",
          "type": "bool"
        }
      ],
      "stateMutability": "view",
      "type": "function",
      "constant": true
    },
    {
      "inputs": [
        {
          "internalType": "uint256",
          "name": "",
          "type": "uint256"
        }
      ],
      "name": "skills",
      "outputs": [
        {
          "internalType": "uint256",
          "name": "id",
          "type": "uint256"
        },
        {
          "internalType": "string",
          "name": "name",
          "type": "string"
        },
        {
          "internalType": "bool",
          "name": "verified",
          "type": "bool"
        }
      ],
      "stateMutability": "view",
      "type": "function",
      "constant": true
    },
    {
      "inputs": [
        {
          "internalType": "string",
          "name": "email",
          "type": "string"
        },
        {
          "internalType": "string",
          "name": "name",
          "type": "string"
        },
        {
          "internalType": "string",
          "name": "acc_type",
          "type": "string"
        }
      ],
      "name": "sign_up",
      "outputs": [],
      "stateMutability": "nonpayable",
      "type": "function"
    },
    {
      "inputs": [
        {
          "internalType": "uint256",
          "name": "employee_id",
          "type": "uint256"
        }
      ],
      "name": "approve_manager",
      "outputs": [],
      "stateMutability": "nonpayable",
      "type": "function"
    },
    {
      "inputs": [
        {
          "internalType": "string",
          "name": "email",
          "type": "string"
        }
      ],
      "name": "login",
      "outputs": [
        {
          "internalType": "string",
          "name": "",
          "type": "string"
        }
      ],
      "stateMutability": "view",
      "type": "function",
      "constant": true
    },
    {
      "inputs": [
        {
          "internalType": "uint256",
          "name": "user_id",
          "type": "uint256"
        },
        {
          "internalType": "string",
          "name": "url",
          "type": "string"
        },
        {
          "internalType": "string",
          "name": "issue_date",
          "type": "string"
        },
        {
          "internalType": "string",
          "name": "valid_till",
          "type": "string"
        },
        {
          "internalType": "string",
          "name": "name",
          "type": "string"
        },
        {
          "internalType": "string",
          "name": "issuer",
          "type": "string"
        },
        {
          "internalType": "uint256",
          "name": "linked_skill_id",
          "type": "uint256"
        }
      ],
      "name": "add_certification",
      "outputs": [],
      "stateMutability": "nonpayable",
      "type": "function"
    },
    {
      "inputs": [
        {
          "internalType": "uint256",
          "name": "userid",
          "type": "uint256"
        },
        {
          "internalType": "string",
          "name": "skill_name",
          "type": "string"
        }
      ],
      "name": "add_skill",
      "outputs": [],
      "stateMutability": "nonpayable",
      "type": "function"
    },
    {
      "inputs": [
        {
          "internalType": "uint256",
          "name": "user_id",
          "type": "uint256"
        },
        {
          "internalType": "uint256",
          "name": "skill_id",
          "type": "uint256"
        },
        {
          "internalType": "string",
          "name": "endorsing_date",
          "type": "string"
        },
        {
          "internalType": "string",
          "name": "comment",
          "type": "string"
        }
      ],
      "name": "endorse_skill",
      "outputs": [],
      "stateMutability": "nonpayable",
      "type": "function"
    },
    {
      "inputs": [
        {
          "internalType": "uint256",
          "name": "user_id",
          "type": "uint256"
        },
        {
          "internalType": "string",
          "name": "starting_date",
          "type": "string"
        },
        {
          "internalType": "string",
          "name": "ending_date",
          "type": "string"
        },
        {
          "internalType": "string",
          "name": "role",
          "type": "string"
        },
        {
          "internalType": "uint256",
          "name": "company_id",
          "type": "uint256"
        }
      ],
      "name": "add_experience",
      "outputs": [],
      "stateMutability": "nonpayable",
      "type": "function"
    },
    {
      "inputs": [
        {
          "internalType": "uint256",
          "name": "exp_id",
          "type": "uint256"
        },
        {
          "internalType": "uint256",
          "name": "company_id",
          "type": "uint256"
        }
      ],
      "name": "approve_experience",
      "outputs": [],
      "stateMutability": "nonpayable",
      "type": "function"
    },
    {
      "inputs": [
        {
          "internalType": "string",
          "name": "email",
          "type": "string"
        },
        {
          "internalType": "address",
          "name": "new_address",
          "type": "address"
        }
      ],
      "name": "update_wallet_address",
      "outputs": [],
      "stateMutability": "nonpayable",
      "type": "function"
    },
    {
      "inputs": [
        {
          "internalType": "uint256",
          "name": "id",
          "type": "uint256"
        }
      ],
      "name": "skills_of_user",
      "outputs": [
        {
          "internalType": "uint256[]",
          "name": "",
          "type": "uint256[]"
        }
      ],
      "stateMutability": "view",
      "type": "function",
      "constant": true
    },
    {
      "inputs": [
        {
          "internalType": "uint256",
          "name": "id",
          "type": "uint256"
        }
      ],
      "name": "exp_of_user",
      "outputs": [
        {
          "internalType": "uint256[]",
          "name": "",
          "type": "uint256[]"
        }
      ],
      "stateMutability": "view",
      "type": "function",
      "constant": true
    },
    {
      "inputs": [
        {
          "internalType": "uint256",
          "name": "id",
          "type": "uint256"
        }
      ],
      "name": "curr_emp_of_company",
      "outputs": [
        {
          "internalType": "uint256[]",
          "name": "",
          "type": "uint256[]"
        }
      ],
      "stateMutability": "view",
      "type": "function",
      "constant": true
    },
    {
      "inputs": [
        {
          "internalType": "uint256",
          "name": "id",
          "type": "uint256"
        }
      ],
      "name": "prev_emp_of_company",
      "outputs": [
        {
          "internalType": "uint256[]",
          "name": "",
          "type": "uint256[]"
        }
      ],
      "stateMutability": "view",
      "type": "function",
      "constant": true
    },
    {
      "inputs": [
        {
          "internalType": "uint256",
          "name": "id",
          "type": "uint256"
        }
      ],
      "name": "requested_emp_of_company",
      "outputs": [
        {
          "internalType": "uint256[]",
          "name": "",
          "type": "uint256[]"
        }
      ],
      "stateMutability": "view",
      "type": "function",
      "constant": true
    },
    {
      "inputs": [
        {
          "internalType": "uint256",
          "name": "id",
          "type": "uint256"
        }
      ],
      "name": "cert_of_skill",
      "outputs": [
        {
          "internalType": "uint256[]",
          "name": "",
          "type": "uint256[]"
        }
      ],
      "stateMutability": "view",
      "type": "function",
      "constant": true
    },
    {
      "inputs": [
        {
          "internalType": "uint256",
          "name": "id",
          "type": "uint256"
        }
      ],
      "name": "endrs_of_skill",
      "outputs": [
        {
          "internalType": "uint256[]",
          "name": "",
          "type": "uint256[]"
        }
      ],
      "stateMutability": "view",
      "type": "function",
      "constant": true
    }
  ],
  "bytecode": "0x60806040523480156200001157600080fd5b5060006001808160018154018082558091505003906000526020600020906007020190506040518060400160405280600581526020017f64756d6d7900000000000000000000000000000000000000000000000000000081525081600201908051906020019062000084929190620001f1565b50338160030160006101000a81548173ffffffffffffffffffffffffffffffffffffffff021916908373ffffffffffffffffffffffffffffffffffffffff16021790555060008160000181905550600067ffffffffffffffff81111562000114577f4e487b7100000000000000000000000000000000000000000000000000000000600052604160045260246000fd5b604051908082528060200260200182016040528015620001435781602001602082028036833780820191505090505b508160050190805190602001906200015d92919062000282565b50600067ffffffffffffffff811115620001a0577f4e487b7100000000000000000000000000000000000000000000000000000000600052604160045260246000fd5b604051908082528060200260200182016040528015620001cf5781602001602082028036833780820191505090505b50816006019080519060200190620001e992919062000282565b505062000358565b828054620001ff90620002f3565b90600052602060002090601f0160209004810192826200022357600085556200026f565b82601f106200023e57805160ff19168380011785556200026f565b828001600101855582156200026f579182015b828111156200026e57825182559160200191906001019062000251565b5b5090506200027e9190620002d4565b5090565b828054828255906000526020600020908101928215620002c1579160200282015b82811115620002c0578251825591602001919060010190620002a3565b5b509050620002d09190620002d4565b5090565b5b80821115620002ef576000816000905550600101620002d5565b5090565b600060028204905060018216806200030c57607f821691505b6020821081141562000323576200032262000329565b5b50919050565b7f4e487b7100000000000000000000000000000000000000000000000000000000600052602260045260246000fd5b61419180620003686000396000f3fe608060405234801561001057600080fd5b50600436106101735760003560e01c806350d15fbe116100de578063b1e116c311610097578063dd7a753811610071578063dd7a753814610506578063edf85a8614610536578063f7a03f3b14610552578063f86b20cb1461058257610173565b8063b1e116c31461046f578063ce77c9c9146104a1578063cf3e7c7c146104d157610173565b806350d15fbe146103755780635a2ec07c146103a75780637a52f30e146103c3578063852e65de146103f3578063884ffe32146104235780639e70be411461043f57610173565b80632cc8e274116101305780632cc8e2741461025e57806336d77eaa1461028e5780633a7d280c146102aa5780633c0359a4146102da5780634739326b1461030f5780634845a2951461034557610173565b8063067709dd146101785780630c1bc59114610194578063110ce79c146101b05780631575cdea146101e057806317ae5f81146101fc5780632813d19d1461022c575b600080fd5b610192600480360381019061018d9190613461565b61059e565b005b6101ae60048036038101906101a99190613395565b610716565b005b6101ca60048036038101906101c59190613314565b610917565b6040516101d791906138e1565b60405180910390f35b6101fa60048036038101906101f5919061322f565b6109ba565b005b61021660048036038101906102119190613314565b610f8f565b60405161022391906138e1565b60405180910390f35b61024660048036038101906102419190613314565b611032565b60405161025593929190613b35565b60405180910390f35b61027860048036038101906102739190613314565b611114565b60405161028591906138e1565b60405180910390f35b6102a860048036038101906102a39190613314565b6111b7565b005b6102c460048036038101906102bf91906132d3565b61140e565b6040516102d1919061391e565b60405180910390f35b6102f460048036038101906102ef9190613314565b611586565b604051610306969594939291906139b6565b60405180910390f35b61032960048036038101906103249190613314565b61187a565b60405161033c9796959493929190613bf6565b60405180910390f35b61035f600480360381019061035a91906132d3565b61198e565b60405161036c91906138c6565b60405180910390f35b61038f600480360381019061038a9190613314565b6119d7565b60405161039e93929190613b73565b60405180910390f35b6103c160048036038101906103bc919061333d565b611aa6565b005b6103dd60048036038101906103d891906131ae565b611ce1565b6040516103ea9190613b1a565b60405180910390f35b61040d60048036038101906104089190613314565b611cf9565b60405161041a91906138e1565b60405180910390f35b61043d600480360381019061043891906131d7565b611d9c565b005b61045960048036038101906104549190613314565b611f7c565b60405161046691906138e1565b60405180910390f35b61048960048036038101906104849190613314565b61201f565b60405161049893929190613bb1565b60405180910390f35b6104bb60048036038101906104b69190613314565b612169565b6040516104c891906138e1565b60405180910390f35b6104eb60048036038101906104e69190613314565b61220c565b6040516104fd96959493929190613940565b60405180910390f35b610520600480360381019061051b91906131ae565b61240a565b60405161052d9190613903565b60405180910390f35b610550600480360381019061054b9190613589565b61242a565b005b61056c60048036038101906105679190613314565b612b7d565b60405161057991906138e1565b60405180910390f35b61059c600480360381019061059791906135c5565b612c20565b005b8a600760003373ffffffffffffffffffffffffffffffffffffffff1673ffffffffffffffffffffffffffffffffffffffff1681526020019081526020016000205481146105ea57600080fd5b6000600260018160018154018082558091505003906000526020600020906006020190508b816000019080519060200190610626929190612f5c565b508a8a82600101919061063a929190612fe2565b50888882600201919061064e929190612fe2565b508686826003019190610662929190612fe2565b5060016002805490506106759190613d22565b81600401819055508484826005019190610690929190612fe2565b50600483815481106106cb577f4e487b7100000000000000000000000000000000000000000000000000000000600052603260045260246000fd5b90600052602060002090600502016003018160040154908060018154018082558091505060019003906000526020600020016000909190919091505550505050505050505050505050565b87600760003373ffffffffffffffffffffffffffffffffffffffff1673ffffffffffffffffffffffffffffffffffffffff16815260200190815260200160002054811461076257600080fd5b60006005600181600181540180825580915050039060005260206000209060060201905082816004018190555060008160030160006101000a81548160ff02191690831515021790555060008160050160006101000a81548160ff02191690831515021790555088888260000191906107dc929190612fe2565b5086868260010191906107f0929190612fe2565b508484826002019190610804929190612fe2565b5060018a8154811061083f577f4e487b7100000000000000000000000000000000000000000000000000000000600052603260045260246000fd5b906000526020600020906007020160060160016005805490506108629190613d22565b9080600181540180825580915050600190039060005260206000200160009091909190915055600083815481106108c2577f4e487b7100000000000000000000000000000000000000000000000000000000600052603260045260246000fd5b906000526020600020906006020160050160016005805490506108e59190613d22565b908060018154018082558091505060019003906000526020600020016000909190919091505550505050505050505050565b606060048281548110610953577f4e487b7100000000000000000000000000000000000000000000000000000000600052603260045260246000fd5b90600052602060002090600502016004018054806020026020016040519081016040528092919081815260200182805480156109ae57602002820191906000526020600020905b81548152602001906001019080831161099a575b50505050509050919050565b600073ffffffffffffffffffffffffffffffffffffffff16600687876040516109e4929190613896565b908152602001604051809103902060009054906101000a900473ffffffffffffffffffffffffffffffffffffffff1673ffffffffffffffffffffffffffffffffffffffff1614610a69576040517f08c379a0000000000000000000000000000000000000000000000000000000008152600401610a6090613ada565b60405180910390fd5b3360068787604051610a7c929190613896565b908152602001604051809103902060006101000a81548173ffffffffffffffffffffffffffffffffffffffff021916908373ffffffffffffffffffffffffffffffffffffffff160217905550610b4b82828080601f016020809104026020016040519081016040528093929190818152602001838380828437600081840152601f19601f820116905080830192505050505050506040518060400160405280600481526020017f7573657200000000000000000000000000000000000000000000000000000000815250612f20565b15610d415760006001808160018154018082558091505003906000526020600020906007020190508484826002019190610b86929190612fe2565b5060018080549050610b989190613d22565b8160000181905550338160030160006101000a81548173ffffffffffffffffffffffffffffffffffffffff021916908373ffffffffffffffffffffffffffffffffffffffff1602179055508060000154600760003373ffffffffffffffffffffffffffffffffffffffff1673ffffffffffffffffffffffffffffffffffffffff16815260200190815260200160002081905550600067ffffffffffffffff811115610c6c577f4e487b7100000000000000000000000000000000000000000000000000000000600052604160045260246000fd5b604051908082528060200260200182016040528015610c9a5781602001602082028036833780820191505090505b50816005019080519060200190610cb2929190613068565b50600067ffffffffffffffff811115610cf4577f4e487b7100000000000000000000000000000000000000000000000000000000600052604160045260246000fd5b604051908082528060200260200182016040528015610d225781602001602082028036833780820191505090505b50816006019080519060200190610d3a929190613068565b5050610f87565b60008060018160018154018082558091505003906000526020600020906006020190508484826001019190610d77929190612fe2565b506001600080549050610d8a9190613d22565b8160000181905550338160020160006101000a81548173ffffffffffffffffffffffffffffffffffffffff021916908373ffffffffffffffffffffffffffffffffffffffff160217905550600067ffffffffffffffff811115610e16577f4e487b7100000000000000000000000000000000000000000000000000000000600052604160045260246000fd5b604051908082528060200260200182016040528015610e445781602001602082028036833780820191505090505b50816003019080519060200190610e5c929190613068565b50600067ffffffffffffffff811115610e9e577f4e487b7100000000000000000000000000000000000000000000000000000000600052604160045260246000fd5b604051908082528060200260200182016040528015610ecc5781602001602082028036833780820191505090505b50816004019080519060200190610ee4929190613068565b508060000154600760003373ffffffffffffffffffffffffffffffffffffffff1673ffffffffffffffffffffffffffffffffffffffff168152602001908152602001600020819055506001600860003373ffffffffffffffffffffffffffffffffffffffff1673ffffffffffffffffffffffffffffffffffffffff16815260200190815260200160002060006101000a81548160ff021916908315150217905550505b505050505050565b606060008281548110610fcb577f4e487b7100000000000000000000000000000000000000000000000000000000600052603260045260246000fd5b906000526020600020906006020160050180548060200260200160405190810160405280929190818152602001828054801561102657602002820191906000526020600020905b815481526020019060010190808311611012575b50505050509050919050565b6000818154811061104257600080fd5b906000526020600020906006020160009150905080600001549080600101805461106b90613de0565b80601f016020809104026020016040519081016040528092919081815260200182805461109790613de0565b80156110e45780601f106110b9576101008083540402835291602001916110e4565b820191906000526020600020905b8154815290600101906020018083116110c757829003601f168201915b5050505050908060020160009054906101000a900473ffffffffffffffffffffffffffffffffffffffff16905083565b606060008281548110611150577f4e487b7100000000000000000000000000000000000000000000000000000000600052603260045260246000fd5b90600052602060002090600602016004018054806020026020016040519081016040528092919081815260200182805480156111ab57602002820191906000526020600020905b815481526020019060010190808311611197575b50505050509050919050565b600860003373ffffffffffffffffffffffffffffffffffffffff1673ffffffffffffffffffffffffffffffffffffffff16815260200190815260200160002060009054906101000a900460ff16611243576040517f08c379a000000000000000000000000000000000000000000000000000000000815260040161123a90613a5a565b60405180910390fd5b600760003373ffffffffffffffffffffffffffffffffffffffff1673ffffffffffffffffffffffffffffffffffffffff16815260200190815260200160002054600182815481106112bd577f4e487b7100000000000000000000000000000000000000000000000000000000600052603260045260246000fd5b9060005260206000209060070201600101541461130f576040517f08c379a000000000000000000000000000000000000000000000000000000000815260040161130690613a9a565b60405180910390fd5b60018181548110611349577f4e487b7100000000000000000000000000000000000000000000000000000000600052603260045260246000fd5b906000526020600020906007020160030160159054906101000a900460ff16156113a8576040517f08c379a000000000000000000000000000000000000000000000000000000000815260040161139f90613afa565b60405180910390fd5b60018082815481106113e3577f4e487b7100000000000000000000000000000000000000000000000000000000600052603260045260246000fd5b906000526020600020906007020160030160156101000a81548160ff02191690831515021790555050565b606060068260405161142091906138af565b908152602001604051809103902060009054906101000a900473ffffffffffffffffffffffffffffffffffffffff1673ffffffffffffffffffffffffffffffffffffffff163373ffffffffffffffffffffffffffffffffffffffff16146114bc576040517f08c379a00000000000000000000000000000000000000000000000000000000081526004016114b390613a7a565b60405180910390fd5b600860003373ffffffffffffffffffffffffffffffffffffffff1673ffffffffffffffffffffffffffffffffffffffff16815260200190815260200160002060009054906101000a900460ff16611548576040518060400160405280600481526020017f757365720000000000000000000000000000000000000000000000000000000081525061157f565b6040518060400160405280600781526020017f636f6d70616e79000000000000000000000000000000000000000000000000008152505b9050919050565b6002818154811061159657600080fd5b90600052602060002090600602016000915090508060000180546115b990613de0565b80601f01602080910402602001604051908101604052809291908181526020018280546115e590613de0565b80156116325780601f1061160757610100808354040283529160200191611632565b820191906000526020600020905b81548152906001019060200180831161161557829003601f168201915b50505050509080600101805461164790613de0565b80601f016020809104026020016040519081016040528092919081815260200182805461167390613de0565b80156116c05780601f10611695576101008083540402835291602001916116c0565b820191906000526020600020905b8154815290600101906020018083116116a357829003601f168201915b5050505050908060020180546116d590613de0565b80601f016020809104026020016040519081016040528092919081815260200182805461170190613de0565b801561174e5780601f106117235761010080835404028352916020019161174e565b820191906000526020600020905b81548152906001019060200180831161173157829003601f168201915b50505050509080600301805461176390613de0565b80601f016020809104026020016040519081016040528092919081815260200182805461178f90613de0565b80156117dc5780601f106117b1576101008083540402835291602001916117dc565b820191906000526020600020905b8154815290600101906020018083116117bf57829003601f168201915b5050505050908060040154908060050180546117f790613de0565b80601f016020809104026020016040519081016040528092919081815260200182805461182390613de0565b80156118705780601f1061184557610100808354040283529160200191611870565b820191906000526020600020905b81548152906001019060200180831161185357829003601f168201915b5050505050905086565b6001818154811061188a57600080fd5b90600052602060002090600702016000915090508060000154908060010154908060020180546118b990613de0565b80601f01602080910402602001604051908101604052809291908181526020018280546118e590613de0565b80156119325780601f1061190757610100808354040283529160200191611932565b820191906000526020600020905b81548152906001019060200180831161191557829003601f168201915b5050505050908060030160009054906101000a900473ffffffffffffffffffffffffffffffffffffffff16908060030160149054906101000a900460ff16908060030160159054906101000a900460ff16908060040154905087565b6006818051602081018201805184825260208301602085012081835280955050505050506000915054906101000a900473ffffffffffffffffffffffffffffffffffffffff1681565b600481815481106119e757600080fd5b9060005260206000209060050201600091509050806000015490806001018054611a1090613de0565b80601f0160208091040260200160405190810160405280929190818152602001828054611a3c90613de0565b8015611a895780601f10611a5e57610100808354040283529160200191611a89565b820191906000526020600020905b815481529060010190602001808311611a6c57829003601f168201915b5050505050908060020160009054906101000a900460ff16905083565b82600760003373ffffffffffffffffffffffffffffffffffffffff1673ffffffffffffffffffffffffffffffffffffffff168152602001908152602001600020548114611af257600080fd5b60006004600181600181540180825580915050039060005260206000209060050201905060018581548110611b50577f4e487b7100000000000000000000000000000000000000000000000000000000600052603260045260246000fd5b90600052602060002090600702016005016001600480549050611b739190613d22565b90806001815401808255809150506001900390600052602060002001600090919091909150558383826001019190611bac929190612fe2565b5060008160020160006101000a81548160ff021916908315150217905550600067ffffffffffffffff811115611c0b577f4e487b7100000000000000000000000000000000000000000000000000000000600052604160045260246000fd5b604051908082528060200260200182016040528015611c395781602001602082028036833780820191505090505b50816003019080519060200190611c51929190613068565b50600067ffffffffffffffff811115611c93577f4e487b7100000000000000000000000000000000000000000000000000000000600052604160045260246000fd5b604051908082528060200260200182016040528015611cc15781602001602082028036833780820191505090505b50816004019080519060200190611cd9929190613068565b505050505050565b60076020528060005260406000206000915090505481565b606060008281548110611d35577f4e487b7100000000000000000000000000000000000000000000000000000000600052603260045260246000fd5b9060005260206000209060060201600301805480602002602001604051908101604052809291908181526020018280548015611d9057602002820191906000526020600020905b815481526020019060010190808311611d7c575b50505050509050919050565b3373ffffffffffffffffffffffffffffffffffffffff1660068484604051611dc5929190613896565b908152602001604051809103902060009054906101000a900473ffffffffffffffffffffffffffffffffffffffff1673ffffffffffffffffffffffffffffffffffffffff1614611e4a576040517f08c379a0000000000000000000000000000000000000000000000000000000008152600401611e4190613aba565b60405180910390fd5b8060068484604051611e5d929190613896565b908152602001604051809103902060006101000a81548173ffffffffffffffffffffffffffffffffffffffff021916908373ffffffffffffffffffffffffffffffffffffffff1602179055506000600760003373ffffffffffffffffffffffffffffffffffffffff1673ffffffffffffffffffffffffffffffffffffffff1681526020019081526020016000205490506000600760003373ffffffffffffffffffffffffffffffffffffffff1673ffffffffffffffffffffffffffffffffffffffff1681526020019081526020016000208190555080600760008473ffffffffffffffffffffffffffffffffffffffff1673ffffffffffffffffffffffffffffffffffffffff1681526020019081526020016000208190555050505050565b606060018281548110611fb8577f4e487b7100000000000000000000000000000000000000000000000000000000600052603260045260246000fd5b906000526020600020906007020160050180548060200260200160405190810160405280929190818152602001828054801561201357602002820191906000526020600020905b815481526020019060010190808311611fff575b50505050509050919050565b6003818154811061202f57600080fd5b906000526020600020906003020160009150905080600001549080600101805461205890613de0565b80601f016020809104026020016040519081016040528092919081815260200182805461208490613de0565b80156120d15780601f106120a6576101008083540402835291602001916120d1565b820191906000526020600020905b8154815290600101906020018083116120b457829003601f168201915b5050505050908060020180546120e690613de0565b80601f016020809104026020016040519081016040528092919081815260200182805461211290613de0565b801561215f5780601f106121345761010080835404028352916020019161215f565b820191906000526020600020905b81548152906001019060200180831161214257829003601f168201915b5050505050905083565b6060600182815481106121a5577f4e487b7100000000000000000000000000000000000000000000000000000000600052603260045260246000fd5b906000526020600020906007020160060180548060200260200160405190810160405280929190818152602001828054801561220057602002820191906000526020600020905b8154815260200190600101908083116121ec575b50505050509050919050565b6005818154811061221c57600080fd5b906000526020600020906006020160009150905080600001805461223f90613de0565b80601f016020809104026020016040519081016040528092919081815260200182805461226b90613de0565b80156122b85780601f1061228d576101008083540402835291602001916122b8565b820191906000526020600020905b81548152906001019060200180831161229b57829003601f168201915b5050505050908060010180546122cd90613de0565b80601f01602080910402602001604051908101604052809291908181526020018280546122f990613de0565b80156123465780601f1061231b57610100808354040283529160200191612346565b820191906000526020600020905b81548152906001019060200180831161232957829003601f168201915b50505050509080600201805461235b90613de0565b80601f016020809104026020016040519081016040528092919081815260200182805461238790613de0565b80156123d45780601f106123a9576101008083540402835291602001916123d4565b820191906000526020600020905b8154815290600101906020018083116123b757829003601f168201915b5050505050908060030160009054906101000a900460ff16908060040154908060050160009054906101000a900460ff16905086565b60086020528060005260406000206000915054906101000a900460ff1681565b600860003373ffffffffffffffffffffffffffffffffffffffff1673ffffffffffffffffffffffffffffffffffffffff16815260200190815260200160002060009054906101000a900460ff1680156125575750600582815481106124b8577f4e487b7100000000000000000000000000000000000000000000000000000000600052603260045260246000fd5b9060005260206000209060060201600401546000600760003373ffffffffffffffffffffffffffffffffffffffff1673ffffffffffffffffffffffffffffffffffffffff1681526020019081526020016000205481548110612543577f4e487b7100000000000000000000000000000000000000000000000000000000600052603260045260246000fd5b906000526020600020906006020160000154145b806126d657506001600760003373ffffffffffffffffffffffffffffffffffffffff1673ffffffffffffffffffffffffffffffffffffffff16815260200190815260200160002054815481106125d6577f4e487b7100000000000000000000000000000000000000000000000000000000600052603260045260246000fd5b906000526020600020906007020160030160159054906101000a900460ff1680156126d5575060058281548110612636577f4e487b7100000000000000000000000000000000000000000000000000000000600052603260045260246000fd5b9060005260206000209060060201600401546001600760003373ffffffffffffffffffffffffffffffffffffffff1673ffffffffffffffffffffffffffffffffffffffff16815260200190815260200160002054815481106126c1577f4e487b7100000000000000000000000000000000000000000000000000000000600052603260045260246000fd5b906000526020600020906007020160010154145b5b612715576040517f08c379a000000000000000000000000000000000000000000000000000000000815260040161270c90613a3a565b60405180910390fd5b6000600160058481548110612753577f4e487b7100000000000000000000000000000000000000000000000000000000600052603260045260246000fd5b906000526020600020906006020160050160006101000a81548160ff021916908315150217905550600090505b600082815481106127ba577f4e487b7100000000000000000000000000000000000000000000000000000000600052603260045260246000fd5b906000526020600020906006020160050180549050811015612915578260008381548110612811577f4e487b7100000000000000000000000000000000000000000000000000000000600052603260045260246000fd5b9060005260206000209060060201600501828154811061285a577f4e487b7100000000000000000000000000000000000000000000000000000000600052603260045260246000fd5b906000526020600020015414156129025760008083815481106128a6577f4e487b7100000000000000000000000000000000000000000000000000000000600052603260045260246000fd5b906000526020600020906006020160050182815481106128ef577f4e487b7100000000000000000000000000000000000000000000000000000000600052603260045260246000fd5b9060005260206000200181905550612915565b808061290d90613e43565b915050612780565b600090505b60008281548110612954577f4e487b7100000000000000000000000000000000000000000000000000000000600052603260045260246000fd5b906000526020600020906006020160030180549050811015612aaf5760008083815481106129ab577f4e487b7100000000000000000000000000000000000000000000000000000000600052603260045260246000fd5b906000526020600020906006020160030182815481106129f4577f4e487b7100000000000000000000000000000000000000000000000000000000600052603260045260246000fd5b90600052602060002001541415612a9c578260008381548110612a40577f4e487b7100000000000000000000000000000000000000000000000000000000600052603260045260246000fd5b90600052602060002090600602016005018281548110612a89577f4e487b7100000000000000000000000000000000000000000000000000000000600052603260045260246000fd5b9060005260206000200181905550612aaf565b8080612aa790613e43565b91505061291a565b60008281548110612ae9577f4e487b7100000000000000000000000000000000000000000000000000000000600052603260045260246000fd5b906000526020600020906006020160030180549050811415612b785760008281548110612b3f577f4e487b7100000000000000000000000000000000000000000000000000000000600052603260045260246000fd5b90600052602060002090600602016003018390806001815401808255809150506001900390600052602060002001600090919091909150555b505050565b606060048281548110612bb9577f4e487b7100000000000000000000000000000000000000000000000000000000600052603260045260246000fd5b9060005260206000209060050201600301805480602002602001604051908101604052809291908181526020018280548015612c1457602002820191906000526020600020905b815481526020019060010190808311612c00575b50505050509050919050565b600060036001816001815401808255809150500390600052602060002090600302019050600760003373ffffffffffffffffffffffffffffffffffffffff1673ffffffffffffffffffffffffffffffffffffffff1681526020019081526020016000205481600001819055508282826002019190612c9f929190612fe2565b508484826001019190612cb3929190612fe2565b5060048681548110612cee577f4e487b7100000000000000000000000000000000000000000000000000000000600052603260045260246000fd5b90600052602060002090600502016004016001600380549050612d119190613d22565b90806001815401808255809150506001900390600052602060002001600090919091909150556001600760003373ffffffffffffffffffffffffffffffffffffffff1673ffffffffffffffffffffffffffffffffffffffff1681526020019081526020016000205481548110612db0577f4e487b7100000000000000000000000000000000000000000000000000000000600052603260045260246000fd5b906000526020600020906007020160030160159054906101000a900460ff1615612f175760018781548110612e0e577f4e487b7100000000000000000000000000000000000000000000000000000000600052603260045260246000fd5b9060005260206000209060070201600101546001600760003373ffffffffffffffffffffffffffffffffffffffff1673ffffffffffffffffffffffffffffffffffffffff1681526020019081526020016000205481548110612e99577f4e487b7100000000000000000000000000000000000000000000000000000000600052603260045260246000fd5b9060005260206000209060070201600101541415612f1657600160048781548110612eed577f4e487b7100000000000000000000000000000000000000000000000000000000600052603260045260246000fd5b906000526020600020906005020160020160006101000a81548160ff0219169083151502179055505b5b50505050505050565b6000612f2c8383612f34565b905092915050565b600081518351148015612f54575081805190602001208380519060200120145b905092915050565b828054612f6890613de0565b90600052602060002090601f016020900481019282612f8a5760008555612fd1565b82601f10612fa357805160ff1916838001178555612fd1565b82800160010185558215612fd1579182015b82811115612fd0578251825591602001919060010190612fb5565b5b509050612fde91906130b5565b5090565b828054612fee90613de0565b90600052602060002090601f0160209004810192826130105760008555613057565b82601f1061302957803560ff1916838001178555613057565b82800160010185558215613057579182015b8281111561305657823582559160200191906001019061303b565b5b50905061306491906130b5565b5090565b8280548282559060005260206000209081019282156130a4579160200282015b828111156130a3578251825591602001919060010190613088565b5b5090506130b191906130b5565b5090565b5b808211156130ce5760008160009055506001016130b6565b5090565b60006130e56130e084613c91565b613c6c565b9050828152602081018484840111156130fd57600080fd5b613108848285613d9e565b509392505050565b60008135905061311f8161412d565b92915050565b60008083601f84011261313757600080fd5b8235905067ffffffffffffffff81111561315057600080fd5b60208301915083600182028301111561316857600080fd5b9250929050565b600082601f83011261318057600080fd5b81356131908482602086016130d2565b91505092915050565b6000813590506131a881614144565b92915050565b6000602082840312156131c057600080fd5b60006131ce84828501613110565b91505092915050565b6000806000604084860312156131ec57600080fd5b600084013567ffffffffffffffff81111561320657600080fd5b61321286828701613125565b9350935050602061322586828701613110565b9150509250925092565b6000806000806000806060878903121561324857600080fd5b600087013567ffffffffffffffff81111561326257600080fd5b61326e89828a01613125565b9650965050602087013567ffffffffffffffff81111561328d57600080fd5b61329989828a01613125565b9450945050604087013567ffffffffffffffff8111156132b857600080fd5b6132c489828a01613125565b92509250509295509295509295565b6000602082840312156132e557600080fd5b600082013567ffffffffffffffff8111156132ff57600080fd5b61330b8482850161316f565b91505092915050565b60006020828403121561332657600080fd5b600061333484828501613199565b91505092915050565b60008060006040848603121561335257600080fd5b600061336086828701613199565b935050602084013567ffffffffffffffff81111561337d57600080fd5b61338986828701613125565b92509250509250925092565b60008060008060008060008060a0898b0312156133b157600080fd5b60006133bf8b828c01613199565b985050602089013567ffffffffffffffff8111156133dc57600080fd5b6133e88b828c01613125565b9750975050604089013567ffffffffffffffff81111561340757600080fd5b6134138b828c01613125565b9550955050606089013567ffffffffffffffff81111561343257600080fd5b61343e8b828c01613125565b935093505060806134518b828c01613199565b9150509295985092959890939650565b600080600080600080600080600080600060e08c8e03121561348257600080fd5b60006134908e828f01613199565b9b505060208c013567ffffffffffffffff8111156134ad57600080fd5b6134b98e828f0161316f565b9a505060408c013567ffffffffffffffff8111156134d657600080fd5b6134e28e828f01613125565b995099505060608c013567ffffffffffffffff81111561350157600080fd5b61350d8e828f01613125565b975097505060808c013567ffffffffffffffff81111561352c57600080fd5b6135388e828f01613125565b955095505060a08c013567ffffffffffffffff81111561355757600080fd5b6135638e828f01613125565b935093505060c06135768e828f01613199565b9150509295989b509295989b9093969950565b6000806040838503121561359c57600080fd5b60006135aa85828601613199565b92505060206135bb85828601613199565b9150509250929050565b600080600080600080608087890312156135de57600080fd5b60006135ec89828a01613199565b96505060206135fd89828a01613199565b955050604087013567ffffffffffffffff81111561361a57600080fd5b61362689828a01613125565b9450945050606087013567ffffffffffffffff81111561364557600080fd5b61365189828a01613125565b92509250509295509295509295565b600061366c8383613878565b60208301905092915050565b61368181613d56565b82525050565b600061369282613cd2565b61369c8185613cf5565b93506136a783613cc2565b8060005b838110156136d85781516136bf8882613660565b97506136ca83613ce8565b9250506001810190506136ab565b5085935050505092915050565b6136ee81613d68565b82525050565b60006137008385613d17565b935061370d838584613d9e565b82840190509392505050565b600061372482613cdd565b61372e8185613d06565b935061373e818560208601613dad565b61374781613f19565b840191505092915050565b600061375d82613cdd565b6137678185613d17565b9350613777818560208601613dad565b80840191505092915050565b6000613790605283613d06565b915061379b82613f2a565b606082019050919050565b60006137b3602383613d06565b91506137be82613f9f565b604082019050919050565b60006137d6603383613d06565b91506137e182613fee565b604082019050919050565b60006137f9602383613d06565b91506138048261403d565b604082019050919050565b600061381c603483613d06565b91506138278261408c565b604082019050919050565b600061383f601b83613d06565b915061384a826140db565b602082019050919050565b6000613862602083613d06565b915061386d82614104565b602082019050919050565b61388181613d94565b82525050565b61389081613d94565b82525050565b60006138a38284866136f4565b91508190509392505050565b60006138bb8284613752565b915081905092915050565b60006020820190506138db6000830184613678565b92915050565b600060208201905081810360008301526138fb8184613687565b905092915050565b600060208201905061391860008301846136e5565b92915050565b600060208201905081810360008301526139388184613719565b905092915050565b600060c082019050818103600083015261395a8189613719565b9050818103602083015261396e8188613719565b905081810360408301526139828187613719565b905061399160608301866136e5565b61399e6080830185613887565b6139ab60a08301846136e5565b979650505050505050565b600060c08201905081810360008301526139d08189613719565b905081810360208301526139e48188613719565b905081810360408301526139f88187613719565b90508181036060830152613a0c8186613719565b9050613a1b6080830185613887565b81810360a0830152613a2d8184613719565b9050979650505050505050565b60006020820190508181036000830152613a5381613783565b9050919050565b60006020820190508181036000830152613a73816137a6565b9050919050565b60006020820190508181036000830152613a93816137c9565b9050919050565b60006020820190508181036000830152613ab3816137ec565b9050919050565b60006020820190508181036000830152613ad38161380f565b9050919050565b60006020820190508181036000830152613af381613832565b9050919050565b60006020820190508181036000830152613b1381613855565b9050919050565b6000602082019050613b2f6000830184613887565b92915050565b6000606082019050613b4a6000830186613887565b8181036020830152613b5c8185613719565b9050613b6b6040830184613678565b949350505050565b6000606082019050613b886000830186613887565b8181036020830152613b9a8185613719565b9050613ba960408301846136e5565b949350505050565b6000606082019050613bc66000830186613887565b8181036020830152613bd88185613719565b90508181036040830152613bec8184613719565b9050949350505050565b600060e082019050613c0b600083018a613887565b613c186020830189613887565b8181036040830152613c2a8188613719565b9050613c396060830187613678565b613c4660808301866136e5565b613c5360a08301856136e5565b613c6060c0830184613887565b98975050505050505050565b6000613c76613c87565b9050613c828282613e12565b919050565b6000604051905090565b600067ffffffffffffffff821115613cac57613cab613eea565b5b613cb582613f19565b9050602081019050919050565b6000819050602082019050919050565b600081519050919050565b600081519050919050565b6000602082019050919050565b600082825260208201905092915050565b600082825260208201905092915050565b600081905092915050565b6000613d2d82613d94565b9150613d3883613d94565b925082821015613d4b57613d4a613e8c565b5b828203905092915050565b6000613d6182613d74565b9050919050565b60008115159050919050565b600073ffffffffffffffffffffffffffffffffffffffff82169050919050565b6000819050919050565b82818337600083830152505050565b60005b83811015613dcb578082015181840152602081019050613db0565b83811115613dda576000848401525b50505050565b60006002820490506001821680613df857607f821691505b60208210811415613e0c57613e0b613ebb565b5b50919050565b613e1b82613f19565b810181811067ffffffffffffffff82111715613e3a57613e39613eea565b5b80604052505050565b6000613e4e82613d94565b91507fffffffffffffffffffffffffffffffffffffffffffffffffffffffffffffffff821415613e8157613e80613e8c565b5b600182019050919050565b7f4e487b7100000000000000000000000000000000000000000000000000000000600052601160045260246000fd5b7f4e487b7100000000000000000000000000000000000000000000000000000000600052602260045260246000fd5b7f4e487b7100000000000000000000000000000000000000000000000000000000600052604160045260246000fd5b6000601f19601f8301169050919050565b7f6572726f723a20617070726f7665722073686f756c642062652074686520636f60008201527f6d70616e79206163636f756e74206f722061206d616e61676572206f6620746860208201527f6520726571756972656420636f6d70616e790000000000000000000000000000604082015250565b7f6572726f723a2073656e646572206e6f74206120636f6d70616e79206163636f60008201527f756e740000000000000000000000000000000000000000000000000000000000602082015250565b7f6572726f723a20696e636f72726563742077616c6c657420616464726573732060008201527f7573656420666f72207369676e696e6720696e00000000000000000000000000602082015250565b7f6572726f723a2075736572206e6f74206f66207468652073616d6520636f6d7060008201527f616e790000000000000000000000000000000000000000000000000000000000602082015250565b7f6572726f723a2066756e6374696f6e2063616c6c65642066726f6d20696e636f60008201527f72726563742077616c6c65742061646472657373000000000000000000000000602082015250565b7f6572726f723a207573657220616c726561647920657869737473210000000000600082015250565b7f6572726f723a207573657220697320616c72656164792061206d616e61676572600082015250565b61413681613d56565b811461414157600080fd5b50565b61414d81613d94565b811461415857600080fd5b5056fea264697066735822122050fd59b709dfc6d654daa07139edd236bb727c4b73ab68daa0f87adff800a3fd64736f6c63430008010033",
  "immutableReferences": {},
  "source": "// SPDX-License-Identifier: MIT\r\npragma solidity ^0.8.1;\r\n\r\ncontract Decentraskill {\r\n    company[] public companies;\r\n    user[] public employees;\r\n    certificate[] public certifications;\r\n    endorsment[] public endorsments;\r\n    skill[] public skills;\r\n    experience[] public experiences;\r\n\r\n    mapping(string => address) public email_to_address;\r\n    mapping(address => uint256) public address_to_id;\r\n    mapping(address => bool) public is_company;\r\n\r\n    modifier verifiedUser(uint256 user_id) {\r\n        require(user_id == address_to_id[msg.sender]);\r\n        _;\r\n    }\r\n\r\n    struct company {\r\n        uint256 id;\r\n        string name;\r\n        address wallet_address;\r\n        uint256[] current_employees;\r\n        uint256[] previous_employees;\r\n        uint256[] requested_employees;\r\n    }\r\n\r\n    struct certificate {\r\n        string url;\r\n        string issue_date;\r\n        string valid_till;\r\n        string name;\r\n        uint256 id;\r\n        string issuer;\r\n    }\r\n\r\n    struct endorsment {\r\n        uint256 endorser_id;\r\n        string date;\r\n        string comment;\r\n    }\r\n\r\n    struct experience {\r\n        string starting_date;\r\n        string ending_date;\r\n        string role;\r\n        bool currently_working;\r\n        uint256 company_id;\r\n        bool is_approved;\r\n    }\r\n\r\n    struct skill {\r\n        uint256 id;\r\n        string name;\r\n        bool verified;\r\n        uint256[] skill_certifications;\r\n        uint256[] skill_endorsements;\r\n    }\r\n\r\n    struct user {\r\n        uint256 id;\r\n        uint256 company_id;\r\n        string name;\r\n        address wallet_address;\r\n        bool is_employed;\r\n        bool is_manager;\r\n        uint256 num_skill;\r\n        uint256[] user_skills;\r\n        uint256[] user_work_experience;\r\n    }\r\n\r\n    constructor() {\r\n        user storage dummy_user = employees.push();\r\n        dummy_user.name = \"dummy\";\r\n        dummy_user.wallet_address = msg.sender;\r\n        dummy_user.id = 0;\r\n        dummy_user.user_skills = new uint256[](0);\r\n        dummy_user.user_work_experience = new uint256[](0);\r\n    }\r\n\r\n    function memcmp(bytes memory a, bytes memory b)\r\n        internal\r\n        pure\r\n        returns (bool)\r\n    {\r\n        return (a.length == b.length) && (keccak256(a) == keccak256(b));\r\n    }\r\n\r\n    function strcmp(string memory a, string memory b)\r\n        internal\r\n        pure\r\n        returns (bool)\r\n    {\r\n        return memcmp(bytes(a), bytes(b));\r\n    }\r\n\r\n    function sign_up(\r\n        string calldata email,\r\n        string calldata name,\r\n        string calldata acc_type\r\n    ) public {\r\n        require(\r\n            email_to_address[email] == address(0),\r\n            \"error: user already exists!\"\r\n        );\r\n        email_to_address[email] = msg.sender;\r\n\r\n        if (strcmp(acc_type, \"user\")) {\r\n            user storage new_user = employees.push();\r\n            new_user.name = name;\r\n            new_user.id = employees.length - 1;\r\n            new_user.wallet_address = msg.sender;\r\n            address_to_id[msg.sender] = new_user.id;\r\n            new_user.user_skills = new uint256[](0);\r\n            new_user.user_work_experience = new uint256[](0);\r\n        } else {\r\n            company storage new_company = companies.push();\r\n            new_company.name = name;\r\n            new_company.id = companies.length - 1;\r\n            new_company.wallet_address = msg.sender;\r\n            new_company.current_employees = new uint256[](0);\r\n            new_company.previous_employees = new uint256[](0);\r\n            address_to_id[msg.sender] = new_company.id;\r\n            is_company[msg.sender] = true;\r\n        }\r\n    }\r\n\r\n    function approve_manager(uint256 employee_id) public {\r\n        require(is_company[msg.sender], \"error: sender not a company account\");\r\n        require(\r\n            employees[employee_id].company_id == address_to_id[msg.sender],\r\n            \"error: user not of the same company\"\r\n        );\r\n        require(\r\n            !(employees[employee_id].is_manager),\r\n            \"error: user is already a manager\"\r\n        );\r\n        employees[employee_id].is_manager = true;\r\n    }\r\n\r\n    function login(string memory email) public view returns (string memory) {\r\n        require(\r\n            msg.sender == email_to_address[email],\r\n            \"error: incorrect wallet address used for signing in\"\r\n        );\r\n        return (is_company[msg.sender]) ? \"company\" : \"user\";\r\n    }\r\n\r\n    function add_certification(\r\n        uint256 user_id,\r\n        string memory url,\r\n        string calldata issue_date,\r\n        string calldata valid_till,\r\n        string calldata name,\r\n        string calldata issuer,\r\n        uint256 linked_skill_id\r\n    ) public verifiedUser(user_id) {\r\n        certificate storage new_certificate = certifications.push();\r\n        new_certificate.url = url;\r\n        new_certificate.issue_date = issue_date;\r\n        new_certificate.valid_till = valid_till;\r\n        new_certificate.name = name;\r\n        new_certificate.id = certifications.length - 1;\r\n        new_certificate.issuer = issuer;\r\n        skills[linked_skill_id].skill_certifications.push(new_certificate.id);\r\n    }\r\n\r\n    function add_skill(uint256 userid, string calldata skill_name)\r\n        public\r\n        verifiedUser(userid)\r\n    {\r\n        skill storage new_skill = skills.push();\r\n        employees[userid].user_skills.push(skills.length - 1);\r\n        new_skill.name = skill_name;\r\n        new_skill.verified = false;\r\n        new_skill.skill_certifications = new uint256[](0);\r\n        new_skill.skill_endorsements = new uint256[](0);\r\n    }\r\n\r\n    function endorse_skill(\r\n        uint256 user_id,\r\n        uint256 skill_id,\r\n        string calldata endorsing_date,\r\n        string calldata comment\r\n    ) public {\r\n        endorsment storage new_endorsemnt = endorsments.push();\r\n        new_endorsemnt.endorser_id = address_to_id[msg.sender];\r\n        new_endorsemnt.comment = comment;\r\n        new_endorsemnt.date = endorsing_date;\r\n        skills[skill_id].skill_endorsements.push(endorsments.length - 1);\r\n        if (employees[address_to_id[msg.sender]].is_manager) {\r\n            if (\r\n                employees[address_to_id[msg.sender]].company_id ==\r\n                employees[user_id].company_id\r\n            ) {\r\n                skills[skill_id].verified = true;\r\n            }\r\n        }\r\n    }\r\n\r\n    function add_experience(\r\n        uint256 user_id,\r\n        string calldata starting_date,\r\n        string calldata ending_date,\r\n        string calldata role,\r\n        uint256 company_id\r\n    ) public verifiedUser(user_id) {\r\n        experience storage new_experience = experiences.push();\r\n        new_experience.company_id = company_id;\r\n        new_experience.currently_working = false;\r\n        new_experience.is_approved = false;\r\n        new_experience.starting_date = starting_date;\r\n        new_experience.ending_date = ending_date;\r\n        new_experience.role = role;\r\n        employees[user_id].user_work_experience.push(experiences.length - 1);\r\n        companies[company_id].requested_employees.push(experiences.length - 1);\r\n    }\r\n\r\n    function approve_experience(uint256 exp_id, uint256 company_id) public {\r\n        require(\r\n            (is_company[msg.sender] &&\r\n                companies[address_to_id[msg.sender]].id ==\r\n                experiences[exp_id].company_id) ||\r\n                (employees[address_to_id[msg.sender]].is_manager &&\r\n                    employees[address_to_id[msg.sender]].company_id ==\r\n                    experiences[exp_id].company_id),\r\n            \"error: approver should be the company account or a manager of the required company\"\r\n        );\r\n        uint256 i;\r\n        experiences[exp_id].is_approved = true;\r\n        for (i = 0; i < companies[company_id].requested_employees.length; i++) {\r\n            if (companies[company_id].requested_employees[i] == exp_id) {\r\n                companies[company_id].requested_employees[i] = 0;\r\n                break;\r\n            }\r\n        }\r\n        for (i = 0; i < companies[company_id].current_employees.length; i++) {\r\n            if (companies[company_id].current_employees[i] == 0) {\r\n                companies[company_id].requested_employees[i] = exp_id;\r\n                break;\r\n            }\r\n        }\r\n        if (i == companies[company_id].current_employees.length)\r\n            companies[company_id].current_employees.push(exp_id);\r\n    }\r\n\r\n    function update_wallet_address(string calldata email, address new_address)\r\n        public\r\n    {\r\n        require(\r\n            email_to_address[email] == msg.sender,\r\n            \"error: function called from incorrect wallet address\"\r\n        );\r\n        email_to_address[email] = new_address;\r\n        uint256 id = address_to_id[msg.sender];\r\n        address_to_id[msg.sender] = 0;\r\n        address_to_id[new_address] = id;\r\n    }\r\n\r\n    function skills_of_user(uint256 id) public view returns (uint256[] memory) {\r\n        return employees[id].user_skills;\r\n    }\r\n\r\n    function exp_of_user(uint256 id) public view returns (uint256[] memory) {\r\n        return employees[id].user_work_experience;\r\n    }\r\n\r\n    function curr_emp_of_company(uint256 id)\r\n        public\r\n        view\r\n        returns (uint256[] memory)\r\n    {\r\n        return companies[id].current_employees;\r\n    }\r\n\r\n    function prev_emp_of_company(uint256 id)\r\n        public\r\n        view\r\n        returns (uint256[] memory)\r\n    {\r\n        return companies[id].previous_employees;\r\n    }\r\n\r\n    function requested_emp_of_company(uint256 id)\r\n        public\r\n        view\r\n        returns (uint256[] memory)\r\n    {\r\n        return companies[id].requested_employees;\r\n    }\r\n\r\n    function cert_of_skill(uint256 id) public view returns (uint256[] memory) {\r\n        return skills[id].skill_certifications;\r\n    }\r\n\r\n    function endrs_of_skill(uint256 id) public view returns (uint256[] memory) {\r\n        return skills[id].skill_endorsements;\r\n    }\r\n}\r\n",
  "sourcePath": "C:/Users/hardi/Desktop/Projects/blockchain/Decentraskill/contracts/Decentraskill.sol",
  "compiler": {
    "name": "solc",
    "version": "0.8.1+commit.df193b15.Emscripten.clang"
  },
  "schemaVersion": "3.4.0",
  "updatedAt": "2021-11-12T10:58:57.778Z",
  "networkType": "ethereum",
  "devdoc": {
    "kind": "dev",
    "methods": {},
    "version": 1
  },
  "userdoc": {
    "kind": "user",
    "methods": {},
    "version": 1
  }
}