{
  "contractName": "Decentraskill",
  "abi": [
    {
      "inputs": [],
      "stateMutability": "nonpayable",
      "type": "constructor"
    },
    {
      "inputs": [
        {
          "internalType": "address",
          "name": "",
          "type": "address"
        }
      ],
      "name": "address_to_id",
      "outputs": [
        {
          "internalType": "uint256",
          "name": "",
          "type": "uint256"
        }
      ],
      "stateMutability": "view",
      "type": "function",
      "constant": true
    },
    {
      "inputs": [
        {
          "internalType": "uint256",
          "name": "",
          "type": "uint256"
        }
      ],
      "name": "certifications",
      "outputs": [
        {
          "internalType": "string",
          "name": "url",
          "type": "string"
        },
        {
          "internalType": "string",
          "name": "issue_date",
          "type": "string"
        },
        {
          "internalType": "string",
          "name": "valid_till",
          "type": "string"
        },
        {
          "internalType": "string",
          "name": "name",
          "type": "string"
        },
        {
          "internalType": "uint256",
          "name": "id",
          "type": "uint256"
        },
        {
          "internalType": "string",
          "name": "issuer",
          "type": "string"
        }
      ],
      "stateMutability": "view",
      "type": "function",
      "constant": true
    },
    {
      "inputs": [
        {
          "internalType": "uint256",
          "name": "",
          "type": "uint256"
        }
      ],
      "name": "companies",
      "outputs": [
        {
          "internalType": "uint256",
          "name": "id",
          "type": "uint256"
        },
        {
          "internalType": "string",
          "name": "name",
          "type": "string"
        },
        {
          "internalType": "address",
          "name": "wallet_address",
          "type": "address"
        }
      ],
      "stateMutability": "view",
      "type": "function",
      "constant": true
    },
    {
      "inputs": [
        {
          "internalType": "string",
          "name": "",
          "type": "string"
        }
      ],
      "name": "email_to_address",
      "outputs": [
        {
          "internalType": "address",
          "name": "",
          "type": "address"
        }
      ],
      "stateMutability": "view",
      "type": "function",
      "constant": true
    },
    {
      "inputs": [
        {
          "internalType": "uint256",
          "name": "",
          "type": "uint256"
        }
      ],
      "name": "employees",
      "outputs": [
        {
          "internalType": "uint256",
          "name": "id",
          "type": "uint256"
        },
        {
          "internalType": "uint256",
          "name": "company_id",
          "type": "uint256"
        },
        {
          "internalType": "string",
          "name": "name",
          "type": "string"
        },
        {
          "internalType": "address",
          "name": "wallet_address",
          "type": "address"
        },
        {
          "internalType": "bool",
          "name": "is_employed",
          "type": "bool"
        },
        {
          "internalType": "bool",
          "name": "is_manager",
          "type": "bool"
        },
        {
          "internalType": "uint256",
          "name": "num_skill",
          "type": "uint256"
        }
      ],
      "stateMutability": "view",
      "type": "function",
      "constant": true
    },
    {
      "inputs": [
        {
          "internalType": "uint256",
          "name": "",
          "type": "uint256"
        }
      ],
      "name": "endorsments",
      "outputs": [
        {
          "internalType": "uint256",
          "name": "endorser_id",
          "type": "uint256"
        },
        {
          "internalType": "string",
          "name": "date",
          "type": "string"
        },
        {
          "internalType": "string",
          "name": "comment",
          "type": "string"
        }
      ],
      "stateMutability": "view",
      "type": "function",
      "constant": true
    },
    {
      "inputs": [
        {
          "internalType": "uint256",
          "name": "",
          "type": "uint256"
        }
      ],
      "name": "experiences",
      "outputs": [
        {
          "internalType": "string",
          "name": "starting_date",
          "type": "string"
        },
        {
          "internalType": "string",
          "name": "ending_date",
          "type": "string"
        },
        {
          "internalType": "string",
          "name": "role",
          "type": "string"
        },
        {
          "internalType": "bool",
          "name": "currently_working",
          "type": "bool"
        },
        {
          "internalType": "uint256",
          "name": "company_id",
          "type": "uint256"
        },
        {
          "internalType": "bool",
          "name": "is_approved",
          "type": "bool"
        }
      ],
      "stateMutability": "view",
      "type": "function",
      "constant": true
    },
    {
      "inputs": [
        {
          "internalType": "address",
          "name": "",
          "type": "address"
        }
      ],
      "name": "is_company",
      "outputs": [
        {
          "internalType": "bool",
          "name": "",
          "type": "bool"
        }
      ],
      "stateMutability": "view",
      "type": "function",
      "constant": true
    },
    {
      "inputs": [
        {
          "internalType": "uint256",
          "name": "",
          "type": "uint256"
        }
      ],
      "name": "skills",
      "outputs": [
        {
          "internalType": "uint256",
          "name": "id",
          "type": "uint256"
        },
        {
          "internalType": "string",
          "name": "name",
          "type": "string"
        },
        {
          "internalType": "bool",
          "name": "verified",
          "type": "bool"
        }
      ],
      "stateMutability": "view",
      "type": "function",
      "constant": true
    },
    {
      "inputs": [
        {
          "internalType": "string",
          "name": "email",
          "type": "string"
        },
        {
          "internalType": "string",
          "name": "name",
          "type": "string"
        },
        {
          "internalType": "string",
          "name": "acc_type",
          "type": "string"
        }
      ],
      "name": "sign_up",
      "outputs": [],
      "stateMutability": "nonpayable",
      "type": "function"
    },
    {
      "inputs": [
        {
          "internalType": "uint256",
          "name": "employee_id",
          "type": "uint256"
        }
      ],
      "name": "approve_manager",
      "outputs": [],
      "stateMutability": "nonpayable",
      "type": "function"
    },
    {
      "inputs": [
        {
          "internalType": "string",
          "name": "email",
          "type": "string"
        }
      ],
      "name": "login",
      "outputs": [
        {
          "internalType": "string",
          "name": "",
          "type": "string"
        }
      ],
      "stateMutability": "view",
      "type": "function",
      "constant": true
    },
    {
      "inputs": [
        {
          "internalType": "uint256",
          "name": "user_id",
          "type": "uint256"
        },
        {
          "internalType": "string",
          "name": "url",
          "type": "string"
        },
        {
          "internalType": "string",
          "name": "issue_date",
          "type": "string"
        },
        {
          "internalType": "string",
          "name": "valid_till",
          "type": "string"
        },
        {
          "internalType": "string",
          "name": "name",
          "type": "string"
        },
        {
          "internalType": "string",
          "name": "issuer",
          "type": "string"
        },
        {
          "internalType": "uint256",
          "name": "linked_skill_id",
          "type": "uint256"
        }
      ],
      "name": "add_certification",
      "outputs": [],
      "stateMutability": "nonpayable",
      "type": "function"
    },
    {
      "inputs": [
        {
          "internalType": "uint256",
          "name": "userid",
          "type": "uint256"
        },
        {
          "internalType": "string",
          "name": "skill_name",
          "type": "string"
        }
      ],
      "name": "add_skill",
      "outputs": [],
      "stateMutability": "nonpayable",
      "type": "function"
    },
    {
      "inputs": [
        {
          "internalType": "uint256",
          "name": "user_id",
          "type": "uint256"
        },
        {
          "internalType": "uint256",
          "name": "skill_id",
          "type": "uint256"
        },
        {
          "internalType": "string",
          "name": "endorsing_date",
          "type": "string"
        },
        {
          "internalType": "string",
          "name": "comment",
          "type": "string"
        }
      ],
      "name": "endorse_skill",
      "outputs": [],
      "stateMutability": "nonpayable",
      "type": "function"
    },
    {
      "inputs": [
        {
          "internalType": "uint256",
          "name": "user_id",
          "type": "uint256"
        },
        {
          "internalType": "string",
          "name": "starting_date",
          "type": "string"
        },
        {
          "internalType": "string",
          "name": "ending_date",
          "type": "string"
        },
        {
          "internalType": "string",
          "name": "role",
          "type": "string"
        },
        {
          "internalType": "uint256",
          "name": "company_id",
          "type": "uint256"
        }
      ],
      "name": "add_experience",
      "outputs": [],
      "stateMutability": "nonpayable",
      "type": "function"
    },
    {
      "inputs": [
        {
          "internalType": "uint256",
          "name": "exp_id",
          "type": "uint256"
        },
        {
          "internalType": "uint256",
          "name": "company_id",
          "type": "uint256"
        }
      ],
      "name": "approve_experience",
      "outputs": [],
      "stateMutability": "nonpayable",
      "type": "function"
    },
    {
      "inputs": [
        {
          "internalType": "string",
          "name": "email",
          "type": "string"
        },
        {
          "internalType": "address",
          "name": "new_address",
          "type": "address"
        }
      ],
      "name": "update_wallet_address",
      "outputs": [],
      "stateMutability": "nonpayable",
      "type": "function"
    },
    {
      "inputs": [
        {
          "internalType": "uint256",
          "name": "id",
          "type": "uint256"
        }
      ],
      "name": "skills_of_user",
      "outputs": [
        {
          "internalType": "uint256[]",
          "name": "",
          "type": "uint256[]"
        }
      ],
      "stateMutability": "view",
      "type": "function",
      "constant": true
    },
    {
      "inputs": [
        {
          "internalType": "uint256",
          "name": "id",
          "type": "uint256"
        }
      ],
      "name": "exp_of_user",
      "outputs": [
        {
          "internalType": "uint256[]",
          "name": "",
          "type": "uint256[]"
        }
      ],
      "stateMutability": "view",
      "type": "function",
      "constant": true
    },
    {
      "inputs": [
        {
          "internalType": "uint256",
          "name": "id",
          "type": "uint256"
        }
      ],
      "name": "curr_emp_of_company",
      "outputs": [
        {
          "internalType": "uint256[]",
          "name": "",
          "type": "uint256[]"
        }
      ],
      "stateMutability": "view",
      "type": "function",
      "constant": true
    },
    {
      "inputs": [
        {
          "internalType": "uint256",
          "name": "id",
          "type": "uint256"
        }
      ],
      "name": "prev_emp_of_company",
      "outputs": [
        {
          "internalType": "uint256[]",
          "name": "",
          "type": "uint256[]"
        }
      ],
      "stateMutability": "view",
      "type": "function",
      "constant": true
    },
    {
      "inputs": [
        {
          "internalType": "uint256",
          "name": "id",
          "type": "uint256"
        }
      ],
      "name": "requested_emp_of_company",
      "outputs": [
        {
          "internalType": "uint256[]",
          "name": "",
          "type": "uint256[]"
        }
      ],
      "stateMutability": "view",
      "type": "function",
      "constant": true
    },
    {
      "inputs": [
        {
          "internalType": "uint256",
          "name": "id",
          "type": "uint256"
        }
      ],
      "name": "cert_of_skill",
      "outputs": [
        {
          "internalType": "uint256[]",
          "name": "",
          "type": "uint256[]"
        }
      ],
      "stateMutability": "view",
      "type": "function",
      "constant": true
    },
    {
      "inputs": [
        {
          "internalType": "uint256",
          "name": "id",
          "type": "uint256"
        }
      ],
      "name": "endrs_of_skill",
      "outputs": [
        {
          "internalType": "uint256[]",
          "name": "",
          "type": "uint256[]"
        }
      ],
      "stateMutability": "view",
      "type": "function",
      "constant": true
    }
  ],
  "bytecode": "0x60806040523480156200001157600080fd5b5060006001808160018154018082558091505003906000526020600020906007020190506040518060400160405280600581526020017f64756d6d7900000000000000000000000000000000000000000000000000000081525081600201908051906020019062000084929190620001f1565b50338160030160006101000a81548173ffffffffffffffffffffffffffffffffffffffff021916908373ffffffffffffffffffffffffffffffffffffffff16021790555060008160000181905550600067ffffffffffffffff81111562000114577f4e487b7100000000000000000000000000000000000000000000000000000000600052604160045260246000fd5b604051908082528060200260200182016040528015620001435781602001602082028036833780820191505090505b508160050190805190602001906200015d92919062000282565b50600067ffffffffffffffff811115620001a0577f4e487b7100000000000000000000000000000000000000000000000000000000600052604160045260246000fd5b604051908082528060200260200182016040528015620001cf5781602001602082028036833780820191505090505b50816006019080519060200190620001e992919062000282565b505062000358565b828054620001ff90620002f3565b90600052602060002090601f0160209004810192826200022357600085556200026f565b82601f106200023e57805160ff19168380011785556200026f565b828001600101855582156200026f579182015b828111156200026e57825182559160200191906001019062000251565b5b5090506200027e9190620002d4565b5090565b828054828255906000526020600020908101928215620002c1579160200282015b82811115620002c0578251825591602001919060010190620002a3565b5b509050620002d09190620002d4565b5090565b5b80821115620002ef576000816000905550600101620002d5565b5090565b600060028204905060018216806200030c57607f821691505b6020821081141562000323576200032262000329565b5b50919050565b7f4e487b7100000000000000000000000000000000000000000000000000000000600052602260045260246000fd5b6141ab80620003686000396000f3fe608060405234801561001057600080fd5b50600436106101735760003560e01c806350d15fbe116100de578063b1e116c311610097578063dd7a753811610071578063dd7a753814610506578063edf85a8614610536578063f7a03f3b14610552578063f86b20cb1461058257610173565b8063b1e116c31461046f578063ce77c9c9146104a1578063cf3e7c7c146104d157610173565b806350d15fbe146103755780635a2ec07c146103a75780637a52f30e146103c3578063852e65de146103f3578063884ffe32146104235780639e70be411461043f57610173565b80632cc8e274116101305780632cc8e2741461025e57806336d77eaa1461028e5780633a7d280c146102aa5780633c0359a4146102da5780634739326b1461030f5780634845a2951461034557610173565b8063067709dd146101785780630c1bc59114610194578063110ce79c146101b05780631575cdea146101e057806317ae5f81146101fc5780632813d19d1461022c575b600080fd5b610192600480360381019061018d919061347b565b61059e565b005b6101ae60048036038101906101a991906133af565b610716565b005b6101ca60048036038101906101c5919061332e565b610917565b6040516101d791906138fb565b60405180910390f35b6101fa60048036038101906101f59190613249565b6109ba565b005b6102166004803603810190610211919061332e565b610f8f565b60405161022391906138fb565b60405180910390f35b6102466004803603810190610241919061332e565b611032565b60405161025593929190613b4f565b60405180910390f35b6102786004803603810190610273919061332e565b611114565b60405161028591906138fb565b60405180910390f35b6102a860048036038101906102a3919061332e565b6111b7565b005b6102c460048036038101906102bf91906132ed565b61140e565b6040516102d19190613938565b60405180910390f35b6102f460048036038101906102ef919061332e565b611586565b604051610306969594939291906139d0565b60405180910390f35b6103296004803603810190610324919061332e565b61187a565b60405161033c9796959493929190613c10565b60405180910390f35b61035f600480360381019061035a91906132ed565b61198e565b60405161036c91906138e0565b60405180910390f35b61038f600480360381019061038a919061332e565b6119d7565b60405161039e93929190613b8d565b60405180910390f35b6103c160048036038101906103bc9190613357565b611aa6565b005b6103dd60048036038101906103d891906131c8565b611cfb565b6040516103ea9190613b34565b60405180910390f35b61040d6004803603810190610408919061332e565b611d13565b60405161041a91906138fb565b60405180910390f35b61043d600480360381019061043891906131f1565b611db6565b005b6104596004803603810190610454919061332e565b611f96565b60405161046691906138fb565b60405180910390f35b6104896004803603810190610484919061332e565b612039565b60405161049893929190613bcb565b60405180910390f35b6104bb60048036038101906104b6919061332e565b612183565b6040516104c891906138fb565b60405180910390f35b6104eb60048036038101906104e6919061332e565b612226565b6040516104fd9695949392919061395a565b60405180910390f35b610520600480360381019061051b91906131c8565b612424565b60405161052d919061391d565b60405180910390f35b610550600480360381019061054b91906135a3565b612444565b005b61056c6004803603810190610567919061332e565b612b97565b60405161057991906138fb565b60405180910390f35b61059c600480360381019061059791906135df565b612c3a565b005b8a600760003373ffffffffffffffffffffffffffffffffffffffff1673ffffffffffffffffffffffffffffffffffffffff1681526020019081526020016000205481146105ea57600080fd5b6000600260018160018154018082558091505003906000526020600020906006020190508b816000019080519060200190610626929190612f76565b508a8a82600101919061063a929190612ffc565b50888882600201919061064e929190612ffc565b508686826003019190610662929190612ffc565b5060016002805490506106759190613d3c565b81600401819055508484826005019190610690929190612ffc565b50600483815481106106cb577f4e487b7100000000000000000000000000000000000000000000000000000000600052603260045260246000fd5b90600052602060002090600502016003018160040154908060018154018082558091505060019003906000526020600020016000909190919091505550505050505050505050505050565b87600760003373ffffffffffffffffffffffffffffffffffffffff1673ffffffffffffffffffffffffffffffffffffffff16815260200190815260200160002054811461076257600080fd5b60006005600181600181540180825580915050039060005260206000209060060201905082816004018190555060008160030160006101000a81548160ff02191690831515021790555060008160050160006101000a81548160ff02191690831515021790555088888260000191906107dc929190612ffc565b5086868260010191906107f0929190612ffc565b508484826002019190610804929190612ffc565b5060018a8154811061083f577f4e487b7100000000000000000000000000000000000000000000000000000000600052603260045260246000fd5b906000526020600020906007020160060160016005805490506108629190613d3c565b9080600181540180825580915050600190039060005260206000200160009091909190915055600083815481106108c2577f4e487b7100000000000000000000000000000000000000000000000000000000600052603260045260246000fd5b906000526020600020906006020160050160016005805490506108e59190613d3c565b908060018154018082558091505060019003906000526020600020016000909190919091505550505050505050505050565b606060048281548110610953577f4e487b7100000000000000000000000000000000000000000000000000000000600052603260045260246000fd5b90600052602060002090600502016004018054806020026020016040519081016040528092919081815260200182805480156109ae57602002820191906000526020600020905b81548152602001906001019080831161099a575b50505050509050919050565b600073ffffffffffffffffffffffffffffffffffffffff16600687876040516109e49291906138b0565b908152602001604051809103902060009054906101000a900473ffffffffffffffffffffffffffffffffffffffff1673ffffffffffffffffffffffffffffffffffffffff1614610a69576040517f08c379a0000000000000000000000000000000000000000000000000000000008152600401610a6090613af4565b60405180910390fd5b3360068787604051610a7c9291906138b0565b908152602001604051809103902060006101000a81548173ffffffffffffffffffffffffffffffffffffffff021916908373ffffffffffffffffffffffffffffffffffffffff160217905550610b4b82828080601f016020809104026020016040519081016040528093929190818152602001838380828437600081840152601f19601f820116905080830192505050505050506040518060400160405280600481526020017f7573657200000000000000000000000000000000000000000000000000000000815250612f3a565b15610d415760006001808160018154018082558091505003906000526020600020906007020190508484826002019190610b86929190612ffc565b5060018080549050610b989190613d3c565b8160000181905550338160030160006101000a81548173ffffffffffffffffffffffffffffffffffffffff021916908373ffffffffffffffffffffffffffffffffffffffff1602179055508060000154600760003373ffffffffffffffffffffffffffffffffffffffff1673ffffffffffffffffffffffffffffffffffffffff16815260200190815260200160002081905550600067ffffffffffffffff811115610c6c577f4e487b7100000000000000000000000000000000000000000000000000000000600052604160045260246000fd5b604051908082528060200260200182016040528015610c9a5781602001602082028036833780820191505090505b50816005019080519060200190610cb2929190613082565b50600067ffffffffffffffff811115610cf4577f4e487b7100000000000000000000000000000000000000000000000000000000600052604160045260246000fd5b604051908082528060200260200182016040528015610d225781602001602082028036833780820191505090505b50816006019080519060200190610d3a929190613082565b5050610f87565b60008060018160018154018082558091505003906000526020600020906006020190508484826001019190610d77929190612ffc565b506001600080549050610d8a9190613d3c565b8160000181905550338160020160006101000a81548173ffffffffffffffffffffffffffffffffffffffff021916908373ffffffffffffffffffffffffffffffffffffffff160217905550600067ffffffffffffffff811115610e16577f4e487b7100000000000000000000000000000000000000000000000000000000600052604160045260246000fd5b604051908082528060200260200182016040528015610e445781602001602082028036833780820191505090505b50816003019080519060200190610e5c929190613082565b50600067ffffffffffffffff811115610e9e577f4e487b7100000000000000000000000000000000000000000000000000000000600052604160045260246000fd5b604051908082528060200260200182016040528015610ecc5781602001602082028036833780820191505090505b50816004019080519060200190610ee4929190613082565b508060000154600760003373ffffffffffffffffffffffffffffffffffffffff1673ffffffffffffffffffffffffffffffffffffffff168152602001908152602001600020819055506001600860003373ffffffffffffffffffffffffffffffffffffffff1673ffffffffffffffffffffffffffffffffffffffff16815260200190815260200160002060006101000a81548160ff021916908315150217905550505b505050505050565b606060008281548110610fcb577f4e487b7100000000000000000000000000000000000000000000000000000000600052603260045260246000fd5b906000526020600020906006020160050180548060200260200160405190810160405280929190818152602001828054801561102657602002820191906000526020600020905b815481526020019060010190808311611012575b50505050509050919050565b6000818154811061104257600080fd5b906000526020600020906006020160009150905080600001549080600101805461106b90613dfa565b80601f016020809104026020016040519081016040528092919081815260200182805461109790613dfa565b80156110e45780601f106110b9576101008083540402835291602001916110e4565b820191906000526020600020905b8154815290600101906020018083116110c757829003601f168201915b5050505050908060020160009054906101000a900473ffffffffffffffffffffffffffffffffffffffff16905083565b606060008281548110611150577f4e487b7100000000000000000000000000000000000000000000000000000000600052603260045260246000fd5b90600052602060002090600602016004018054806020026020016040519081016040528092919081815260200182805480156111ab57602002820191906000526020600020905b815481526020019060010190808311611197575b50505050509050919050565b600860003373ffffffffffffffffffffffffffffffffffffffff1673ffffffffffffffffffffffffffffffffffffffff16815260200190815260200160002060009054906101000a900460ff16611243576040517f08c379a000000000000000000000000000000000000000000000000000000000815260040161123a90613a74565b60405180910390fd5b600760003373ffffffffffffffffffffffffffffffffffffffff1673ffffffffffffffffffffffffffffffffffffffff16815260200190815260200160002054600182815481106112bd577f4e487b7100000000000000000000000000000000000000000000000000000000600052603260045260246000fd5b9060005260206000209060070201600101541461130f576040517f08c379a000000000000000000000000000000000000000000000000000000000815260040161130690613ab4565b60405180910390fd5b60018181548110611349577f4e487b7100000000000000000000000000000000000000000000000000000000600052603260045260246000fd5b906000526020600020906007020160030160159054906101000a900460ff16156113a8576040517f08c379a000000000000000000000000000000000000000000000000000000000815260040161139f90613b14565b60405180910390fd5b60018082815481106113e3577f4e487b7100000000000000000000000000000000000000000000000000000000600052603260045260246000fd5b906000526020600020906007020160030160156101000a81548160ff02191690831515021790555050565b606060068260405161142091906138c9565b908152602001604051809103902060009054906101000a900473ffffffffffffffffffffffffffffffffffffffff1673ffffffffffffffffffffffffffffffffffffffff163373ffffffffffffffffffffffffffffffffffffffff16146114bc576040517f08c379a00000000000000000000000000000000000000000000000000000000081526004016114b390613a94565b60405180910390fd5b600860003373ffffffffffffffffffffffffffffffffffffffff1673ffffffffffffffffffffffffffffffffffffffff16815260200190815260200160002060009054906101000a900460ff16611548576040518060400160405280600481526020017f757365720000000000000000000000000000000000000000000000000000000081525061157f565b6040518060400160405280600781526020017f636f6d70616e79000000000000000000000000000000000000000000000000008152505b9050919050565b6002818154811061159657600080fd5b90600052602060002090600602016000915090508060000180546115b990613dfa565b80601f01602080910402602001604051908101604052809291908181526020018280546115e590613dfa565b80156116325780601f1061160757610100808354040283529160200191611632565b820191906000526020600020905b81548152906001019060200180831161161557829003601f168201915b50505050509080600101805461164790613dfa565b80601f016020809104026020016040519081016040528092919081815260200182805461167390613dfa565b80156116c05780601f10611695576101008083540402835291602001916116c0565b820191906000526020600020905b8154815290600101906020018083116116a357829003601f168201915b5050505050908060020180546116d590613dfa565b80601f016020809104026020016040519081016040528092919081815260200182805461170190613dfa565b801561174e5780601f106117235761010080835404028352916020019161174e565b820191906000526020600020905b81548152906001019060200180831161173157829003601f168201915b50505050509080600301805461176390613dfa565b80601f016020809104026020016040519081016040528092919081815260200182805461178f90613dfa565b80156117dc5780601f106117b1576101008083540402835291602001916117dc565b820191906000526020600020905b8154815290600101906020018083116117bf57829003601f168201915b5050505050908060040154908060050180546117f790613dfa565b80601f016020809104026020016040519081016040528092919081815260200182805461182390613dfa565b80156118705780601f1061184557610100808354040283529160200191611870565b820191906000526020600020905b81548152906001019060200180831161185357829003601f168201915b5050505050905086565b6001818154811061188a57600080fd5b90600052602060002090600702016000915090508060000154908060010154908060020180546118b990613dfa565b80601f01602080910402602001604051908101604052809291908181526020018280546118e590613dfa565b80156119325780601f1061190757610100808354040283529160200191611932565b820191906000526020600020905b81548152906001019060200180831161191557829003601f168201915b5050505050908060030160009054906101000a900473ffffffffffffffffffffffffffffffffffffffff16908060030160149054906101000a900460ff16908060030160159054906101000a900460ff16908060040154905087565b6006818051602081018201805184825260208301602085012081835280955050505050506000915054906101000a900473ffffffffffffffffffffffffffffffffffffffff1681565b600481815481106119e757600080fd5b9060005260206000209060050201600091509050806000015490806001018054611a1090613dfa565b80601f0160208091040260200160405190810160405280929190818152602001828054611a3c90613dfa565b8015611a895780601f10611a5e57610100808354040283529160200191611a89565b820191906000526020600020905b815481529060010190602001808311611a6c57829003601f168201915b5050505050908060020160009054906101000a900460ff16905083565b82600760003373ffffffffffffffffffffffffffffffffffffffff1673ffffffffffffffffffffffffffffffffffffffff168152602001908152602001600020548114611af257600080fd5b60006004600181600181540180825580915050039060005260206000209060050201905060018581548110611b50577f4e487b7100000000000000000000000000000000000000000000000000000000600052603260045260246000fd5b90600052602060002090600702016005016001600480549050611b739190613d3c565b90806001815401808255809150506001900390600052602060002001600090919091909150556001600480549050611bab9190613d3c565b81600001819055508383826001019190611bc6929190612ffc565b5060008160020160006101000a81548160ff021916908315150217905550600067ffffffffffffffff811115611c25577f4e487b7100000000000000000000000000000000000000000000000000000000600052604160045260246000fd5b604051908082528060200260200182016040528015611c535781602001602082028036833780820191505090505b50816003019080519060200190611c6b929190613082565b50600067ffffffffffffffff811115611cad577f4e487b7100000000000000000000000000000000000000000000000000000000600052604160045260246000fd5b604051908082528060200260200182016040528015611cdb5781602001602082028036833780820191505090505b50816004019080519060200190611cf3929190613082565b505050505050565b60076020528060005260406000206000915090505481565b606060008281548110611d4f577f4e487b7100000000000000000000000000000000000000000000000000000000600052603260045260246000fd5b9060005260206000209060060201600301805480602002602001604051908101604052809291908181526020018280548015611daa57602002820191906000526020600020905b815481526020019060010190808311611d96575b50505050509050919050565b3373ffffffffffffffffffffffffffffffffffffffff1660068484604051611ddf9291906138b0565b908152602001604051809103902060009054906101000a900473ffffffffffffffffffffffffffffffffffffffff1673ffffffffffffffffffffffffffffffffffffffff1614611e64576040517f08c379a0000000000000000000000000000000000000000000000000000000008152600401611e5b90613ad4565b60405180910390fd5b8060068484604051611e779291906138b0565b908152602001604051809103902060006101000a81548173ffffffffffffffffffffffffffffffffffffffff021916908373ffffffffffffffffffffffffffffffffffffffff1602179055506000600760003373ffffffffffffffffffffffffffffffffffffffff1673ffffffffffffffffffffffffffffffffffffffff1681526020019081526020016000205490506000600760003373ffffffffffffffffffffffffffffffffffffffff1673ffffffffffffffffffffffffffffffffffffffff1681526020019081526020016000208190555080600760008473ffffffffffffffffffffffffffffffffffffffff1673ffffffffffffffffffffffffffffffffffffffff1681526020019081526020016000208190555050505050565b606060018281548110611fd2577f4e487b7100000000000000000000000000000000000000000000000000000000600052603260045260246000fd5b906000526020600020906007020160050180548060200260200160405190810160405280929190818152602001828054801561202d57602002820191906000526020600020905b815481526020019060010190808311612019575b50505050509050919050565b6003818154811061204957600080fd5b906000526020600020906003020160009150905080600001549080600101805461207290613dfa565b80601f016020809104026020016040519081016040528092919081815260200182805461209e90613dfa565b80156120eb5780601f106120c0576101008083540402835291602001916120eb565b820191906000526020600020905b8154815290600101906020018083116120ce57829003601f168201915b50505050509080600201805461210090613dfa565b80601f016020809104026020016040519081016040528092919081815260200182805461212c90613dfa565b80156121795780601f1061214e57610100808354040283529160200191612179565b820191906000526020600020905b81548152906001019060200180831161215c57829003601f168201915b5050505050905083565b6060600182815481106121bf577f4e487b7100000000000000000000000000000000000000000000000000000000600052603260045260246000fd5b906000526020600020906007020160060180548060200260200160405190810160405280929190818152602001828054801561221a57602002820191906000526020600020905b815481526020019060010190808311612206575b50505050509050919050565b6005818154811061223657600080fd5b906000526020600020906006020160009150905080600001805461225990613dfa565b80601f016020809104026020016040519081016040528092919081815260200182805461228590613dfa565b80156122d25780601f106122a7576101008083540402835291602001916122d2565b820191906000526020600020905b8154815290600101906020018083116122b557829003601f168201915b5050505050908060010180546122e790613dfa565b80601f016020809104026020016040519081016040528092919081815260200182805461231390613dfa565b80156123605780601f1061233557610100808354040283529160200191612360565b820191906000526020600020905b81548152906001019060200180831161234357829003601f168201915b50505050509080600201805461237590613dfa565b80601f01602080910402602001604051908101604052809291908181526020018280546123a190613dfa565b80156123ee5780601f106123c3576101008083540402835291602001916123ee565b820191906000526020600020905b8154815290600101906020018083116123d157829003601f168201915b5050505050908060030160009054906101000a900460ff16908060040154908060050160009054906101000a900460ff16905086565b60086020528060005260406000206000915054906101000a900460ff1681565b600860003373ffffffffffffffffffffffffffffffffffffffff1673ffffffffffffffffffffffffffffffffffffffff16815260200190815260200160002060009054906101000a900460ff1680156125715750600582815481106124d2577f4e487b7100000000000000000000000000000000000000000000000000000000600052603260045260246000fd5b9060005260206000209060060201600401546000600760003373ffffffffffffffffffffffffffffffffffffffff1673ffffffffffffffffffffffffffffffffffffffff168152602001908152602001600020548154811061255d577f4e487b7100000000000000000000000000000000000000000000000000000000600052603260045260246000fd5b906000526020600020906006020160000154145b806126f057506001600760003373ffffffffffffffffffffffffffffffffffffffff1673ffffffffffffffffffffffffffffffffffffffff16815260200190815260200160002054815481106125f0577f4e487b7100000000000000000000000000000000000000000000000000000000600052603260045260246000fd5b906000526020600020906007020160030160159054906101000a900460ff1680156126ef575060058281548110612650577f4e487b7100000000000000000000000000000000000000000000000000000000600052603260045260246000fd5b9060005260206000209060060201600401546001600760003373ffffffffffffffffffffffffffffffffffffffff1673ffffffffffffffffffffffffffffffffffffffff16815260200190815260200160002054815481106126db577f4e487b7100000000000000000000000000000000000000000000000000000000600052603260045260246000fd5b906000526020600020906007020160010154145b5b61272f576040517f08c379a000000000000000000000000000000000000000000000000000000000815260040161272690613a54565b60405180910390fd5b600060016005848154811061276d577f4e487b7100000000000000000000000000000000000000000000000000000000600052603260045260246000fd5b906000526020600020906006020160050160006101000a81548160ff021916908315150217905550600090505b600082815481106127d4577f4e487b7100000000000000000000000000000000000000000000000000000000600052603260045260246000fd5b90600052602060002090600602016005018054905081101561292f57826000838154811061282b577f4e487b7100000000000000000000000000000000000000000000000000000000600052603260045260246000fd5b90600052602060002090600602016005018281548110612874577f4e487b7100000000000000000000000000000000000000000000000000000000600052603260045260246000fd5b9060005260206000200154141561291c5760008083815481106128c0577f4e487b7100000000000000000000000000000000000000000000000000000000600052603260045260246000fd5b90600052602060002090600602016005018281548110612909577f4e487b7100000000000000000000000000000000000000000000000000000000600052603260045260246000fd5b906000526020600020018190555061292f565b808061292790613e5d565b91505061279a565b600090505b6000828154811061296e577f4e487b7100000000000000000000000000000000000000000000000000000000600052603260045260246000fd5b906000526020600020906006020160030180549050811015612ac95760008083815481106129c5577f4e487b7100000000000000000000000000000000000000000000000000000000600052603260045260246000fd5b90600052602060002090600602016003018281548110612a0e577f4e487b7100000000000000000000000000000000000000000000000000000000600052603260045260246000fd5b90600052602060002001541415612ab6578260008381548110612a5a577f4e487b7100000000000000000000000000000000000000000000000000000000600052603260045260246000fd5b90600052602060002090600602016005018281548110612aa3577f4e487b7100000000000000000000000000000000000000000000000000000000600052603260045260246000fd5b9060005260206000200181905550612ac9565b8080612ac190613e5d565b915050612934565b60008281548110612b03577f4e487b7100000000000000000000000000000000000000000000000000000000600052603260045260246000fd5b906000526020600020906006020160030180549050811415612b925760008281548110612b59577f4e487b7100000000000000000000000000000000000000000000000000000000600052603260045260246000fd5b90600052602060002090600602016003018390806001815401808255809150506001900390600052602060002001600090919091909150555b505050565b606060048281548110612bd3577f4e487b7100000000000000000000000000000000000000000000000000000000600052603260045260246000fd5b9060005260206000209060050201600301805480602002602001604051908101604052809291908181526020018280548015612c2e57602002820191906000526020600020905b815481526020019060010190808311612c1a575b50505050509050919050565b600060036001816001815401808255809150500390600052602060002090600302019050600760003373ffffffffffffffffffffffffffffffffffffffff1673ffffffffffffffffffffffffffffffffffffffff1681526020019081526020016000205481600001819055508282826002019190612cb9929190612ffc565b508484826001019190612ccd929190612ffc565b5060048681548110612d08577f4e487b7100000000000000000000000000000000000000000000000000000000600052603260045260246000fd5b90600052602060002090600502016004016001600380549050612d2b9190613d3c565b90806001815401808255809150506001900390600052602060002001600090919091909150556001600760003373ffffffffffffffffffffffffffffffffffffffff1673ffffffffffffffffffffffffffffffffffffffff1681526020019081526020016000205481548110612dca577f4e487b7100000000000000000000000000000000000000000000000000000000600052603260045260246000fd5b906000526020600020906007020160030160159054906101000a900460ff1615612f315760018781548110612e28577f4e487b7100000000000000000000000000000000000000000000000000000000600052603260045260246000fd5b9060005260206000209060070201600101546001600760003373ffffffffffffffffffffffffffffffffffffffff1673ffffffffffffffffffffffffffffffffffffffff1681526020019081526020016000205481548110612eb3577f4e487b7100000000000000000000000000000000000000000000000000000000600052603260045260246000fd5b9060005260206000209060070201600101541415612f3057600160048781548110612f07577f4e487b7100000000000000000000000000000000000000000000000000000000600052603260045260246000fd5b906000526020600020906005020160020160006101000a81548160ff0219169083151502179055505b5b50505050505050565b6000612f468383612f4e565b905092915050565b600081518351148015612f6e575081805190602001208380519060200120145b905092915050565b828054612f8290613dfa565b90600052602060002090601f016020900481019282612fa45760008555612feb565b82601f10612fbd57805160ff1916838001178555612feb565b82800160010185558215612feb579182015b82811115612fea578251825591602001919060010190612fcf565b5b509050612ff891906130cf565b5090565b82805461300890613dfa565b90600052602060002090601f01602090048101928261302a5760008555613071565b82601f1061304357803560ff1916838001178555613071565b82800160010185558215613071579182015b82811115613070578235825591602001919060010190613055565b5b50905061307e91906130cf565b5090565b8280548282559060005260206000209081019282156130be579160200282015b828111156130bd5782518255916020019190600101906130a2565b5b5090506130cb91906130cf565b5090565b5b808211156130e85760008160009055506001016130d0565b5090565b60006130ff6130fa84613cab565b613c86565b90508281526020810184848401111561311757600080fd5b613122848285613db8565b509392505050565b60008135905061313981614147565b92915050565b60008083601f84011261315157600080fd5b8235905067ffffffffffffffff81111561316a57600080fd5b60208301915083600182028301111561318257600080fd5b9250929050565b600082601f83011261319a57600080fd5b81356131aa8482602086016130ec565b91505092915050565b6000813590506131c28161415e565b92915050565b6000602082840312156131da57600080fd5b60006131e88482850161312a565b91505092915050565b60008060006040848603121561320657600080fd5b600084013567ffffffffffffffff81111561322057600080fd5b61322c8682870161313f565b9350935050602061323f8682870161312a565b9150509250925092565b6000806000806000806060878903121561326257600080fd5b600087013567ffffffffffffffff81111561327c57600080fd5b61328889828a0161313f565b9650965050602087013567ffffffffffffffff8111156132a757600080fd5b6132b389828a0161313f565b9450945050604087013567ffffffffffffffff8111156132d257600080fd5b6132de89828a0161313f565b92509250509295509295509295565b6000602082840312156132ff57600080fd5b600082013567ffffffffffffffff81111561331957600080fd5b61332584828501613189565b91505092915050565b60006020828403121561334057600080fd5b600061334e848285016131b3565b91505092915050565b60008060006040848603121561336c57600080fd5b600061337a868287016131b3565b935050602084013567ffffffffffffffff81111561339757600080fd5b6133a38682870161313f565b92509250509250925092565b60008060008060008060008060a0898b0312156133cb57600080fd5b60006133d98b828c016131b3565b985050602089013567ffffffffffffffff8111156133f657600080fd5b6134028b828c0161313f565b9750975050604089013567ffffffffffffffff81111561342157600080fd5b61342d8b828c0161313f565b9550955050606089013567ffffffffffffffff81111561344c57600080fd5b6134588b828c0161313f565b9350935050608061346b8b828c016131b3565b9150509295985092959890939650565b600080600080600080600080600080600060e08c8e03121561349c57600080fd5b60006134aa8e828f016131b3565b9b505060208c013567ffffffffffffffff8111156134c757600080fd5b6134d38e828f01613189565b9a505060408c013567ffffffffffffffff8111156134f057600080fd5b6134fc8e828f0161313f565b995099505060608c013567ffffffffffffffff81111561351b57600080fd5b6135278e828f0161313f565b975097505060808c013567ffffffffffffffff81111561354657600080fd5b6135528e828f0161313f565b955095505060a08c013567ffffffffffffffff81111561357157600080fd5b61357d8e828f0161313f565b935093505060c06135908e828f016131b3565b9150509295989b509295989b9093969950565b600080604083850312156135b657600080fd5b60006135c4858286016131b3565b92505060206135d5858286016131b3565b9150509250929050565b600080600080600080608087890312156135f857600080fd5b600061360689828a016131b3565b965050602061361789828a016131b3565b955050604087013567ffffffffffffffff81111561363457600080fd5b61364089828a0161313f565b9450945050606087013567ffffffffffffffff81111561365f57600080fd5b61366b89828a0161313f565b92509250509295509295509295565b60006136868383613892565b60208301905092915050565b61369b81613d70565b82525050565b60006136ac82613cec565b6136b68185613d0f565b93506136c183613cdc565b8060005b838110156136f25781516136d9888261367a565b97506136e483613d02565b9250506001810190506136c5565b5085935050505092915050565b61370881613d82565b82525050565b600061371a8385613d31565b9350613727838584613db8565b82840190509392505050565b600061373e82613cf7565b6137488185613d20565b9350613758818560208601613dc7565b61376181613f33565b840191505092915050565b600061377782613cf7565b6137818185613d31565b9350613791818560208601613dc7565b80840191505092915050565b60006137aa605283613d20565b91506137b582613f44565b606082019050919050565b60006137cd602383613d20565b91506137d882613fb9565b604082019050919050565b60006137f0603383613d20565b91506137fb82614008565b604082019050919050565b6000613813602383613d20565b915061381e82614057565b604082019050919050565b6000613836603483613d20565b9150613841826140a6565b604082019050919050565b6000613859601b83613d20565b9150613864826140f5565b602082019050919050565b600061387c602083613d20565b91506138878261411e565b602082019050919050565b61389b81613dae565b82525050565b6138aa81613dae565b82525050565b60006138bd82848661370e565b91508190509392505050565b60006138d5828461376c565b915081905092915050565b60006020820190506138f56000830184613692565b92915050565b6000602082019050818103600083015261391581846136a1565b905092915050565b600060208201905061393260008301846136ff565b92915050565b600060208201905081810360008301526139528184613733565b905092915050565b600060c08201905081810360008301526139748189613733565b905081810360208301526139888188613733565b9050818103604083015261399c8187613733565b90506139ab60608301866136ff565b6139b860808301856138a1565b6139c560a08301846136ff565b979650505050505050565b600060c08201905081810360008301526139ea8189613733565b905081810360208301526139fe8188613733565b90508181036040830152613a128187613733565b90508181036060830152613a268186613733565b9050613a3560808301856138a1565b81810360a0830152613a478184613733565b9050979650505050505050565b60006020820190508181036000830152613a6d8161379d565b9050919050565b60006020820190508181036000830152613a8d816137c0565b9050919050565b60006020820190508181036000830152613aad816137e3565b9050919050565b60006020820190508181036000830152613acd81613806565b9050919050565b60006020820190508181036000830152613aed81613829565b9050919050565b60006020820190508181036000830152613b0d8161384c565b9050919050565b60006020820190508181036000830152613b2d8161386f565b9050919050565b6000602082019050613b4960008301846138a1565b92915050565b6000606082019050613b6460008301866138a1565b8181036020830152613b768185613733565b9050613b856040830184613692565b949350505050565b6000606082019050613ba260008301866138a1565b8181036020830152613bb48185613733565b9050613bc360408301846136ff565b949350505050565b6000606082019050613be060008301866138a1565b8181036020830152613bf28185613733565b90508181036040830152613c068184613733565b9050949350505050565b600060e082019050613c25600083018a6138a1565b613c3260208301896138a1565b8181036040830152613c448188613733565b9050613c536060830187613692565b613c6060808301866136ff565b613c6d60a08301856136ff565b613c7a60c08301846138a1565b98975050505050505050565b6000613c90613ca1565b9050613c9c8282613e2c565b919050565b6000604051905090565b600067ffffffffffffffff821115613cc657613cc5613f04565b5b613ccf82613f33565b9050602081019050919050565b6000819050602082019050919050565b600081519050919050565b600081519050919050565b6000602082019050919050565b600082825260208201905092915050565b600082825260208201905092915050565b600081905092915050565b6000613d4782613dae565b9150613d5283613dae565b925082821015613d6557613d64613ea6565b5b828203905092915050565b6000613d7b82613d8e565b9050919050565b60008115159050919050565b600073ffffffffffffffffffffffffffffffffffffffff82169050919050565b6000819050919050565b82818337600083830152505050565b60005b83811015613de5578082015181840152602081019050613dca565b83811115613df4576000848401525b50505050565b60006002820490506001821680613e1257607f821691505b60208210811415613e2657613e25613ed5565b5b50919050565b613e3582613f33565b810181811067ffffffffffffffff82111715613e5457613e53613f04565b5b80604052505050565b6000613e6882613dae565b91507fffffffffffffffffffffffffffffffffffffffffffffffffffffffffffffffff821415613e9b57613e9a613ea6565b5b600182019050919050565b7f4e487b7100000000000000000000000000000000000000000000000000000000600052601160045260246000fd5b7f4e487b7100000000000000000000000000000000000000000000000000000000600052602260045260246000fd5b7f4e487b7100000000000000000000000000000000000000000000000000000000600052604160045260246000fd5b6000601f19601f8301169050919050565b7f6572726f723a20617070726f7665722073686f756c642062652074686520636f60008201527f6d70616e79206163636f756e74206f722061206d616e61676572206f6620746860208201527f6520726571756972656420636f6d70616e790000000000000000000000000000604082015250565b7f6572726f723a2073656e646572206e6f74206120636f6d70616e79206163636f60008201527f756e740000000000000000000000000000000000000000000000000000000000602082015250565b7f6572726f723a20696e636f72726563742077616c6c657420616464726573732060008201527f7573656420666f72207369676e696e6720696e00000000000000000000000000602082015250565b7f6572726f723a2075736572206e6f74206f66207468652073616d6520636f6d7060008201527f616e790000000000000000000000000000000000000000000000000000000000602082015250565b7f6572726f723a2066756e6374696f6e2063616c6c65642066726f6d20696e636f60008201527f72726563742077616c6c65742061646472657373000000000000000000000000602082015250565b7f6572726f723a207573657220616c726561647920657869737473210000000000600082015250565b7f6572726f723a207573657220697320616c72656164792061206d616e61676572600082015250565b61415081613d70565b811461415b57600080fd5b50565b61416781613dae565b811461417257600080fd5b5056fea26469706673582212203f75319b8dc3b15d46562eb6b56d8eec502481b69cb9d10e71b829d88f049b1e64736f6c63430008010033",
  "immutableReferences": {},
  "source": "// SPDX-License-Identifier: MIT\npragma solidity ^0.8.1;\n\ncontract Decentraskill {\n    company[] public companies;\n    user[] public employees;\n    certificate[] public certifications;\n    endorsment[] public endorsments;\n    skill[] public skills;\n    experience[] public experiences;\n\n    mapping(string => address) public email_to_address;\n    mapping(address => uint256) public address_to_id;\n    mapping(address => bool) public is_company;\n\n    modifier verifiedUser(uint256 user_id) {\n        require(user_id == address_to_id[msg.sender]);\n        _;\n    }\n\n    struct company {\n        uint256 id;\n        string name;\n        address wallet_address;\n        uint256[] current_employees;\n        uint256[] previous_employees;\n        uint256[] requested_employees;\n    }\n\n    struct certificate {\n        string url;\n        string issue_date;\n        string valid_till;\n        string name;\n        uint256 id;\n        string issuer;\n    }\n\n    struct endorsment {\n        uint256 endorser_id;\n        string date;\n        string comment;\n    }\n\n    struct experience {\n        string starting_date;\n        string ending_date;\n        string role;\n        bool currently_working;\n        uint256 company_id;\n        bool is_approved;\n    }\n\n    struct skill {\n        uint256 id;\n        string name;\n        bool verified;\n        uint256[] skill_certifications;\n        uint256[] skill_endorsements;\n    }\n\n    struct user {\n        uint256 id;\n        uint256 company_id;\n        string name;\n        address wallet_address;\n        bool is_employed;\n        bool is_manager;\n        uint256 num_skill;\n        uint256[] user_skills;\n        uint256[] user_work_experience;\n    }\n\n    constructor() {\n        user storage dummy_user = employees.push();\n        dummy_user.name = \"dummy\";\n        dummy_user.wallet_address = msg.sender;\n        dummy_user.id = 0;\n        dummy_user.user_skills = new uint256[](0);\n        dummy_user.user_work_experience = new uint256[](0);\n    }\n\n    function memcmp(bytes memory a, bytes memory b)\n        internal\n        pure\n        returns (bool)\n    {\n        return (a.length == b.length) && (keccak256(a) == keccak256(b));\n    }\n\n    function strcmp(string memory a, string memory b)\n        internal\n        pure\n        returns (bool)\n    {\n        return memcmp(bytes(a), bytes(b));\n    }\n\n    function sign_up(\n        string calldata email,\n        string calldata name,\n        string calldata acc_type\n    ) public {\n        require(\n            email_to_address[email] == address(0),\n            \"error: user already exists!\"\n        );\n        email_to_address[email] = msg.sender;\n\n        if (strcmp(acc_type, \"user\")) {\n            user storage new_user = employees.push();\n            new_user.name = name;\n            new_user.id = employees.length - 1;\n            new_user.wallet_address = msg.sender;\n            address_to_id[msg.sender] = new_user.id;\n            new_user.user_skills = new uint256[](0);\n            new_user.user_work_experience = new uint256[](0);\n        } else {\n            company storage new_company = companies.push();\n            new_company.name = name;\n            new_company.id = companies.length - 1;\n            new_company.wallet_address = msg.sender;\n            new_company.current_employees = new uint256[](0);\n            new_company.previous_employees = new uint256[](0);\n            address_to_id[msg.sender] = new_company.id;\n            is_company[msg.sender] = true;\n        }\n    }\n\n    function approve_manager(uint256 employee_id) public {\n        require(is_company[msg.sender], \"error: sender not a company account\");\n        require(\n            employees[employee_id].company_id == address_to_id[msg.sender],\n            \"error: user not of the same company\"\n        );\n        require(\n            !(employees[employee_id].is_manager),\n            \"error: user is already a manager\"\n        );\n        employees[employee_id].is_manager = true;\n    }\n\n    function login(string memory email) public view returns (string memory) {\n        require(\n            msg.sender == email_to_address[email],\n            \"error: incorrect wallet address used for signing in\"\n        );\n        return (is_company[msg.sender]) ? \"company\" : \"user\";\n    }\n\n    function add_certification(\n        uint256 user_id,\n        string memory url,\n        string calldata issue_date,\n        string calldata valid_till,\n        string calldata name,\n        string calldata issuer,\n        uint256 linked_skill_id\n    ) public verifiedUser(user_id) {\n        certificate storage new_certificate = certifications.push();\n        new_certificate.url = url;\n        new_certificate.issue_date = issue_date;\n        new_certificate.valid_till = valid_till;\n        new_certificate.name = name;\n        new_certificate.id = certifications.length - 1;\n        new_certificate.issuer = issuer;\n        skills[linked_skill_id].skill_certifications.push(new_certificate.id);\n    }\n\n    function add_skill(uint256 userid, string calldata skill_name)\n        public\n        verifiedUser(userid)\n    {\n        skill storage new_skill = skills.push();\n        employees[userid].user_skills.push(skills.length - 1);\n        new_skill.id = skills.length - 1;\n        new_skill.name = skill_name;\n        new_skill.verified = false;\n        new_skill.skill_certifications = new uint256[](0);\n        new_skill.skill_endorsements = new uint256[](0);\n    }\n\n    function endorse_skill(\n        uint256 user_id,\n        uint256 skill_id,\n        string calldata endorsing_date,\n        string calldata comment\n    ) public {\n        endorsment storage new_endorsemnt = endorsments.push();\n        new_endorsemnt.endorser_id = address_to_id[msg.sender];\n        new_endorsemnt.comment = comment;\n        new_endorsemnt.date = endorsing_date;\n        skills[skill_id].skill_endorsements.push(endorsments.length - 1);\n        if (employees[address_to_id[msg.sender]].is_manager) {\n            if (\n                employees[address_to_id[msg.sender]].company_id ==\n                employees[user_id].company_id\n            ) {\n                skills[skill_id].verified = true;\n            }\n        }\n    }\n\n    function add_experience(\n        uint256 user_id,\n        string calldata starting_date,\n        string calldata ending_date,\n        string calldata role,\n        uint256 company_id\n    ) public verifiedUser(user_id) {\n        experience storage new_experience = experiences.push();\n        new_experience.company_id = company_id;\n        new_experience.currently_working = false;\n        new_experience.is_approved = false;\n        new_experience.starting_date = starting_date;\n        new_experience.ending_date = ending_date;\n        new_experience.role = role;\n        employees[user_id].user_work_experience.push(experiences.length - 1);\n        companies[company_id].requested_employees.push(experiences.length - 1);\n    }\n\n    function approve_experience(uint256 exp_id, uint256 company_id) public {\n        require(\n            (is_company[msg.sender] &&\n                companies[address_to_id[msg.sender]].id ==\n                experiences[exp_id].company_id) ||\n                (employees[address_to_id[msg.sender]].is_manager &&\n                    employees[address_to_id[msg.sender]].company_id ==\n                    experiences[exp_id].company_id),\n            \"error: approver should be the company account or a manager of the required company\"\n        );\n        uint256 i;\n        experiences[exp_id].is_approved = true;\n        for (i = 0; i < companies[company_id].requested_employees.length; i++) {\n            if (companies[company_id].requested_employees[i] == exp_id) {\n                companies[company_id].requested_employees[i] = 0;\n                break;\n            }\n        }\n        for (i = 0; i < companies[company_id].current_employees.length; i++) {\n            if (companies[company_id].current_employees[i] == 0) {\n                companies[company_id].requested_employees[i] = exp_id;\n                break;\n            }\n        }\n        if (i == companies[company_id].current_employees.length)\n            companies[company_id].current_employees.push(exp_id);\n    }\n\n    function update_wallet_address(string calldata email, address new_address)\n        public\n    {\n        require(\n            email_to_address[email] == msg.sender,\n            \"error: function called from incorrect wallet address\"\n        );\n        email_to_address[email] = new_address;\n        uint256 id = address_to_id[msg.sender];\n        address_to_id[msg.sender] = 0;\n        address_to_id[new_address] = id;\n    }\n\n    function skills_of_user(uint256 id) public view returns (uint256[] memory) {\n        return employees[id].user_skills;\n    }\n\n    function exp_of_user(uint256 id) public view returns (uint256[] memory) {\n        return employees[id].user_work_experience;\n    }\n\n    function curr_emp_of_company(uint256 id)\n        public\n        view\n        returns (uint256[] memory)\n    {\n        return companies[id].current_employees;\n    }\n\n    function prev_emp_of_company(uint256 id)\n        public\n        view\n        returns (uint256[] memory)\n    {\n        return companies[id].previous_employees;\n    }\n\n    function requested_emp_of_company(uint256 id)\n        public\n        view\n        returns (uint256[] memory)\n    {\n        return companies[id].requested_employees;\n    }\n\n    function cert_of_skill(uint256 id) public view returns (uint256[] memory) {\n        return skills[id].skill_certifications;\n    }\n\n    function endrs_of_skill(uint256 id) public view returns (uint256[] memory) {\n        return skills[id].skill_endorsements;\n    }\n}\n",
  "sourcePath": "/home/sdas/code/Decentraskill/contracts/Decentraskill.sol",
  "compiler": {
    "name": "solc",
    "version": "0.8.1+commit.df193b15.Emscripten.clang"
  },
  "schemaVersion": "3.4.3",
  "updatedAt": "2021-12-01T06:22:06.504Z",
  "networkType": "ethereum",
  "devdoc": {
    "kind": "dev",
    "methods": {},
    "version": 1
  },
  "userdoc": {
    "kind": "user",
    "methods": {},
    "version": 1
  }
}