{
  "contractName": "Decentraskill",
  "abi": [
    {
      "inputs": [
        {
          "internalType": "uint256",
          "name": "",
          "type": "uint256"
        }
      ],
      "name": "companies",
      "outputs": [
        {
          "internalType": "address",
          "name": "wallet_address",
          "type": "address"
        },
        {
          "internalType": "uint256",
          "name": "id",
          "type": "uint256"
        }
      ],
      "stateMutability": "view",
      "type": "function",
      "constant": true
    },
    {
      "inputs": [
        {
          "internalType": "string",
          "name": "",
          "type": "string"
        }
      ],
      "name": "email_to_address",
      "outputs": [
        {
          "internalType": "address",
          "name": "",
          "type": "address"
        }
      ],
      "stateMutability": "view",
      "type": "function",
      "constant": true
    },
    {
      "inputs": [
        {
          "internalType": "uint256",
          "name": "",
          "type": "uint256"
        }
      ],
      "name": "employees",
      "outputs": [
        {
          "internalType": "uint256",
          "name": "id",
          "type": "uint256"
        },
        {
          "internalType": "uint256",
          "name": "company_id",
          "type": "uint256"
        },
        {
          "internalType": "address",
          "name": "wallet_address",
          "type": "address"
        },
        {
          "internalType": "bool",
          "name": "is_employed",
          "type": "bool"
        },
        {
          "internalType": "bool",
          "name": "is_manager",
          "type": "bool"
        }
      ],
      "stateMutability": "view",
      "type": "function",
      "constant": true
    }
  ],
  "bytecode": "0x608060405234801561001057600080fd5b5061050e806100206000396000f3fe608060405234801561001057600080fd5b50600436106100415760003560e01c80632813d19d146100465780634739326b146100775780634845a295146100ab575b600080fd5b610060600480360381019061005b91906102b6565b6100db565b60405161006e929190610327565b60405180910390f35b610091600480360381019061008c91906102b6565b61012f565b6040516100a2959493929190610350565b60405180910390f35b6100c560048036038101906100c09190610275565b6101af565b6040516100d2919061030c565b60405180910390f35b600081815481106100eb57600080fd5b90600052602060002090600402016000915090508060020160009054906101000a900473ffffffffffffffffffffffffffffffffffffffff16908060030154905082565b6001818154811061013f57600080fd5b90600052602060002090600502016000915090508060000154908060010154908060020160009054906101000a900473ffffffffffffffffffffffffffffffffffffffff16908060020160149054906101000a900460ff16908060020160159054906101000a900460ff16905085565b6002818051602081018201805184825260208301602085012081835280955050505050506000915054906101000a900473ffffffffffffffffffffffffffffffffffffffff1681565b600061020b610206846103c8565b6103a3565b90508281526020810184848401111561022357600080fd5b61022e848285610441565b509392505050565b600082601f83011261024757600080fd5b81356102578482602086016101f8565b91505092915050565b60008135905061026f816104c1565b92915050565b60006020828403121561028757600080fd5b600082013567ffffffffffffffff8111156102a157600080fd5b6102ad84828501610236565b91505092915050565b6000602082840312156102c857600080fd5b60006102d684828501610260565b91505092915050565b6102e8816103f9565b82525050565b6102f78161040b565b82525050565b61030681610437565b82525050565b600060208201905061032160008301846102df565b92915050565b600060408201905061033c60008301856102df565b61034960208301846102fd565b9392505050565b600060a08201905061036560008301886102fd565b61037260208301876102fd565b61037f60408301866102df565b61038c60608301856102ee565b61039960808301846102ee565b9695505050505050565b60006103ad6103be565b90506103b98282610450565b919050565b6000604051905090565b600067ffffffffffffffff8211156103e3576103e2610481565b5b6103ec826104b0565b9050602081019050919050565b600061040482610417565b9050919050565b60008115159050919050565b600073ffffffffffffffffffffffffffffffffffffffff82169050919050565b6000819050919050565b82818337600083830152505050565b610459826104b0565b810181811067ffffffffffffffff8211171561047857610477610481565b5b80604052505050565b7f4e487b7100000000000000000000000000000000000000000000000000000000600052604160045260246000fd5b6000601f19601f8301169050919050565b6104ca81610437565b81146104d557600080fd5b5056fea26469706673582212208d1017b334136fceb7c176ba5fca46e41f89e18b892d9e30cdee7048d6285abf64736f6c63430008010033",
  "immutableReferences": {},
  "source": "// SPDX-License-Identifier: MIT\npragma solidity ^0.8.1;\n\ncontract Decentraskill {\n    company[] public companies;\n    user[] public employees;\n    mapping(string => address) public email_to_address;\n\n    struct company {\n        uint256[] current_employees;\n        uint256[] previous_employees;\n        address wallet_address;\n        uint256 id;\n    }\n\n    struct certificate {\n        string url;\n        string issue_date;\n        string valid_till;\n        string name;\n        string id;\n        string issuer;\n    }\n\n    struct endorsment {\n        string endorser_id;\n        string date;\n        string comment;\n    }\n\n    struct experience {\n        string starting_date;\n        string ending_date;\n        bool currently_working;\n        string company_id;\n    }\n\n    struct skill {\n        string name;\n        bool verified;\n        certificate[] certifications;\n        endorsment[] endorsements;\n    }\n\n    struct user {\n        uint256 id;\n        uint256 company_id;\n        address wallet_address;\n        bool is_employed;\n        bool is_manager;\n        skill[] skills;\n        experience[] work_experience;\n    }\n}\n",
  "sourcePath": "/home/sdas/code/decentraskill/contracts/Decentraskill.sol",
  "compiler": {
    "name": "solc",
    "version": "0.8.1+commit.df193b15.Emscripten.clang"
  },
  "schemaVersion": "3.4.3",
  "updatedAt": "2021-09-24T16:21:10.612Z",
  "networkType": "ethereum",
  "devdoc": {
    "kind": "dev",
    "methods": {},
    "version": 1
  },
  "userdoc": {
    "kind": "user",
    "methods": {},
    "version": 1
  }
}