{
  "contractName": "Decentraskill",
  "abi": [
    {
      "inputs": [],
      "stateMutability": "nonpayable",
      "type": "constructor"
    },
    {
      "inputs": [
        {
          "internalType": "address",
          "name": "",
          "type": "address"
        }
      ],
      "name": "address_to_id",
      "outputs": [
        {
          "internalType": "uint256",
          "name": "",
          "type": "uint256"
        }
      ],
      "stateMutability": "view",
      "type": "function",
      "constant": true
    },
    {
      "inputs": [
        {
          "internalType": "uint256",
          "name": "",
          "type": "uint256"
        }
      ],
      "name": "certifications",
      "outputs": [
        {
          "internalType": "string",
          "name": "url",
          "type": "string"
        },
        {
          "internalType": "string",
          "name": "issue_date",
          "type": "string"
        },
        {
          "internalType": "string",
          "name": "valid_till",
          "type": "string"
        },
        {
          "internalType": "string",
          "name": "name",
          "type": "string"
        },
        {
          "internalType": "uint256",
          "name": "id",
          "type": "uint256"
        },
        {
          "internalType": "string",
          "name": "issuer",
          "type": "string"
        }
      ],
      "stateMutability": "view",
      "type": "function",
      "constant": true
    },
    {
      "inputs": [
        {
          "internalType": "uint256",
          "name": "",
          "type": "uint256"
        }
      ],
      "name": "companies",
      "outputs": [
        {
          "internalType": "uint256",
          "name": "id",
          "type": "uint256"
        },
        {
          "internalType": "string",
          "name": "name",
          "type": "string"
        },
        {
          "internalType": "address",
          "name": "wallet_address",
          "type": "address"
        }
      ],
      "stateMutability": "view",
      "type": "function",
      "constant": true
    },
    {
      "inputs": [
        {
          "internalType": "string",
          "name": "",
          "type": "string"
        }
      ],
      "name": "email_to_address",
      "outputs": [
        {
          "internalType": "address",
          "name": "",
          "type": "address"
        }
      ],
      "stateMutability": "view",
      "type": "function",
      "constant": true
    },
    {
      "inputs": [
        {
          "internalType": "uint256",
          "name": "",
          "type": "uint256"
        }
      ],
      "name": "employees",
      "outputs": [
        {
          "internalType": "uint256",
          "name": "id",
          "type": "uint256"
        },
        {
          "internalType": "uint256",
          "name": "company_id",
          "type": "uint256"
        },
        {
          "internalType": "string",
          "name": "name",
          "type": "string"
        },
        {
          "internalType": "address",
          "name": "wallet_address",
          "type": "address"
        },
        {
          "internalType": "bool",
          "name": "is_employed",
          "type": "bool"
        },
        {
          "internalType": "bool",
          "name": "is_manager",
          "type": "bool"
        },
        {
          "internalType": "uint256",
          "name": "num_skill",
          "type": "uint256"
        }
      ],
      "stateMutability": "view",
      "type": "function",
      "constant": true
    },
    {
      "inputs": [
        {
          "internalType": "uint256",
          "name": "",
          "type": "uint256"
        }
      ],
      "name": "endorsments",
      "outputs": [
        {
          "internalType": "uint256",
          "name": "endorser_id",
          "type": "uint256"
        },
        {
          "internalType": "string",
          "name": "date",
          "type": "string"
        },
        {
          "internalType": "string",
          "name": "comment",
          "type": "string"
        }
      ],
      "stateMutability": "view",
      "type": "function",
      "constant": true
    },
    {
      "inputs": [
        {
          "internalType": "uint256",
          "name": "",
          "type": "uint256"
        }
      ],
      "name": "experiences",
      "outputs": [
        {
          "internalType": "string",
          "name": "starting_date",
          "type": "string"
        },
        {
          "internalType": "string",
          "name": "ending_date",
          "type": "string"
        },
        {
          "internalType": "string",
          "name": "role",
          "type": "string"
        },
        {
          "internalType": "bool",
          "name": "currently_working",
          "type": "bool"
        },
        {
          "internalType": "uint256",
          "name": "company_id",
          "type": "uint256"
        },
        {
          "internalType": "bool",
          "name": "is_approved",
          "type": "bool"
        }
      ],
      "stateMutability": "view",
      "type": "function",
      "constant": true
    },
    {
      "inputs": [
        {
          "internalType": "address",
          "name": "",
          "type": "address"
        }
      ],
      "name": "is_company",
      "outputs": [
        {
          "internalType": "bool",
          "name": "",
          "type": "bool"
        }
      ],
      "stateMutability": "view",
      "type": "function",
      "constant": true
    },
    {
      "inputs": [
        {
          "internalType": "uint256",
          "name": "",
          "type": "uint256"
        }
      ],
      "name": "skills",
      "outputs": [
        {
          "internalType": "uint256",
          "name": "id",
          "type": "uint256"
        },
        {
          "internalType": "string",
          "name": "name",
          "type": "string"
        },
        {
          "internalType": "bool",
          "name": "verified",
          "type": "bool"
        }
      ],
      "stateMutability": "view",
      "type": "function",
      "constant": true
    },
    {
      "inputs": [
        {
          "internalType": "string",
          "name": "email",
          "type": "string"
        },
        {
          "internalType": "string",
          "name": "name",
          "type": "string"
        },
        {
          "internalType": "string",
          "name": "acc_type",
          "type": "string"
        }
      ],
      "name": "sign_up",
      "outputs": [],
      "stateMutability": "nonpayable",
      "type": "function"
    },
    {
      "inputs": [
        {
          "internalType": "uint256",
          "name": "employee_id",
          "type": "uint256"
        }
      ],
      "name": "approve_manager",
      "outputs": [],
      "stateMutability": "nonpayable",
      "type": "function"
    },
    {
      "inputs": [
        {
          "internalType": "string",
          "name": "email",
          "type": "string"
        }
      ],
      "name": "login",
      "outputs": [
        {
          "internalType": "string",
          "name": "",
          "type": "string"
        }
      ],
      "stateMutability": "view",
      "type": "function",
      "constant": true
    },
    {
      "inputs": [
        {
          "internalType": "uint256",
          "name": "user_id",
          "type": "uint256"
        },
        {
          "internalType": "string",
          "name": "url",
          "type": "string"
        },
        {
          "internalType": "string",
          "name": "issue_date",
          "type": "string"
        },
        {
          "internalType": "string",
          "name": "valid_till",
          "type": "string"
        },
        {
          "internalType": "string",
          "name": "name",
          "type": "string"
        },
        {
          "internalType": "string",
          "name": "issuer",
          "type": "string"
        },
        {
          "internalType": "uint256",
          "name": "linked_skill_id",
          "type": "uint256"
        }
      ],
      "name": "add_certification",
      "outputs": [],
      "stateMutability": "nonpayable",
      "type": "function"
    },
    {
      "inputs": [
        {
          "internalType": "uint256",
          "name": "userid",
          "type": "uint256"
        },
        {
          "internalType": "string",
          "name": "skill_name",
          "type": "string"
        }
      ],
      "name": "add_skill",
      "outputs": [],
      "stateMutability": "nonpayable",
      "type": "function"
    },
    {
      "inputs": [
        {
          "internalType": "uint256",
          "name": "user_id",
          "type": "uint256"
        },
        {
          "internalType": "uint256",
          "name": "skill_id",
          "type": "uint256"
        },
        {
          "internalType": "string",
          "name": "endorsing_date",
          "type": "string"
        },
        {
          "internalType": "string",
          "name": "comment",
          "type": "string"
        }
      ],
      "name": "endorse_skill",
      "outputs": [],
      "stateMutability": "nonpayable",
      "type": "function"
    },
    {
      "inputs": [
        {
          "internalType": "uint256",
          "name": "user_id",
          "type": "uint256"
        },
        {
          "internalType": "string",
          "name": "starting_date",
          "type": "string"
        },
        {
          "internalType": "string",
          "name": "ending_date",
          "type": "string"
        },
        {
          "internalType": "string",
          "name": "role",
          "type": "string"
        },
        {
          "internalType": "uint256",
          "name": "company_id",
          "type": "uint256"
        }
      ],
      "name": "add_experience",
      "outputs": [],
      "stateMutability": "nonpayable",
      "type": "function"
    },
    {
      "inputs": [
        {
          "internalType": "uint256",
          "name": "exp_id",
          "type": "uint256"
        },
        {
          "internalType": "uint256",
          "name": "company_id",
          "type": "uint256"
        }
      ],
      "name": "approve_experience",
      "outputs": [],
      "stateMutability": "nonpayable",
      "type": "function"
    },
    {
      "inputs": [
        {
          "internalType": "string",
          "name": "email",
          "type": "string"
        },
        {
          "internalType": "address",
          "name": "new_address",
          "type": "address"
        }
      ],
      "name": "update_wallet_address",
      "outputs": [],
      "stateMutability": "nonpayable",
      "type": "function"
    }
  ],
  "bytecode": "0x60806040523480156200001157600080fd5b5060006001808160018154018082558091505003906000526020600020906007020190506040518060400160405280600581526020017f64756d6d7900000000000000000000000000000000000000000000000000000081525081600201908051906020019062000084929190620001f1565b50338160030160006101000a81548173ffffffffffffffffffffffffffffffffffffffff021916908373ffffffffffffffffffffffffffffffffffffffff16021790555060008160000181905550600067ffffffffffffffff81111562000114577f4e487b7100000000000000000000000000000000000000000000000000000000600052604160045260246000fd5b604051908082528060200260200182016040528015620001435781602001602082028036833780820191505090505b508160050190805190602001906200015d92919062000282565b50600067ffffffffffffffff811115620001a0577f4e487b7100000000000000000000000000000000000000000000000000000000600052604160045260246000fd5b604051908082528060200260200182016040528015620001cf5781602001602082028036833780820191505090505b50816006019080519060200190620001e992919062000282565b505062000358565b828054620001ff90620002f3565b90600052602060002090601f0160209004810192826200022357600085556200026f565b82601f106200023e57805160ff19168380011785556200026f565b828001600101855582156200026f579182015b828111156200026e57825182559160200191906001019062000251565b5b5090506200027e9190620002d4565b5090565b828054828255906000526020600020908101928215620002c1579160200282015b82811115620002c0578251825591602001919060010190620002a3565b5b509050620002d09190620002d4565b5090565b5b80821115620002ef576000816000905550600101620002d5565b5090565b600060028204905060018216806200030c57607f821691505b6020821081141562000323576200032262000329565b5b50919050565b7f4e487b7100000000000000000000000000000000000000000000000000000000600052602260045260246000fd5b613a8f80620003686000396000f3fe608060405234801561001057600080fd5b50600436106101165760003560e01c806350d15fbe116100a2578063b1e116c311610071578063b1e116c314610322578063cf3e7c7c14610354578063dd7a753814610389578063edf85a86146103b9578063f86b20cb146103d557610116565b806350d15fbe146102885780635a2ec07c146102ba5780637a52f30e146102d6578063884ffe321461030657610116565b806336d77eaa116100e957806336d77eaa146101a15780633a7d280c146101bd5780633c0359a4146101ed5780634739326b146102225780634845a2951461025857610116565b8063067709dd1461011b5780630c1bc591146101375780631575cdea146101535780632813d19d1461016f575b600080fd5b61013560048036038101906101309190612e3f565b6103f1565b005b610151600480360381019061014c9190612d73565b610569565b005b61016d60048036038101906101689190612c0d565b61076a565b005b61018960048036038101906101849190612cf2565b610d3f565b6040516101989392919061346c565b60405180910390f35b6101bb60048036038101906101b69190612cf2565b610e21565b005b6101d760048036038101906101d29190612cb1565b611078565b6040516101e49190613255565b60405180910390f35b61020760048036038101906102029190612cf2565b6111f0565b604051610219969594939291906132ed565b60405180910390f35b61023c60048036038101906102379190612cf2565b6114e4565b60405161024f979695949392919061352d565b60405180910390f35b610272600480360381019061026d9190612cb1565b6115f8565b60405161027f919061321f565b60405180910390f35b6102a2600480360381019061029d9190612cf2565b611641565b6040516102b1939291906134aa565b60405180910390f35b6102d460048036038101906102cf9190612d1b565b611710565b005b6102f060048036038101906102eb9190612b8c565b61194b565b6040516102fd9190613451565b60405180910390f35b610320600480360381019061031b9190612bb5565b611963565b005b61033c60048036038101906103379190612cf2565b611b43565b60405161034b939291906134e8565b60405180910390f35b61036e60048036038101906103699190612cf2565b611c8d565b60405161038096959493929190613277565b60405180910390f35b6103a3600480360381019061039e9190612b8c565b611e8b565b6040516103b0919061323a565b60405180910390f35b6103d360048036038101906103ce9190612f67565b611eab565b005b6103ef60048036038101906103ea9190612fa3565b6125fe565b005b8a600760003373ffffffffffffffffffffffffffffffffffffffff1673ffffffffffffffffffffffffffffffffffffffff16815260200190815260200160002054811461043d57600080fd5b6000600260018160018154018082558091505003906000526020600020906006020190508b81600001908051906020019061047992919061293a565b508a8a82600101919061048d9291906129c0565b5088888260020191906104a19291906129c0565b5086868260030191906104b59291906129c0565b5060016002805490506104c89190613620565b816004018190555084848260050191906104e39291906129c0565b506004838154811061051e577f4e487b7100000000000000000000000000000000000000000000000000000000600052603260045260246000fd5b90600052602060002090600502016003018160040154908060018154018082558091505060019003906000526020600020016000909190919091505550505050505050505050505050565b87600760003373ffffffffffffffffffffffffffffffffffffffff1673ffffffffffffffffffffffffffffffffffffffff1681526020019081526020016000205481146105b557600080fd5b60006005600181600181540180825580915050039060005260206000209060060201905082816004018190555060008160030160006101000a81548160ff02191690831515021790555060008160050160006101000a81548160ff021916908315150217905550888882600001919061062f9291906129c0565b5086868260010191906106439291906129c0565b5084848260020191906106579291906129c0565b5060018a81548110610692577f4e487b7100000000000000000000000000000000000000000000000000000000600052603260045260246000fd5b906000526020600020906007020160060160016005805490506106b59190613620565b908060018154018082558091505060019003906000526020600020016000909190919091505560008381548110610715577f4e487b7100000000000000000000000000000000000000000000000000000000600052603260045260246000fd5b906000526020600020906006020160050160016005805490506107389190613620565b908060018154018082558091505060019003906000526020600020016000909190919091505550505050505050505050565b600073ffffffffffffffffffffffffffffffffffffffff16600687876040516107949291906131ef565b908152602001604051809103902060009054906101000a900473ffffffffffffffffffffffffffffffffffffffff1673ffffffffffffffffffffffffffffffffffffffff1614610819576040517f08c379a000000000000000000000000000000000000000000000000000000000815260040161081090613411565b60405180910390fd5b336006878760405161082c9291906131ef565b908152602001604051809103902060006101000a81548173ffffffffffffffffffffffffffffffffffffffff021916908373ffffffffffffffffffffffffffffffffffffffff1602179055506108fb82828080601f016020809104026020016040519081016040528093929190818152602001838380828437600081840152601f19601f820116905080830192505050505050506040518060400160405280600481526020017f75736572000000000000000000000000000000000000000000000000000000008152506128fe565b15610af157600060018081600181540180825580915050039060005260206000209060070201905084848260020191906109369291906129c0565b50600180805490506109489190613620565b8160000181905550338160030160006101000a81548173ffffffffffffffffffffffffffffffffffffffff021916908373ffffffffffffffffffffffffffffffffffffffff1602179055508060000154600760003373ffffffffffffffffffffffffffffffffffffffff1673ffffffffffffffffffffffffffffffffffffffff16815260200190815260200160002081905550600067ffffffffffffffff811115610a1c577f4e487b7100000000000000000000000000000000000000000000000000000000600052604160045260246000fd5b604051908082528060200260200182016040528015610a4a5781602001602082028036833780820191505090505b50816005019080519060200190610a62929190612a46565b50600067ffffffffffffffff811115610aa4577f4e487b7100000000000000000000000000000000000000000000000000000000600052604160045260246000fd5b604051908082528060200260200182016040528015610ad25781602001602082028036833780820191505090505b50816006019080519060200190610aea929190612a46565b5050610d37565b60008060018160018154018082558091505003906000526020600020906006020190508484826001019190610b279291906129c0565b506001600080549050610b3a9190613620565b8160000181905550338160020160006101000a81548173ffffffffffffffffffffffffffffffffffffffff021916908373ffffffffffffffffffffffffffffffffffffffff160217905550600067ffffffffffffffff811115610bc6577f4e487b7100000000000000000000000000000000000000000000000000000000600052604160045260246000fd5b604051908082528060200260200182016040528015610bf45781602001602082028036833780820191505090505b50816003019080519060200190610c0c929190612a46565b50600067ffffffffffffffff811115610c4e577f4e487b7100000000000000000000000000000000000000000000000000000000600052604160045260246000fd5b604051908082528060200260200182016040528015610c7c5781602001602082028036833780820191505090505b50816004019080519060200190610c94929190612a46565b508060000154600760003373ffffffffffffffffffffffffffffffffffffffff1673ffffffffffffffffffffffffffffffffffffffff168152602001908152602001600020819055506001600860003373ffffffffffffffffffffffffffffffffffffffff1673ffffffffffffffffffffffffffffffffffffffff16815260200190815260200160002060006101000a81548160ff021916908315150217905550505b505050505050565b60008181548110610d4f57600080fd5b9060005260206000209060060201600091509050806000015490806001018054610d78906136de565b80601f0160208091040260200160405190810160405280929190818152602001828054610da4906136de565b8015610df15780601f10610dc657610100808354040283529160200191610df1565b820191906000526020600020905b815481529060010190602001808311610dd457829003601f168201915b5050505050908060020160009054906101000a900473ffffffffffffffffffffffffffffffffffffffff16905083565b600860003373ffffffffffffffffffffffffffffffffffffffff1673ffffffffffffffffffffffffffffffffffffffff16815260200190815260200160002060009054906101000a900460ff16610ead576040517f08c379a0000000000000000000000000000000000000000000000000000000008152600401610ea490613391565b60405180910390fd5b600760003373ffffffffffffffffffffffffffffffffffffffff1673ffffffffffffffffffffffffffffffffffffffff1681526020019081526020016000205460018281548110610f27577f4e487b7100000000000000000000000000000000000000000000000000000000600052603260045260246000fd5b90600052602060002090600702016001015414610f79576040517f08c379a0000000000000000000000000000000000000000000000000000000008152600401610f70906133d1565b60405180910390fd5b60018181548110610fb3577f4e487b7100000000000000000000000000000000000000000000000000000000600052603260045260246000fd5b906000526020600020906007020160030160159054906101000a900460ff1615611012576040517f08c379a000000000000000000000000000000000000000000000000000000000815260040161100990613431565b60405180910390fd5b600180828154811061104d577f4e487b7100000000000000000000000000000000000000000000000000000000600052603260045260246000fd5b906000526020600020906007020160030160156101000a81548160ff02191690831515021790555050565b606060068260405161108a9190613208565b908152602001604051809103902060009054906101000a900473ffffffffffffffffffffffffffffffffffffffff1673ffffffffffffffffffffffffffffffffffffffff163373ffffffffffffffffffffffffffffffffffffffff1614611126576040517f08c379a000000000000000000000000000000000000000000000000000000000815260040161111d906133b1565b60405180910390fd5b600860003373ffffffffffffffffffffffffffffffffffffffff1673ffffffffffffffffffffffffffffffffffffffff16815260200190815260200160002060009054906101000a900460ff166111b2576040518060400160405280600481526020017f75736572000000000000000000000000000000000000000000000000000000008152506111e9565b6040518060400160405280600781526020017f636f6d70616e79000000000000000000000000000000000000000000000000008152505b9050919050565b6002818154811061120057600080fd5b9060005260206000209060060201600091509050806000018054611223906136de565b80601f016020809104026020016040519081016040528092919081815260200182805461124f906136de565b801561129c5780601f106112715761010080835404028352916020019161129c565b820191906000526020600020905b81548152906001019060200180831161127f57829003601f168201915b5050505050908060010180546112b1906136de565b80601f01602080910402602001604051908101604052809291908181526020018280546112dd906136de565b801561132a5780601f106112ff5761010080835404028352916020019161132a565b820191906000526020600020905b81548152906001019060200180831161130d57829003601f168201915b50505050509080600201805461133f906136de565b80601f016020809104026020016040519081016040528092919081815260200182805461136b906136de565b80156113b85780601f1061138d576101008083540402835291602001916113b8565b820191906000526020600020905b81548152906001019060200180831161139b57829003601f168201915b5050505050908060030180546113cd906136de565b80601f01602080910402602001604051908101604052809291908181526020018280546113f9906136de565b80156114465780601f1061141b57610100808354040283529160200191611446565b820191906000526020600020905b81548152906001019060200180831161142957829003601f168201915b505050505090806004015490806005018054611461906136de565b80601f016020809104026020016040519081016040528092919081815260200182805461148d906136de565b80156114da5780601f106114af576101008083540402835291602001916114da565b820191906000526020600020905b8154815290600101906020018083116114bd57829003601f168201915b5050505050905086565b600181815481106114f457600080fd5b9060005260206000209060070201600091509050806000015490806001015490806002018054611523906136de565b80601f016020809104026020016040519081016040528092919081815260200182805461154f906136de565b801561159c5780601f106115715761010080835404028352916020019161159c565b820191906000526020600020905b81548152906001019060200180831161157f57829003601f168201915b5050505050908060030160009054906101000a900473ffffffffffffffffffffffffffffffffffffffff16908060030160149054906101000a900460ff16908060030160159054906101000a900460ff16908060040154905087565b6006818051602081018201805184825260208301602085012081835280955050505050506000915054906101000a900473ffffffffffffffffffffffffffffffffffffffff1681565b6004818154811061165157600080fd5b906000526020600020906005020160009150905080600001549080600101805461167a906136de565b80601f01602080910402602001604051908101604052809291908181526020018280546116a6906136de565b80156116f35780601f106116c8576101008083540402835291602001916116f3565b820191906000526020600020905b8154815290600101906020018083116116d657829003601f168201915b5050505050908060020160009054906101000a900460ff16905083565b82600760003373ffffffffffffffffffffffffffffffffffffffff1673ffffffffffffffffffffffffffffffffffffffff16815260200190815260200160002054811461175c57600080fd5b600060046001816001815401808255809150500390600052602060002090600502019050600185815481106117ba577f4e487b7100000000000000000000000000000000000000000000000000000000600052603260045260246000fd5b906000526020600020906007020160050160016004805490506117dd9190613620565b908060018154018082558091505060019003906000526020600020016000909190919091505583838260010191906118169291906129c0565b5060008160020160006101000a81548160ff021916908315150217905550600067ffffffffffffffff811115611875577f4e487b7100000000000000000000000000000000000000000000000000000000600052604160045260246000fd5b6040519080825280602002602001820160405280156118a35781602001602082028036833780820191505090505b508160030190805190602001906118bb929190612a46565b50600067ffffffffffffffff8111156118fd577f4e487b7100000000000000000000000000000000000000000000000000000000600052604160045260246000fd5b60405190808252806020026020018201604052801561192b5781602001602082028036833780820191505090505b50816004019080519060200190611943929190612a46565b505050505050565b60076020528060005260406000206000915090505481565b3373ffffffffffffffffffffffffffffffffffffffff166006848460405161198c9291906131ef565b908152602001604051809103902060009054906101000a900473ffffffffffffffffffffffffffffffffffffffff1673ffffffffffffffffffffffffffffffffffffffff1614611a11576040517f08c379a0000000000000000000000000000000000000000000000000000000008152600401611a08906133f1565b60405180910390fd5b8060068484604051611a249291906131ef565b908152602001604051809103902060006101000a81548173ffffffffffffffffffffffffffffffffffffffff021916908373ffffffffffffffffffffffffffffffffffffffff1602179055506000600760003373ffffffffffffffffffffffffffffffffffffffff1673ffffffffffffffffffffffffffffffffffffffff1681526020019081526020016000205490506000600760003373ffffffffffffffffffffffffffffffffffffffff1673ffffffffffffffffffffffffffffffffffffffff1681526020019081526020016000208190555080600760008473ffffffffffffffffffffffffffffffffffffffff1673ffffffffffffffffffffffffffffffffffffffff1681526020019081526020016000208190555050505050565b60038181548110611b5357600080fd5b9060005260206000209060030201600091509050806000015490806001018054611b7c906136de565b80601f0160208091040260200160405190810160405280929190818152602001828054611ba8906136de565b8015611bf55780601f10611bca57610100808354040283529160200191611bf5565b820191906000526020600020905b815481529060010190602001808311611bd857829003601f168201915b505050505090806002018054611c0a906136de565b80601f0160208091040260200160405190810160405280929190818152602001828054611c36906136de565b8015611c835780601f10611c5857610100808354040283529160200191611c83565b820191906000526020600020905b815481529060010190602001808311611c6657829003601f168201915b5050505050905083565b60058181548110611c9d57600080fd5b9060005260206000209060060201600091509050806000018054611cc0906136de565b80601f0160208091040260200160405190810160405280929190818152602001828054611cec906136de565b8015611d395780601f10611d0e57610100808354040283529160200191611d39565b820191906000526020600020905b815481529060010190602001808311611d1c57829003601f168201915b505050505090806001018054611d4e906136de565b80601f0160208091040260200160405190810160405280929190818152602001828054611d7a906136de565b8015611dc75780601f10611d9c57610100808354040283529160200191611dc7565b820191906000526020600020905b815481529060010190602001808311611daa57829003601f168201915b505050505090806002018054611ddc906136de565b80601f0160208091040260200160405190810160405280929190818152602001828054611e08906136de565b8015611e555780601f10611e2a57610100808354040283529160200191611e55565b820191906000526020600020905b815481529060010190602001808311611e3857829003601f168201915b5050505050908060030160009054906101000a900460ff16908060040154908060050160009054906101000a900460ff16905086565b60086020528060005260406000206000915054906101000a900460ff1681565b600860003373ffffffffffffffffffffffffffffffffffffffff1673ffffffffffffffffffffffffffffffffffffffff16815260200190815260200160002060009054906101000a900460ff168015611fd8575060058281548110611f39577f4e487b7100000000000000000000000000000000000000000000000000000000600052603260045260246000fd5b9060005260206000209060060201600401546000600760003373ffffffffffffffffffffffffffffffffffffffff1673ffffffffffffffffffffffffffffffffffffffff1681526020019081526020016000205481548110611fc4577f4e487b7100000000000000000000000000000000000000000000000000000000600052603260045260246000fd5b906000526020600020906006020160000154145b8061215757506001600760003373ffffffffffffffffffffffffffffffffffffffff1673ffffffffffffffffffffffffffffffffffffffff1681526020019081526020016000205481548110612057577f4e487b7100000000000000000000000000000000000000000000000000000000600052603260045260246000fd5b906000526020600020906007020160030160159054906101000a900460ff1680156121565750600582815481106120b7577f4e487b7100000000000000000000000000000000000000000000000000000000600052603260045260246000fd5b9060005260206000209060060201600401546001600760003373ffffffffffffffffffffffffffffffffffffffff1673ffffffffffffffffffffffffffffffffffffffff1681526020019081526020016000205481548110612142577f4e487b7100000000000000000000000000000000000000000000000000000000600052603260045260246000fd5b906000526020600020906007020160010154145b5b612196576040517f08c379a000000000000000000000000000000000000000000000000000000000815260040161218d90613371565b60405180910390fd5b60006001600584815481106121d4577f4e487b7100000000000000000000000000000000000000000000000000000000600052603260045260246000fd5b906000526020600020906006020160050160006101000a81548160ff021916908315150217905550600090505b6000828154811061223b577f4e487b7100000000000000000000000000000000000000000000000000000000600052603260045260246000fd5b906000526020600020906006020160050180549050811015612396578260008381548110612292577f4e487b7100000000000000000000000000000000000000000000000000000000600052603260045260246000fd5b906000526020600020906006020160050182815481106122db577f4e487b7100000000000000000000000000000000000000000000000000000000600052603260045260246000fd5b90600052602060002001541415612383576000808381548110612327577f4e487b7100000000000000000000000000000000000000000000000000000000600052603260045260246000fd5b90600052602060002090600602016005018281548110612370577f4e487b7100000000000000000000000000000000000000000000000000000000600052603260045260246000fd5b9060005260206000200181905550612396565b808061238e90613741565b915050612201565b600090505b600082815481106123d5577f4e487b7100000000000000000000000000000000000000000000000000000000600052603260045260246000fd5b90600052602060002090600602016003018054905081101561253057600080838154811061242c577f4e487b7100000000000000000000000000000000000000000000000000000000600052603260045260246000fd5b90600052602060002090600602016003018281548110612475577f4e487b7100000000000000000000000000000000000000000000000000000000600052603260045260246000fd5b9060005260206000200154141561251d5782600083815481106124c1577f4e487b7100000000000000000000000000000000000000000000000000000000600052603260045260246000fd5b9060005260206000209060060201600501828154811061250a577f4e487b7100000000000000000000000000000000000000000000000000000000600052603260045260246000fd5b9060005260206000200181905550612530565b808061252890613741565b91505061239b565b6000828154811061256a577f4e487b7100000000000000000000000000000000000000000000000000000000600052603260045260246000fd5b9060005260206000209060060201600301805490508114156125f957600082815481106125c0577f4e487b7100000000000000000000000000000000000000000000000000000000600052603260045260246000fd5b90600052602060002090600602016003018390806001815401808255809150506001900390600052602060002001600090919091909150555b505050565b600060036001816001815401808255809150500390600052602060002090600302019050600760003373ffffffffffffffffffffffffffffffffffffffff1673ffffffffffffffffffffffffffffffffffffffff168152602001908152602001600020548160000181905550828282600201919061267d9291906129c0565b5084848260010191906126919291906129c0565b50600486815481106126cc577f4e487b7100000000000000000000000000000000000000000000000000000000600052603260045260246000fd5b906000526020600020906005020160040160016003805490506126ef9190613620565b90806001815401808255809150506001900390600052602060002001600090919091909150556001600760003373ffffffffffffffffffffffffffffffffffffffff1673ffffffffffffffffffffffffffffffffffffffff168152602001908152602001600020548154811061278e577f4e487b7100000000000000000000000000000000000000000000000000000000600052603260045260246000fd5b906000526020600020906007020160030160159054906101000a900460ff16156128f557600187815481106127ec577f4e487b7100000000000000000000000000000000000000000000000000000000600052603260045260246000fd5b9060005260206000209060070201600101546001600760003373ffffffffffffffffffffffffffffffffffffffff1673ffffffffffffffffffffffffffffffffffffffff1681526020019081526020016000205481548110612877577f4e487b7100000000000000000000000000000000000000000000000000000000600052603260045260246000fd5b90600052602060002090600702016001015414156128f4576001600487815481106128cb577f4e487b7100000000000000000000000000000000000000000000000000000000600052603260045260246000fd5b906000526020600020906005020160020160006101000a81548160ff0219169083151502179055505b5b50505050505050565b600061290a8383612912565b905092915050565b600081518351148015612932575081805190602001208380519060200120145b905092915050565b828054612946906136de565b90600052602060002090601f01602090048101928261296857600085556129af565b82601f1061298157805160ff19168380011785556129af565b828001600101855582156129af579182015b828111156129ae578251825591602001919060010190612993565b5b5090506129bc9190612a93565b5090565b8280546129cc906136de565b90600052602060002090601f0160209004810192826129ee5760008555612a35565b82601f10612a0757803560ff1916838001178555612a35565b82800160010185558215612a35579182015b82811115612a34578235825591602001919060010190612a19565b5b509050612a429190612a93565b5090565b828054828255906000526020600020908101928215612a82579160200282015b82811115612a81578251825591602001919060010190612a66565b5b509050612a8f9190612a93565b5090565b5b80821115612aac576000816000905550600101612a94565b5090565b6000612ac3612abe846135c8565b6135a3565b905082815260208101848484011115612adb57600080fd5b612ae684828561369c565b509392505050565b600081359050612afd81613a2b565b92915050565b60008083601f840112612b1557600080fd5b8235905067ffffffffffffffff811115612b2e57600080fd5b602083019150836001820283011115612b4657600080fd5b9250929050565b600082601f830112612b5e57600080fd5b8135612b6e848260208601612ab0565b91505092915050565b600081359050612b8681613a42565b92915050565b600060208284031215612b9e57600080fd5b6000612bac84828501612aee565b91505092915050565b600080600060408486031215612bca57600080fd5b600084013567ffffffffffffffff811115612be457600080fd5b612bf086828701612b03565b93509350506020612c0386828701612aee565b9150509250925092565b60008060008060008060608789031215612c2657600080fd5b600087013567ffffffffffffffff811115612c4057600080fd5b612c4c89828a01612b03565b9650965050602087013567ffffffffffffffff811115612c6b57600080fd5b612c7789828a01612b03565b9450945050604087013567ffffffffffffffff811115612c9657600080fd5b612ca289828a01612b03565b92509250509295509295509295565b600060208284031215612cc357600080fd5b600082013567ffffffffffffffff811115612cdd57600080fd5b612ce984828501612b4d565b91505092915050565b600060208284031215612d0457600080fd5b6000612d1284828501612b77565b91505092915050565b600080600060408486031215612d3057600080fd5b6000612d3e86828701612b77565b935050602084013567ffffffffffffffff811115612d5b57600080fd5b612d6786828701612b03565b92509250509250925092565b60008060008060008060008060a0898b031215612d8f57600080fd5b6000612d9d8b828c01612b77565b985050602089013567ffffffffffffffff811115612dba57600080fd5b612dc68b828c01612b03565b9750975050604089013567ffffffffffffffff811115612de557600080fd5b612df18b828c01612b03565b9550955050606089013567ffffffffffffffff811115612e1057600080fd5b612e1c8b828c01612b03565b93509350506080612e2f8b828c01612b77565b9150509295985092959890939650565b600080600080600080600080600080600060e08c8e031215612e6057600080fd5b6000612e6e8e828f01612b77565b9b505060208c013567ffffffffffffffff811115612e8b57600080fd5b612e978e828f01612b4d565b9a505060408c013567ffffffffffffffff811115612eb457600080fd5b612ec08e828f01612b03565b995099505060608c013567ffffffffffffffff811115612edf57600080fd5b612eeb8e828f01612b03565b975097505060808c013567ffffffffffffffff811115612f0a57600080fd5b612f168e828f01612b03565b955095505060a08c013567ffffffffffffffff811115612f3557600080fd5b612f418e828f01612b03565b935093505060c0612f548e828f01612b77565b9150509295989b509295989b9093969950565b60008060408385031215612f7a57600080fd5b6000612f8885828601612b77565b9250506020612f9985828601612b77565b9150509250929050565b60008060008060008060808789031215612fbc57600080fd5b6000612fca89828a01612b77565b9650506020612fdb89828a01612b77565b955050604087013567ffffffffffffffff811115612ff857600080fd5b61300489828a01612b03565b9450945050606087013567ffffffffffffffff81111561302357600080fd5b61302f89828a01612b03565b92509250509295509295509295565b61304781613654565b82525050565b61305681613666565b82525050565b60006130688385613615565b935061307583858461369c565b82840190509392505050565b600061308c826135f9565b6130968185613604565b93506130a68185602086016136ab565b6130af81613817565b840191505092915050565b60006130c5826135f9565b6130cf8185613615565b93506130df8185602086016136ab565b80840191505092915050565b60006130f8605283613604565b915061310382613828565b606082019050919050565b600061311b602383613604565b91506131268261389d565b604082019050919050565b600061313e603383613604565b9150613149826138ec565b604082019050919050565b6000613161602383613604565b915061316c8261393b565b604082019050919050565b6000613184603483613604565b915061318f8261398a565b604082019050919050565b60006131a7601b83613604565b91506131b2826139d9565b602082019050919050565b60006131ca602083613604565b91506131d582613a02565b602082019050919050565b6131e981613692565b82525050565b60006131fc82848661305c565b91508190509392505050565b600061321482846130ba565b915081905092915050565b6000602082019050613234600083018461303e565b92915050565b600060208201905061324f600083018461304d565b92915050565b6000602082019050818103600083015261326f8184613081565b905092915050565b600060c08201905081810360008301526132918189613081565b905081810360208301526132a58188613081565b905081810360408301526132b98187613081565b90506132c8606083018661304d565b6132d560808301856131e0565b6132e260a083018461304d565b979650505050505050565b600060c08201905081810360008301526133078189613081565b9050818103602083015261331b8188613081565b9050818103604083015261332f8187613081565b905081810360608301526133438186613081565b905061335260808301856131e0565b81810360a08301526133648184613081565b9050979650505050505050565b6000602082019050818103600083015261338a816130eb565b9050919050565b600060208201905081810360008301526133aa8161310e565b9050919050565b600060208201905081810360008301526133ca81613131565b9050919050565b600060208201905081810360008301526133ea81613154565b9050919050565b6000602082019050818103600083015261340a81613177565b9050919050565b6000602082019050818103600083015261342a8161319a565b9050919050565b6000602082019050818103600083015261344a816131bd565b9050919050565b600060208201905061346660008301846131e0565b92915050565b600060608201905061348160008301866131e0565b81810360208301526134938185613081565b90506134a2604083018461303e565b949350505050565b60006060820190506134bf60008301866131e0565b81810360208301526134d18185613081565b90506134e0604083018461304d565b949350505050565b60006060820190506134fd60008301866131e0565b818103602083015261350f8185613081565b905081810360408301526135238184613081565b9050949350505050565b600060e082019050613542600083018a6131e0565b61354f60208301896131e0565b81810360408301526135618188613081565b9050613570606083018761303e565b61357d608083018661304d565b61358a60a083018561304d565b61359760c08301846131e0565b98975050505050505050565b60006135ad6135be565b90506135b98282613710565b919050565b6000604051905090565b600067ffffffffffffffff8211156135e3576135e26137e8565b5b6135ec82613817565b9050602081019050919050565b600081519050919050565b600082825260208201905092915050565b600081905092915050565b600061362b82613692565b915061363683613692565b9250828210156136495761364861378a565b5b828203905092915050565b600061365f82613672565b9050919050565b60008115159050919050565b600073ffffffffffffffffffffffffffffffffffffffff82169050919050565b6000819050919050565b82818337600083830152505050565b60005b838110156136c95780820151818401526020810190506136ae565b838111156136d8576000848401525b50505050565b600060028204905060018216806136f657607f821691505b6020821081141561370a576137096137b9565b5b50919050565b61371982613817565b810181811067ffffffffffffffff82111715613738576137376137e8565b5b80604052505050565b600061374c82613692565b91507fffffffffffffffffffffffffffffffffffffffffffffffffffffffffffffffff82141561377f5761377e61378a565b5b600182019050919050565b7f4e487b7100000000000000000000000000000000000000000000000000000000600052601160045260246000fd5b7f4e487b7100000000000000000000000000000000000000000000000000000000600052602260045260246000fd5b7f4e487b7100000000000000000000000000000000000000000000000000000000600052604160045260246000fd5b6000601f19601f8301169050919050565b7f6572726f723a20617070726f7665722073686f756c642062652074686520636f60008201527f6d70616e79206163636f756e74206f722061206d616e61676572206f6620746860208201527f6520726571756972656420636f6d70616e790000000000000000000000000000604082015250565b7f6572726f723a2073656e646572206e6f74206120636f6d70616e79206163636f60008201527f756e740000000000000000000000000000000000000000000000000000000000602082015250565b7f6572726f723a20696e636f72726563742077616c6c657420616464726573732060008201527f7573656420666f72207369676e696e6720696e00000000000000000000000000602082015250565b7f6572726f723a2075736572206e6f74206f66207468652073616d6520636f6d7060008201527f616e790000000000000000000000000000000000000000000000000000000000602082015250565b7f6572726f723a2066756e6374696f6e2063616c6c65642066726f6d20696e636f60008201527f72726563742077616c6c65742061646472657373000000000000000000000000602082015250565b7f6572726f723a207573657220616c726561647920657869737473210000000000600082015250565b7f6572726f723a207573657220697320616c72656164792061206d616e61676572600082015250565b613a3481613654565b8114613a3f57600080fd5b50565b613a4b81613692565b8114613a5657600080fd5b5056fea264697066735822122060f8d12b9c84325073d4463f6a87d6ca8718b64084e86c011490a752244cfb3d64736f6c63430008010033",
  "immutableReferences": {},
  "source": "// SPDX-License-Identifier: MIT\r\npragma solidity ^0.8.1;\r\n\r\ncontract Decentraskill {\r\n    company[] public companies;\r\n    user[] public employees;\r\n    certificate[] public certifications;\r\n    endorsment[] public endorsments;\r\n    skill[] public skills;\r\n    experience[] public experiences;\r\n\r\n    mapping(string => address) public email_to_address;\r\n    mapping(address => uint256) public address_to_id;\r\n    mapping(address => bool) public is_company;\r\n\r\n    modifier verifiedUser(uint256 user_id) {\r\n        require(user_id == address_to_id[msg.sender]);\r\n        _;\r\n    }\r\n\r\n    struct company {\r\n        uint256 id;\r\n        string name;\r\n        address wallet_address;\r\n        uint256[] current_employees;\r\n        uint256[] previous_employees;\r\n        uint256[] requested_employees;\r\n    }\r\n\r\n    struct certificate {\r\n        string url;\r\n        string issue_date;\r\n        string valid_till;\r\n        string name;\r\n        uint256 id;\r\n        string issuer;\r\n    }\r\n\r\n    struct endorsment {\r\n        uint256 endorser_id;\r\n        string date;\r\n        string comment;\r\n    }\r\n\r\n    struct experience {\r\n        string starting_date;\r\n        string ending_date;\r\n        string role;\r\n        bool currently_working;\r\n        uint256 company_id;\r\n        bool is_approved;\r\n    }\r\n\r\n    struct skill {\r\n        uint256 id;\r\n        string name;\r\n        bool verified;\r\n        uint256[] skill_certifications;\r\n        uint256[] skill_endorsements;\r\n    }\r\n\r\n    struct user {\r\n        uint256 id;\r\n        uint256 company_id;\r\n        string name;\r\n        address wallet_address;\r\n        bool is_employed;\r\n        bool is_manager;\r\n        uint256 num_skill;\r\n        uint256[] user_skills;\r\n        uint256[] user_work_experience;\r\n    }\r\n\r\n    constructor() {\r\n        user storage dummy_user = employees.push();\r\n        dummy_user.name = \"dummy\";\r\n        dummy_user.wallet_address = msg.sender;\r\n        dummy_user.id = 0;\r\n        dummy_user.user_skills = new uint256[](0);\r\n        dummy_user.user_work_experience = new uint256[](0);\r\n    }\r\n\r\n    function memcmp(bytes memory a, bytes memory b)\r\n        internal\r\n        pure\r\n        returns (bool)\r\n    {\r\n        return (a.length == b.length) && (keccak256(a) == keccak256(b));\r\n    }\r\n\r\n    function strcmp(string memory a, string memory b)\r\n        internal\r\n        pure\r\n        returns (bool)\r\n    {\r\n        return memcmp(bytes(a), bytes(b));\r\n    }\r\n\r\n    function sign_up(\r\n        string calldata email,\r\n        string calldata name,\r\n        string calldata acc_type\r\n    ) public {\r\n        require(\r\n            email_to_address[email] == address(0),\r\n            \"error: user already exists!\"\r\n        );\r\n        email_to_address[email] = msg.sender;\r\n\r\n        if (strcmp(acc_type, \"user\")) {\r\n            user storage new_user = employees.push();\r\n            new_user.name = name;\r\n            new_user.id = employees.length - 1;\r\n            new_user.wallet_address = msg.sender;\r\n            address_to_id[msg.sender] = new_user.id;\r\n            new_user.user_skills = new uint256[](0);\r\n            new_user.user_work_experience = new uint256[](0);\r\n        } else {\r\n            company storage new_company = companies.push();\r\n            new_company.name = name;\r\n            new_company.id = companies.length - 1;\r\n            new_company.wallet_address = msg.sender;\r\n            new_company.current_employees = new uint256[](0);\r\n            new_company.previous_employees = new uint256[](0);\r\n            address_to_id[msg.sender] = new_company.id;\r\n            is_company[msg.sender] = true;\r\n        }\r\n    }\r\n\r\n    function approve_manager(uint256 employee_id) public {\r\n        require(is_company[msg.sender], \"error: sender not a company account\");\r\n        require(\r\n            employees[employee_id].company_id == address_to_id[msg.sender],\r\n            \"error: user not of the same company\"\r\n        );\r\n        require(\r\n            !(employees[employee_id].is_manager),\r\n            \"error: user is already a manager\"\r\n        );\r\n        employees[employee_id].is_manager = true;\r\n    }\r\n\r\n    function login(string memory email) public view returns (string memory) {\r\n        require(\r\n            msg.sender == email_to_address[email],\r\n            \"error: incorrect wallet address used for signing in\"\r\n        );\r\n        return (is_company[msg.sender]) ? \"company\" : \"user\";\r\n    }\r\n\r\n    function add_certification(\r\n        uint256 user_id,\r\n        string memory url,\r\n        string calldata issue_date,\r\n        string calldata valid_till,\r\n        string calldata name,\r\n        string calldata issuer,\r\n        uint256 linked_skill_id\r\n    ) public verifiedUser(user_id) {\r\n        certificate storage new_certificate = certifications.push();\r\n        new_certificate.url = url;\r\n        new_certificate.issue_date = issue_date;\r\n        new_certificate.valid_till = valid_till;\r\n        new_certificate.name = name;\r\n        new_certificate.id = certifications.length - 1;\r\n        new_certificate.issuer = issuer;\r\n        skills[linked_skill_id].skill_certifications.push(new_certificate.id);\r\n    }\r\n\r\n    function add_skill(uint256 userid, string calldata skill_name)\r\n        public\r\n        verifiedUser(userid)\r\n    {\r\n        skill storage new_skill = skills.push();\r\n        employees[userid].user_skills.push(skills.length - 1);\r\n        new_skill.name = skill_name;\r\n        new_skill.verified = false;\r\n        new_skill.skill_certifications = new uint256[](0);\r\n        new_skill.skill_endorsements = new uint256[](0);\r\n    }\r\n\r\n    function endorse_skill(\r\n        uint256 user_id,\r\n        uint256 skill_id,\r\n        string calldata endorsing_date,\r\n        string calldata comment\r\n    ) public {\r\n        endorsment storage new_endorsemnt = endorsments.push();\r\n        new_endorsemnt.endorser_id = address_to_id[msg.sender];\r\n        new_endorsemnt.comment = comment;\r\n        new_endorsemnt.date = endorsing_date;\r\n        skills[skill_id].skill_endorsements.push(endorsments.length - 1);\r\n        if (employees[address_to_id[msg.sender]].is_manager) {\r\n            if (\r\n                employees[address_to_id[msg.sender]].company_id ==\r\n                employees[user_id].company_id\r\n            ) {\r\n                skills[skill_id].verified = true;\r\n            }\r\n        }\r\n    }\r\n\r\n    function add_experience(\r\n        uint256 user_id,\r\n        string calldata starting_date,\r\n        string calldata ending_date,\r\n        string calldata role,\r\n        uint256 company_id\r\n    ) public verifiedUser(user_id) {\r\n        experience storage new_experience = experiences.push();\r\n        new_experience.company_id = company_id;\r\n        new_experience.currently_working = false;\r\n        new_experience.is_approved = false;\r\n        new_experience.starting_date = starting_date;\r\n        new_experience.ending_date = ending_date;\r\n        new_experience.role = role;\r\n        employees[user_id].user_work_experience.push(experiences.length - 1);\r\n        companies[company_id].requested_employees.push(experiences.length - 1);\r\n    }\r\n\r\n    function approve_experience(uint256 exp_id, uint256 company_id) public {\r\n        require(\r\n            (is_company[msg.sender] &&\r\n                companies[address_to_id[msg.sender]].id ==\r\n                experiences[exp_id].company_id) ||\r\n                (employees[address_to_id[msg.sender]].is_manager &&\r\n                    employees[address_to_id[msg.sender]].company_id ==\r\n                    experiences[exp_id].company_id),\r\n            \"error: approver should be the company account or a manager of the required company\"\r\n        );\r\n        uint256 i;\r\n        experiences[exp_id].is_approved = true;\r\n        for (i = 0; i < companies[company_id].requested_employees.length; i++) {\r\n            if (companies[company_id].requested_employees[i] == exp_id) {\r\n                companies[company_id].requested_employees[i] = 0;\r\n                break;\r\n            }\r\n        }\r\n        for (i = 0; i < companies[company_id].current_employees.length; i++) {\r\n            if (companies[company_id].current_employees[i] == 0) {\r\n                companies[company_id].requested_employees[i] = exp_id;\r\n                break;\r\n            }\r\n        }\r\n        if (i == companies[company_id].current_employees.length)\r\n            companies[company_id].current_employees.push(exp_id);\r\n    }\r\n\r\n    function update_wallet_address(string calldata email, address new_address)\r\n        public\r\n    {\r\n        require(\r\n            email_to_address[email] == msg.sender,\r\n            \"error: function called from incorrect wallet address\"\r\n        );\r\n        email_to_address[email] = new_address;\r\n        uint256 id = address_to_id[msg.sender];\r\n        address_to_id[msg.sender] = 0;\r\n        address_to_id[new_address] = id;\r\n    }\r\n}\r\n",
  "sourcePath": "C:/Users/hardi/Desktop/Projects/blockchain/Decentraskill/contracts/Decentraskill.sol",
  "compiler": {
    "name": "solc",
    "version": "0.8.1+commit.df193b15.Emscripten.clang"
  },
  "schemaVersion": "3.4.0",
  "updatedAt": "2021-10-08T19:22:41.636Z",
  "networkType": "ethereum",
  "devdoc": {
    "kind": "dev",
    "methods": {},
    "version": 1
  },
  "userdoc": {
    "kind": "user",
    "methods": {},
    "version": 1
  }
}