{
  "contractName": "Decentraskill",
  "abi": [
    {
      "inputs": [],
      "stateMutability": "nonpayable",
      "type": "constructor"
    },
    {
      "inputs": [
        {
          "internalType": "address",
          "name": "",
          "type": "address"
        }
      ],
      "name": "address_to_id",
      "outputs": [
        {
          "internalType": "uint256",
          "name": "",
          "type": "uint256"
        }
      ],
      "stateMutability": "view",
      "type": "function",
      "constant": true
    },
    {
      "inputs": [
        {
          "internalType": "uint256",
          "name": "",
          "type": "uint256"
        }
      ],
      "name": "certifications",
      "outputs": [
        {
          "internalType": "string",
          "name": "url",
          "type": "string"
        },
        {
          "internalType": "string",
          "name": "issue_date",
          "type": "string"
        },
        {
          "internalType": "string",
          "name": "valid_till",
          "type": "string"
        },
        {
          "internalType": "string",
          "name": "name",
          "type": "string"
        },
        {
          "internalType": "uint256",
          "name": "id",
          "type": "uint256"
        },
        {
          "internalType": "string",
          "name": "issuer",
          "type": "string"
        }
      ],
      "stateMutability": "view",
      "type": "function",
      "constant": true
    },
    {
      "inputs": [
        {
          "internalType": "uint256",
          "name": "",
          "type": "uint256"
        }
      ],
      "name": "companies",
      "outputs": [
        {
          "internalType": "uint256",
          "name": "id",
          "type": "uint256"
        },
        {
          "internalType": "string",
          "name": "name",
          "type": "string"
        },
        {
          "internalType": "address",
          "name": "wallet_address",
          "type": "address"
        }
      ],
      "stateMutability": "view",
      "type": "function",
      "constant": true
    },
    {
      "inputs": [
        {
          "internalType": "string",
          "name": "",
          "type": "string"
        }
      ],
      "name": "email_to_address",
      "outputs": [
        {
          "internalType": "address",
          "name": "",
          "type": "address"
        }
      ],
      "stateMutability": "view",
      "type": "function",
      "constant": true
    },
    {
      "inputs": [
        {
          "internalType": "uint256",
          "name": "",
          "type": "uint256"
        }
      ],
      "name": "employees",
      "outputs": [
        {
          "internalType": "uint256",
          "name": "id",
          "type": "uint256"
        },
        {
          "internalType": "uint256",
          "name": "company_id",
          "type": "uint256"
        },
        {
          "internalType": "string",
          "name": "name",
          "type": "string"
        },
        {
          "internalType": "address",
          "name": "wallet_address",
          "type": "address"
        },
        {
          "internalType": "bool",
          "name": "is_employed",
          "type": "bool"
        },
        {
          "internalType": "bool",
          "name": "is_manager",
          "type": "bool"
        },
        {
          "internalType": "uint256",
          "name": "num_skill",
          "type": "uint256"
        }
      ],
      "stateMutability": "view",
      "type": "function",
      "constant": true
    },
    {
      "inputs": [
        {
          "internalType": "uint256",
          "name": "",
          "type": "uint256"
        }
      ],
      "name": "endorsments",
      "outputs": [
        {
          "internalType": "uint256",
          "name": "endorser_id",
          "type": "uint256"
        },
        {
          "internalType": "uint256",
          "name": "date",
          "type": "uint256"
        },
        {
          "internalType": "string",
          "name": "comment",
          "type": "string"
        }
      ],
      "stateMutability": "view",
      "type": "function",
      "constant": true
    },
    {
      "inputs": [
        {
          "internalType": "uint256",
          "name": "",
          "type": "uint256"
        }
      ],
      "name": "experiences",
      "outputs": [
        {
          "internalType": "string",
          "name": "starting_date",
          "type": "string"
        },
        {
          "internalType": "string",
          "name": "ending_date",
          "type": "string"
        },
        {
          "internalType": "bool",
          "name": "currently_working",
          "type": "bool"
        },
        {
          "internalType": "uint256",
          "name": "company_id",
          "type": "uint256"
        },
        {
          "internalType": "bool",
          "name": "is_approved",
          "type": "bool"
        }
      ],
      "stateMutability": "view",
      "type": "function",
      "constant": true
    },
    {
      "inputs": [
        {
          "internalType": "address",
          "name": "",
          "type": "address"
        }
      ],
      "name": "is_company",
      "outputs": [
        {
          "internalType": "bool",
          "name": "",
          "type": "bool"
        }
      ],
      "stateMutability": "view",
      "type": "function",
      "constant": true
    },
    {
      "inputs": [
        {
          "internalType": "uint256",
          "name": "",
          "type": "uint256"
        }
      ],
      "name": "skills",
      "outputs": [
        {
          "internalType": "string",
          "name": "name",
          "type": "string"
        },
        {
          "internalType": "bool",
          "name": "verified",
          "type": "bool"
        }
      ],
      "stateMutability": "view",
      "type": "function",
      "constant": true
    },
    {
      "inputs": [
        {
          "internalType": "string",
          "name": "email",
          "type": "string"
        },
        {
          "internalType": "string",
          "name": "name",
          "type": "string"
        },
        {
          "internalType": "string",
          "name": "acc_type",
          "type": "string"
        }
      ],
      "name": "sign_up",
      "outputs": [],
      "stateMutability": "nonpayable",
      "type": "function"
    },
    {
      "inputs": [
        {
          "internalType": "uint256",
          "name": "employee_id",
          "type": "uint256"
        },
        {
          "internalType": "uint256",
          "name": "company_id",
          "type": "uint256"
        }
      ],
      "name": "add_employee_to_company",
      "outputs": [],
      "stateMutability": "nonpayable",
      "type": "function"
    },
    {
      "inputs": [
        {
          "internalType": "uint256",
          "name": "employee_id",
          "type": "uint256"
        }
      ],
      "name": "approve_manager",
      "outputs": [],
      "stateMutability": "nonpayable",
      "type": "function"
    },
    {
      "inputs": [
        {
          "internalType": "string",
          "name": "email",
          "type": "string"
        }
      ],
      "name": "login",
      "outputs": [
        {
          "internalType": "string",
          "name": "",
          "type": "string"
        }
      ],
      "stateMutability": "view",
      "type": "function",
      "constant": true
    },
    {
      "inputs": [
        {
          "internalType": "string",
          "name": "url",
          "type": "string"
        },
        {
          "internalType": "string",
          "name": "issue_date",
          "type": "string"
        },
        {
          "internalType": "string",
          "name": "valid_till",
          "type": "string"
        },
        {
          "internalType": "string",
          "name": "name",
          "type": "string"
        },
        {
          "internalType": "string",
          "name": "issuer",
          "type": "string"
        }
      ],
      "name": "add_certification",
      "outputs": [],
      "stateMutability": "nonpayable",
      "type": "function"
    },
    {
      "inputs": [
        {
          "internalType": "uint256",
          "name": "userid",
          "type": "uint256"
        },
        {
          "internalType": "string",
          "name": "skill_name",
          "type": "string"
        }
      ],
      "name": "add_skill",
      "outputs": [],
      "stateMutability": "nonpayable",
      "type": "function"
    },
    {
      "inputs": [
        {
          "internalType": "uint256",
          "name": "user_id",
          "type": "uint256"
        },
        {
          "internalType": "uint256",
          "name": "skill_id",
          "type": "uint256"
        },
        {
          "internalType": "string",
          "name": "comment",
          "type": "string"
        }
      ],
      "name": "endorse_skill",
      "outputs": [],
      "stateMutability": "nonpayable",
      "type": "function"
    },
    {
      "inputs": [
        {
          "internalType": "uint256",
          "name": "user_id",
          "type": "uint256"
        },
        {
          "internalType": "string",
          "name": "starting_date",
          "type": "string"
        },
        {
          "internalType": "string",
          "name": "ending_date",
          "type": "string"
        },
        {
          "internalType": "uint256",
          "name": "company_id",
          "type": "uint256"
        }
      ],
      "name": "add_experience",
      "outputs": [],
      "stateMutability": "nonpayable",
      "type": "function"
    },
    {
      "inputs": [
        {
          "internalType": "uint256",
          "name": "exp_id",
          "type": "uint256"
        },
        {
          "internalType": "uint256",
          "name": "company_id",
          "type": "uint256"
        }
      ],
      "name": "approve_experience",
      "outputs": [],
      "stateMutability": "nonpayable",
      "type": "function"
    }
  ],
  "bytecode": "0x60806040523480156200001157600080fd5b5060006001808160018154018082558091505003906000526020600020906007020190506040518060400160405280600581526020017f64756d6d7900000000000000000000000000000000000000000000000000000081525081600201908051906020019062000084929190620001f1565b50338160030160006101000a81548173ffffffffffffffffffffffffffffffffffffffff021916908373ffffffffffffffffffffffffffffffffffffffff16021790555060008160000181905550600067ffffffffffffffff81111562000114577f4e487b7100000000000000000000000000000000000000000000000000000000600052604160045260246000fd5b604051908082528060200260200182016040528015620001435781602001602082028036833780820191505090505b508160050190805190602001906200015d92919062000282565b50600067ffffffffffffffff811115620001a0577f4e487b7100000000000000000000000000000000000000000000000000000000600052604160045260246000fd5b604051908082528060200260200182016040528015620001cf5781602001602082028036833780820191505090505b50816006019080519060200190620001e992919062000282565b505062000358565b828054620001ff90620002f3565b90600052602060002090601f0160209004810192826200022357600085556200026f565b82601f106200023e57805160ff19168380011785556200026f565b828001600101855582156200026f579182015b828111156200026e57825182559160200191906001019062000251565b5b5090506200027e9190620002d4565b5090565b828054828255906000526020600020908101928215620002c1579160200282015b82811115620002c0578251825591602001919060010190620002a3565b5b509050620002d09190620002d4565b5090565b5b80821115620002ef576000816000905550600101620002d5565b5090565b600060028204905060018216806200030c57607f821691505b6020821081141562000323576200032262000329565b5b50919050565b7f4e487b7100000000000000000000000000000000000000000000000000000000600052602260045260246000fd5b61314380620003686000396000f3fe608060405234801561001057600080fd5b50600436106101165760003560e01c80636348d707116100a2578063cf3e7c7c11610071578063cf3e7c7c14610337578063d1448ab31461036b578063dd7a753814610387578063edf85a86146103b7578063f457e201146103d357610116565b80636348d7071461029d5780637a52f30e146102b9578063802c5261146102e9578063b1e116c31461030557610116565b80633c0359a4116100e95780633c0359a4146101b55780634739326b146101ea5780634845a2951461022057806350d15fbe146102505780635a2ec07c1461028157610116565b80631575cdea1461011b5780632813d19d1461013757806336d77eaa146101695780633a7d280c14610185575b600080fd5b6101356004803603810190610130919061278e565b6103ef565b005b610151600480360381019061014c9190612978565b61098e565b60405161016093929190612d68565b60405180910390f35b610183600480360381019061017e9190612978565b610a70565b005b61019f600480360381019061019a9190612749565b610c25565b6040516101ac9190612c16565b60405180910390f35b6101cf60048036038101906101ca9190612978565b610d6a565b6040516101e196959493929190612cc9565b60405180910390f35b61020460048036038101906101ff9190612978565b61105e565b6040516102179796959493929190612de4565b60405180910390f35b61023a60048036038101906102359190612937565b611172565b6040516102479190612be0565b60405180910390f35b61026a60048036038101906102659190612978565b6111bb565b604051610278929190612c38565b60405180910390f35b61029b600480360381019061029691906129a1565b611284565b005b6102b760048036038101906102b29190612ad0565b611472565b005b6102d360048036038101906102ce9190612720565b611765565b6040516102e09190612d4d565b60405180910390f35b61030360048036038101906102fe9190612832565b61177d565b005b61031f600480360381019061031a9190612978565b61182c565b60405161032e93929190612da6565b60405180910390f35b610351600480360381019061034c9190612978565b6118ee565b604051610362959493929190612c68565b60405180910390f35b610385600480360381019061038091906129f9565b611a5e565b005b6103a1600480360381019061039c9190612720565b611bfc565b6040516103ae9190612bfb565b60405180910390f35b6103d160048036038101906103cc9190612a94565b611c1c565b005b6103ed60048036038101906103e89190612a94565b6122fa565b005b600073ffffffffffffffffffffffffffffffffffffffff1660068787604051610419929190612bc7565b908152602001604051809103902060009054906101000a900473ffffffffffffffffffffffffffffffffffffffff1673ffffffffffffffffffffffffffffffffffffffff161461046857600080fd5b336006878760405161047b929190612bc7565b908152602001604051809103902060006101000a81548173ffffffffffffffffffffffffffffffffffffffff021916908373ffffffffffffffffffffffffffffffffffffffff16021790555061054a82828080601f016020809104026020016040519081016040528093929190818152602001838380828437600081840152601f19601f820116905080830192505050505050506040518060400160405280600481526020017f7573657200000000000000000000000000000000000000000000000000000000815250612518565b156107405760006001808160018154018082558091505003906000526020600020906007020190508484826002019190610585929190612554565b50600180805490506105979190612ed7565b8160000181905550338160030160006101000a81548173ffffffffffffffffffffffffffffffffffffffff021916908373ffffffffffffffffffffffffffffffffffffffff1602179055508060000154600760003373ffffffffffffffffffffffffffffffffffffffff1673ffffffffffffffffffffffffffffffffffffffff16815260200190815260200160002081905550600067ffffffffffffffff81111561066b577f4e487b7100000000000000000000000000000000000000000000000000000000600052604160045260246000fd5b6040519080825280602002602001820160405280156106995781602001602082028036833780820191505090505b508160050190805190602001906106b19291906125da565b50600067ffffffffffffffff8111156106f3577f4e487b7100000000000000000000000000000000000000000000000000000000600052604160045260246000fd5b6040519080825280602002602001820160405280156107215781602001602082028036833780820191505090505b508160060190805190602001906107399291906125da565b5050610986565b60008060018160018154018082558091505003906000526020600020906006020190508484826001019190610776929190612554565b5060016000805490506107899190612ed7565b8160000181905550338160020160006101000a81548173ffffffffffffffffffffffffffffffffffffffff021916908373ffffffffffffffffffffffffffffffffffffffff160217905550600067ffffffffffffffff811115610815577f4e487b7100000000000000000000000000000000000000000000000000000000600052604160045260246000fd5b6040519080825280602002602001820160405280156108435781602001602082028036833780820191505090505b5081600301908051906020019061085b9291906125da565b50600067ffffffffffffffff81111561089d577f4e487b7100000000000000000000000000000000000000000000000000000000600052604160045260246000fd5b6040519080825280602002602001820160405280156108cb5781602001602082028036833780820191505090505b508160040190805190602001906108e39291906125da565b508060000154600760003373ffffffffffffffffffffffffffffffffffffffff1673ffffffffffffffffffffffffffffffffffffffff168152602001908152602001600020819055506001600860003373ffffffffffffffffffffffffffffffffffffffff1673ffffffffffffffffffffffffffffffffffffffff16815260200190815260200160002060006101000a81548160ff021916908315150217905550505b505050505050565b6000818154811061099e57600080fd5b90600052602060002090600602016000915090508060000154908060010180546109c790612f95565b80601f01602080910402602001604051908101604052809291908181526020018280546109f390612f95565b8015610a405780601f10610a1557610100808354040283529160200191610a40565b820191906000526020600020905b815481529060010190602001808311610a2357829003601f168201915b5050505050908060020160009054906101000a900473ffffffffffffffffffffffffffffffffffffffff16905083565b600860003373ffffffffffffffffffffffffffffffffffffffff1673ffffffffffffffffffffffffffffffffffffffff16815260200190815260200160002060009054906101000a900460ff16610ac657600080fd5b600760003373ffffffffffffffffffffffffffffffffffffffff1673ffffffffffffffffffffffffffffffffffffffff1681526020019081526020016000205460018281548110610b40577f4e487b7100000000000000000000000000000000000000000000000000000000600052603260045260246000fd5b90600052602060002090600702016001015414610b5c57600080fd5b60018181548110610b96577f4e487b7100000000000000000000000000000000000000000000000000000000600052603260045260246000fd5b906000526020600020906007020160030160159054906101000a900460ff1615610bbf57600080fd5b6001808281548110610bfa577f4e487b7100000000000000000000000000000000000000000000000000000000600052603260045260246000fd5b906000526020600020906007020160030160156101000a81548160ff02191690831515021790555050565b606060068383604051610c39929190612bc7565b908152602001604051809103902060009054906101000a900473ffffffffffffffffffffffffffffffffffffffff1673ffffffffffffffffffffffffffffffffffffffff163373ffffffffffffffffffffffffffffffffffffffff1614610c9f57600080fd5b600860003373ffffffffffffffffffffffffffffffffffffffff1673ffffffffffffffffffffffffffffffffffffffff16815260200190815260200160002060009054906101000a900460ff16610d2b576040518060400160405280600481526020017f7573657200000000000000000000000000000000000000000000000000000000815250610d62565b6040518060400160405280600781526020017f636f6d70616e79000000000000000000000000000000000000000000000000008152505b905092915050565b60028181548110610d7a57600080fd5b9060005260206000209060060201600091509050806000018054610d9d90612f95565b80601f0160208091040260200160405190810160405280929190818152602001828054610dc990612f95565b8015610e165780601f10610deb57610100808354040283529160200191610e16565b820191906000526020600020905b815481529060010190602001808311610df957829003601f168201915b505050505090806001018054610e2b90612f95565b80601f0160208091040260200160405190810160405280929190818152602001828054610e5790612f95565b8015610ea45780601f10610e7957610100808354040283529160200191610ea4565b820191906000526020600020905b815481529060010190602001808311610e8757829003601f168201915b505050505090806002018054610eb990612f95565b80601f0160208091040260200160405190810160405280929190818152602001828054610ee590612f95565b8015610f325780601f10610f0757610100808354040283529160200191610f32565b820191906000526020600020905b815481529060010190602001808311610f1557829003601f168201915b505050505090806003018054610f4790612f95565b80601f0160208091040260200160405190810160405280929190818152602001828054610f7390612f95565b8015610fc05780601f10610f9557610100808354040283529160200191610fc0565b820191906000526020600020905b815481529060010190602001808311610fa357829003601f168201915b505050505090806004015490806005018054610fdb90612f95565b80601f016020809104026020016040519081016040528092919081815260200182805461100790612f95565b80156110545780601f1061102957610100808354040283529160200191611054565b820191906000526020600020905b81548152906001019060200180831161103757829003601f168201915b5050505050905086565b6001818154811061106e57600080fd5b906000526020600020906007020160009150905080600001549080600101549080600201805461109d90612f95565b80601f01602080910402602001604051908101604052809291908181526020018280546110c990612f95565b80156111165780601f106110eb57610100808354040283529160200191611116565b820191906000526020600020905b8154815290600101906020018083116110f957829003601f168201915b5050505050908060030160009054906101000a900473ffffffffffffffffffffffffffffffffffffffff16908060030160149054906101000a900460ff16908060030160159054906101000a900460ff16908060040154905087565b6006818051602081018201805184825260208301602085012081835280955050505050506000915054906101000a900473ffffffffffffffffffffffffffffffffffffffff1681565b600481815481106111cb57600080fd5b90600052602060002090600402016000915090508060000180546111ee90612f95565b80601f016020809104026020016040519081016040528092919081815260200182805461121a90612f95565b80156112675780601f1061123c57610100808354040283529160200191611267565b820191906000526020600020905b81548152906001019060200180831161124a57829003601f168201915b5050505050908060010160009054906101000a900460ff16905082565b600060046001816001815401808255809150500390600052602060002090600402019050600184815481106112e2577f4e487b7100000000000000000000000000000000000000000000000000000000600052603260045260246000fd5b906000526020600020906007020160050160016004805490506113059190612ed7565b9080600181540180825580915050600190039060005260206000200160009091909190915055828282600001919061133e929190612554565b5060008160010160006101000a81548160ff021916908315150217905550600067ffffffffffffffff81111561139d577f4e487b7100000000000000000000000000000000000000000000000000000000600052604160045260246000fd5b6040519080825280602002602001820160405280156113cb5781602001602082028036833780820191505090505b508160020190805190602001906113e39291906125da565b50600067ffffffffffffffff811115611425577f4e487b7100000000000000000000000000000000000000000000000000000000600052604160045260246000fd5b6040519080825280602002602001820160405280156114535781602001602082028036833780820191505090505b5081600301908051906020019061146b9291906125da565b5050505050565b600060036001816001815401808255809150500390600052602060002090600302019050600760003373ffffffffffffffffffffffffffffffffffffffff1673ffffffffffffffffffffffffffffffffffffffff16815260200190815260200160002054816000018190555082828260020191906114f1929190612554565b5042816001018190555060048481548110611535577f4e487b7100000000000000000000000000000000000000000000000000000000600052603260045260246000fd5b906000526020600020906004020160030160016003805490506115589190612ed7565b90806001815401808255809150506001900390600052602060002001600090919091909150556001600760003373ffffffffffffffffffffffffffffffffffffffff1673ffffffffffffffffffffffffffffffffffffffff16815260200190815260200160002054815481106115f7577f4e487b7100000000000000000000000000000000000000000000000000000000600052603260045260246000fd5b906000526020600020906007020160030160159054906101000a900460ff161561175e5760018581548110611655577f4e487b7100000000000000000000000000000000000000000000000000000000600052603260045260246000fd5b9060005260206000209060070201600101546001600760003373ffffffffffffffffffffffffffffffffffffffff1673ffffffffffffffffffffffffffffffffffffffff16815260200190815260200160002054815481106116e0577f4e487b7100000000000000000000000000000000000000000000000000000000600052603260045260246000fd5b906000526020600020906007020160010154141561175d57600160048581548110611734577f4e487b7100000000000000000000000000000000000000000000000000000000600052603260045260246000fd5b906000526020600020906004020160010160006101000a81548160ff0219169083151502179055505b5b5050505050565b60076020528060005260406000206000915090505481565b6000600260018160018154018082558091505003906000526020600020906006020190508a8a8260000191906117b4929190612554565b5088888260010191906117c8929190612554565b5086868260020191906117dc929190612554565b5084848260030191906117f0929190612554565b5060016002805490506118039190612ed7565b8160040181905550828282600501919061181e929190612554565b505050505050505050505050565b6003818154811061183c57600080fd5b906000526020600020906003020160009150905080600001549080600101549080600201805461186b90612f95565b80601f016020809104026020016040519081016040528092919081815260200182805461189790612f95565b80156118e45780601f106118b9576101008083540402835291602001916118e4565b820191906000526020600020905b8154815290600101906020018083116118c757829003601f168201915b5050505050905083565b600581815481106118fe57600080fd5b906000526020600020906005020160009150905080600001805461192190612f95565b80601f016020809104026020016040519081016040528092919081815260200182805461194d90612f95565b801561199a5780601f1061196f5761010080835404028352916020019161199a565b820191906000526020600020905b81548152906001019060200180831161197d57829003601f168201915b5050505050908060010180546119af90612f95565b80601f01602080910402602001604051908101604052809291908181526020018280546119db90612f95565b8015611a285780601f106119fd57610100808354040283529160200191611a28565b820191906000526020600020905b815481529060010190602001808311611a0b57829003601f168201915b5050505050908060020160009054906101000a900460ff16908060030154908060040160009054906101000a900460ff16905085565b60006005600181600181540180825580915050039060005260206000209060050201905081816003018190555060008160020160006101000a81548160ff02191690831515021790555060008160040160006101000a81548160ff0219169083151502179055508585826000019190611ad8929190612554565b508383826001019190611aec929190612554565b5060018781548110611b27577f4e487b7100000000000000000000000000000000000000000000000000000000600052603260045260246000fd5b90600052602060002090600702016006016001600580549050611b4a9190612ed7565b908060018154018082558091505060019003906000526020600020016000909190919091505560008281548110611baa577f4e487b7100000000000000000000000000000000000000000000000000000000600052603260045260246000fd5b90600052602060002090600602016005016001600580549050611bcd9190612ed7565b908060018154018082558091505060019003906000526020600020016000909190919091505550505050505050565b60086020528060005260406000206000915054906101000a900460ff1681565b8060058381548110611c57577f4e487b7100000000000000000000000000000000000000000000000000000000600052603260045260246000fd5b90600052602060002090600502016003015414611c7357600080fd5b600860003373ffffffffffffffffffffffffffffffffffffffff1673ffffffffffffffffffffffffffffffffffffffff16815260200190815260200160002060009054906101000a900460ff168015611d555750806000600760003373ffffffffffffffffffffffffffffffffffffffff1673ffffffffffffffffffffffffffffffffffffffff1681526020019081526020016000205481548110611d41577f4e487b7100000000000000000000000000000000000000000000000000000000600052603260045260246000fd5b906000526020600020906006020160000154145b80611e8957506001600760003373ffffffffffffffffffffffffffffffffffffffff1673ffffffffffffffffffffffffffffffffffffffff1681526020019081526020016000205481548110611dd4577f4e487b7100000000000000000000000000000000000000000000000000000000600052603260045260246000fd5b906000526020600020906007020160030160159054906101000a900460ff168015611e885750806001600760003373ffffffffffffffffffffffffffffffffffffffff1673ffffffffffffffffffffffffffffffffffffffff1681526020019081526020016000205481548110611e74577f4e487b7100000000000000000000000000000000000000000000000000000000600052603260045260246000fd5b906000526020600020906007020160010154145b5b611e9257600080fd5b6000600160058481548110611ed0577f4e487b7100000000000000000000000000000000000000000000000000000000600052603260045260246000fd5b906000526020600020906005020160040160006101000a81548160ff021916908315150217905550600090505b60008281548110611f37577f4e487b7100000000000000000000000000000000000000000000000000000000600052603260045260246000fd5b906000526020600020906006020160050180549050811015612092578260008381548110611f8e577f4e487b7100000000000000000000000000000000000000000000000000000000600052603260045260246000fd5b90600052602060002090600602016005018281548110611fd7577f4e487b7100000000000000000000000000000000000000000000000000000000600052603260045260246000fd5b9060005260206000200154141561207f576000808381548110612023577f4e487b7100000000000000000000000000000000000000000000000000000000600052603260045260246000fd5b9060005260206000209060060201600501828154811061206c577f4e487b7100000000000000000000000000000000000000000000000000000000600052603260045260246000fd5b9060005260206000200181905550612092565b808061208a90612ff8565b915050611efd565b600090505b600082815481106120d1577f4e487b7100000000000000000000000000000000000000000000000000000000600052603260045260246000fd5b90600052602060002090600602016003018054905081101561222c576000808381548110612128577f4e487b7100000000000000000000000000000000000000000000000000000000600052603260045260246000fd5b90600052602060002090600602016003018281548110612171577f4e487b7100000000000000000000000000000000000000000000000000000000600052603260045260246000fd5b906000526020600020015414156122195782600083815481106121bd577f4e487b7100000000000000000000000000000000000000000000000000000000600052603260045260246000fd5b90600052602060002090600602016005018281548110612206577f4e487b7100000000000000000000000000000000000000000000000000000000600052603260045260246000fd5b906000526020600020018190555061222c565b808061222490612ff8565b915050612097565b60008281548110612266577f4e487b7100000000000000000000000000000000000000000000000000000000600052603260045260246000fd5b9060005260206000209060060201600301805490508114156122f557600082815481106122bc577f4e487b7100000000000000000000000000000000000000000000000000000000600052603260045260246000fd5b90600052602060002090600602016003018390806001815401808255809150506001900390600052602060002001600090919091909150555b505050565b6001600760003373ffffffffffffffffffffffffffffffffffffffff1673ffffffffffffffffffffffffffffffffffffffff1681526020019081526020016000205481548110612373577f4e487b7100000000000000000000000000000000000000000000000000000000600052603260045260246000fd5b906000526020600020906007020160030160159054906101000a900460ff16806123e65750600860003373ffffffffffffffffffffffffffffffffffffffff1673ffffffffffffffffffffffffffffffffffffffff16815260200190815260200160002060009054906101000a900460ff165b6123ef57600080fd5b60008181548110612429577f4e487b7100000000000000000000000000000000000000000000000000000000600052603260045260246000fd5b9060005260206000209060060201600301829080600181540180825580915050600190039060005260206000200160009091909190915055600180838154811061249c577f4e487b7100000000000000000000000000000000000000000000000000000000600052603260045260246000fd5b906000526020600020906007020160030160146101000a81548160ff02191690831515021790555080600183815481106124ff577f4e487b7100000000000000000000000000000000000000000000000000000000600052603260045260246000fd5b9060005260206000209060070201600101819055505050565b6000612524838361252c565b905092915050565b60008151835114801561254c575081805190602001208380519060200120145b905092915050565b82805461256090612f95565b90600052602060002090601f01602090048101928261258257600085556125c9565b82601f1061259b57803560ff19168380011785556125c9565b828001600101855582156125c9579182015b828111156125c85782358255916020019190600101906125ad565b5b5090506125d69190612627565b5090565b828054828255906000526020600020908101928215612616579160200282015b828111156126155782518255916020019190600101906125fa565b5b5090506126239190612627565b5090565b5b80821115612640576000816000905550600101612628565b5090565b600061265761265284612e7f565b612e5a565b90508281526020810184848401111561266f57600080fd5b61267a848285612f53565b509392505050565b600081359050612691816130df565b92915050565b60008083601f8401126126a957600080fd5b8235905067ffffffffffffffff8111156126c257600080fd5b6020830191508360018202830111156126da57600080fd5b9250929050565b600082601f8301126126f257600080fd5b8135612702848260208601612644565b91505092915050565b60008135905061271a816130f6565b92915050565b60006020828403121561273257600080fd5b600061274084828501612682565b91505092915050565b6000806020838503121561275c57600080fd5b600083013567ffffffffffffffff81111561277657600080fd5b61278285828601612697565b92509250509250929050565b600080600080600080606087890312156127a757600080fd5b600087013567ffffffffffffffff8111156127c157600080fd5b6127cd89828a01612697565b9650965050602087013567ffffffffffffffff8111156127ec57600080fd5b6127f889828a01612697565b9450945050604087013567ffffffffffffffff81111561281757600080fd5b61282389828a01612697565b92509250509295509295509295565b60008060008060008060008060008060a08b8d03121561285157600080fd5b60008b013567ffffffffffffffff81111561286b57600080fd5b6128778d828e01612697565b9a509a505060208b013567ffffffffffffffff81111561289657600080fd5b6128a28d828e01612697565b985098505060408b013567ffffffffffffffff8111156128c157600080fd5b6128cd8d828e01612697565b965096505060608b013567ffffffffffffffff8111156128ec57600080fd5b6128f88d828e01612697565b945094505060808b013567ffffffffffffffff81111561291757600080fd5b6129238d828e01612697565b92509250509295989b9194979a5092959850565b60006020828403121561294957600080fd5b600082013567ffffffffffffffff81111561296357600080fd5b61296f848285016126e1565b91505092915050565b60006020828403121561298a57600080fd5b60006129988482850161270b565b91505092915050565b6000806000604084860312156129b657600080fd5b60006129c48682870161270b565b935050602084013567ffffffffffffffff8111156129e157600080fd5b6129ed86828701612697565b92509250509250925092565b60008060008060008060808789031215612a1257600080fd5b6000612a2089828a0161270b565b965050602087013567ffffffffffffffff811115612a3d57600080fd5b612a4989828a01612697565b9550955050604087013567ffffffffffffffff811115612a6857600080fd5b612a7489828a01612697565b93509350506060612a8789828a0161270b565b9150509295509295509295565b60008060408385031215612aa757600080fd5b6000612ab58582860161270b565b9250506020612ac68582860161270b565b9150509250929050565b60008060008060608587031215612ae657600080fd5b6000612af48782880161270b565b9450506020612b058782880161270b565b935050604085013567ffffffffffffffff811115612b2257600080fd5b612b2e87828801612697565b925092505092959194509250565b612b4581612f0b565b82525050565b612b5481612f1d565b82525050565b6000612b668385612ecc565b9350612b73838584612f53565b82840190509392505050565b6000612b8a82612eb0565b612b948185612ebb565b9350612ba4818560208601612f62565b612bad816130ce565b840191505092915050565b612bc181612f49565b82525050565b6000612bd4828486612b5a565b91508190509392505050565b6000602082019050612bf56000830184612b3c565b92915050565b6000602082019050612c106000830184612b4b565b92915050565b60006020820190508181036000830152612c308184612b7f565b905092915050565b60006040820190508181036000830152612c528185612b7f565b9050612c616020830184612b4b565b9392505050565b600060a0820190508181036000830152612c828188612b7f565b90508181036020830152612c968187612b7f565b9050612ca56040830186612b4b565b612cb26060830185612bb8565b612cbf6080830184612b4b565b9695505050505050565b600060c0820190508181036000830152612ce38189612b7f565b90508181036020830152612cf78188612b7f565b90508181036040830152612d0b8187612b7f565b90508181036060830152612d1f8186612b7f565b9050612d2e6080830185612bb8565b81810360a0830152612d408184612b7f565b9050979650505050505050565b6000602082019050612d626000830184612bb8565b92915050565b6000606082019050612d7d6000830186612bb8565b8181036020830152612d8f8185612b7f565b9050612d9e6040830184612b3c565b949350505050565b6000606082019050612dbb6000830186612bb8565b612dc86020830185612bb8565b8181036040830152612dda8184612b7f565b9050949350505050565b600060e082019050612df9600083018a612bb8565b612e066020830189612bb8565b8181036040830152612e188188612b7f565b9050612e276060830187612b3c565b612e346080830186612b4b565b612e4160a0830185612b4b565b612e4e60c0830184612bb8565b98975050505050505050565b6000612e64612e75565b9050612e708282612fc7565b919050565b6000604051905090565b600067ffffffffffffffff821115612e9a57612e9961309f565b5b612ea3826130ce565b9050602081019050919050565b600081519050919050565b600082825260208201905092915050565b600081905092915050565b6000612ee282612f49565b9150612eed83612f49565b925082821015612f0057612eff613041565b5b828203905092915050565b6000612f1682612f29565b9050919050565b60008115159050919050565b600073ffffffffffffffffffffffffffffffffffffffff82169050919050565b6000819050919050565b82818337600083830152505050565b60005b83811015612f80578082015181840152602081019050612f65565b83811115612f8f576000848401525b50505050565b60006002820490506001821680612fad57607f821691505b60208210811415612fc157612fc0613070565b5b50919050565b612fd0826130ce565b810181811067ffffffffffffffff82111715612fef57612fee61309f565b5b80604052505050565b600061300382612f49565b91507fffffffffffffffffffffffffffffffffffffffffffffffffffffffffffffffff82141561303657613035613041565b5b600182019050919050565b7f4e487b7100000000000000000000000000000000000000000000000000000000600052601160045260246000fd5b7f4e487b7100000000000000000000000000000000000000000000000000000000600052602260045260246000fd5b7f4e487b7100000000000000000000000000000000000000000000000000000000600052604160045260246000fd5b6000601f19601f8301169050919050565b6130e881612f0b565b81146130f357600080fd5b50565b6130ff81612f49565b811461310a57600080fd5b5056fea2646970667358221220959b626c066eb21a24dec051d9cc5375561daf42312ba6401e669c55190e8f2c64736f6c63430008010033",
  "immutableReferences": {},
  "source": "// SPDX-License-Identifier: MIT\npragma solidity ^0.8.1;\n\ncontract Decentraskill {\n    company[] public companies;\n    user[] public employees;\n    certificate[] public certifications;\n    endorsment[] public endorsments;\n    skill[] public skills;\n    experience[] public experiences;\n\n    mapping(string => address) public email_to_address;\n    mapping(address => uint256) public address_to_id;\n    mapping(address => bool) public is_company;\n\n    struct company {\n        uint256 id;\n        string name;\n        address wallet_address;\n        uint256[] current_employees;\n        uint256[] previous_employees;\n        uint256[] requested_employees;\n    }\n\n    struct certificate {\n        string url;\n        string issue_date;\n        string valid_till;\n        string name;\n        uint256 id;\n        string issuer;\n    }\n\n    struct endorsment {\n        uint256 endorser_id;\n        uint256 date;\n        string comment;\n    }\n\n    struct experience {\n        string starting_date;\n        string ending_date;\n        bool currently_working;\n        uint256 company_id;\n        bool is_approved;\n    }\n\n    struct skill {\n        string name;\n        bool verified;\n        uint256[] skill_certifications;\n        uint256[] skill_endorsements;\n    }\n\n    struct user {\n        uint256 id;\n        uint256 company_id;\n        string name;\n        address wallet_address;\n        bool is_employed;\n        bool is_manager;\n        uint256 num_skill;\n        uint256[] user_skills;\n        uint256[] user_work_experience;\n    }\n\n    constructor() {\n        user storage dummy_user = employees.push();\n        dummy_user.name = \"dummy\";\n        dummy_user.wallet_address = msg.sender;\n        dummy_user.id = 0;\n        dummy_user.user_skills = new uint256[](0);\n        dummy_user.user_work_experience = new uint256[](0);\n    }\n\n    function memcmp(bytes memory a, bytes memory b)\n        internal\n        pure\n        returns (bool)\n    {\n        return (a.length == b.length) && (keccak256(a) == keccak256(b));\n    }\n\n    function strcmp(string memory a, string memory b)\n        internal\n        pure\n        returns (bool)\n    {\n        return memcmp(bytes(a), bytes(b));\n    }\n\n    function sign_up(\n        string calldata email,\n        string calldata name,\n        string calldata acc_type\n    ) public {\n        require(email_to_address[email] == address(0));\n        email_to_address[email] = msg.sender;\n\n        if (strcmp(acc_type, \"user\")) {\n            user storage new_user = employees.push();\n            new_user.name = name;\n            new_user.id = employees.length - 1;\n            new_user.wallet_address = msg.sender;\n            address_to_id[msg.sender] = new_user.id;\n            new_user.user_skills = new uint256[](0);\n            new_user.user_work_experience = new uint256[](0);\n        } else {\n            company storage new_company = companies.push();\n            new_company.name = name;\n            new_company.id = companies.length - 1;\n            new_company.wallet_address = msg.sender;\n            new_company.current_employees = new uint256[](0);\n            new_company.previous_employees = new uint256[](0);\n            address_to_id[msg.sender] = new_company.id;\n            is_company[msg.sender] = true;\n        }\n    }\n\n    function add_employee_to_company(uint256 employee_id, uint256 company_id)\n        public\n    {\n        require(\n            employees[address_to_id[msg.sender]].is_manager ||\n                is_company[msg.sender]\n        );\n        companies[company_id].current_employees.push(employee_id);\n        employees[employee_id].is_employed = true;\n        employees[employee_id].company_id = company_id;\n    }\n\n    function approve_manager(uint256 employee_id) public {\n        require(is_company[msg.sender]);\n        require(employees[employee_id].company_id == address_to_id[msg.sender]);\n        require(!(employees[employee_id].is_manager));\n        employees[employee_id].is_manager = true;\n    }\n\n    function login(string calldata email) public view returns (string memory) {\n        require(msg.sender == email_to_address[email]);\n        return (is_company[msg.sender]) ? \"company\" : \"user\";\n    }\n\n    function add_certification(\n        string calldata url,\n        string calldata issue_date,\n        string calldata valid_till,\n        string calldata name,\n        string calldata issuer\n    ) public {\n        certificate storage new_certificate = certifications.push();\n        new_certificate.url = url;\n        new_certificate.issue_date = issue_date;\n        new_certificate.valid_till = valid_till;\n        new_certificate.name = name;\n        new_certificate.id = certifications.length - 1;\n        new_certificate.issuer = issuer;\n    }\n\n    function add_skill(uint256 userid, string calldata skill_name) public {\n        skill storage new_skill = skills.push();\n        employees[userid].user_skills.push(skills.length - 1);\n        new_skill.name = skill_name;\n        new_skill.verified = false;\n        new_skill.skill_certifications = new uint256[](0);\n        new_skill.skill_endorsements = new uint256[](0);\n    }\n\n    function endorse_skill(\n        uint256 user_id,\n        uint256 skill_id,\n        string calldata comment\n    ) public {\n        endorsment storage new_endorsemnt = endorsments.push();\n        new_endorsemnt.endorser_id = address_to_id[msg.sender];\n        new_endorsemnt.comment = comment;\n        new_endorsemnt.date = block.timestamp;\n        skills[skill_id].skill_endorsements.push(endorsments.length - 1);\n        if (employees[address_to_id[msg.sender]].is_manager) {\n            if (\n                employees[address_to_id[msg.sender]].company_id ==\n                employees[user_id].company_id\n            ) {\n                skills[skill_id].verified = true;\n            }\n        }\n    }\n\n    function add_experience(\n        uint256 user_id,\n        string calldata starting_date,\n        string calldata ending_date,\n        uint256 company_id\n    ) public {\n        experience storage new_experience = experiences.push();\n        new_experience.company_id = company_id;\n        new_experience.currently_working = false;\n        new_experience.is_approved = false;\n        new_experience.starting_date = starting_date;\n        new_experience.ending_date = ending_date;\n        employees[user_id].user_work_experience.push(experiences.length - 1);\n        companies[company_id].requested_employees.push(experiences.length - 1);\n    }\n\n    function approve_experience(uint256 exp_id, uint256 company_id) public {\n        require(experiences[exp_id].company_id == company_id);\n        require(\n            (is_company[msg.sender] &&\n                companies[address_to_id[msg.sender]].id == company_id) ||\n                (employees[address_to_id[msg.sender]].is_manager &&\n                    employees[address_to_id[msg.sender]].company_id ==\n                    company_id)\n        );\n        uint256 i;\n        experiences[exp_id].is_approved = true;\n        for (i = 0; i < companies[company_id].requested_employees.length; i++) {\n            if (companies[company_id].requested_employees[i] == exp_id) {\n                companies[company_id].requested_employees[i] = 0;\n                break;\n            }\n        }\n        for (i = 0; i < companies[company_id].current_employees.length; i++) {\n            if (companies[company_id].current_employees[i] == 0) {\n                companies[company_id].requested_employees[i] = exp_id;\n                break;\n            }\n        }\n        if (i == companies[company_id].current_employees.length)\n            companies[company_id].current_employees.push(exp_id);\n    }\n}\n",
  "sourcePath": "/home/sdas/code/decentraskill/contracts/Decentraskill.sol",
  "compiler": {
    "name": "solc",
    "version": "0.8.1+commit.df193b15.Emscripten.clang"
  },
  "schemaVersion": "3.4.3",
  "updatedAt": "2021-10-04T20:47:39.557Z",
  "networkType": "ethereum",
  "devdoc": {
    "kind": "dev",
    "methods": {},
    "version": 1
  },
  "userdoc": {
    "kind": "user",
    "methods": {},
    "version": 1
  }
}